:020000040800F2
:10000000D00400204501000891100008A50B00084D
:100010008D100008B1020008791F000800000000E0
:10002000000000000000000000000000A513000810
:10003000C90200080000000031120008B5140008D1
:100040005F0100085F0100085F0100085F01000810
:100050005F0100085F0100085F0100085F01000800
:100060005F0100085F010008A90400085F010008A3
:100070005F0100085F0100085F0100085F010008E0
:100080005F0100085F0100085F0100085F010008D0
:100090005F0100085F0100085F0100088505000896
:1000A0005F0100085F0100085F0100085F010008B0
:1000B0006517000889170008B11700085F010008DC
:1000C0005F0100085F0100085F0100085F01000890
:1000D0005F0100085F0100085F0100085F01000880
:1000E000190400085F0100085F0100085F010008B3
:1000F0005F0100085F0100085F0100085F01000860
:100100005F0100085F0100085F0100085F0100084F
:100110005F0100085F0100085F0100085F0100083F
:100120005F0100085F0100085F0100085F0100082F
:10013000DFF80CD000F088F800480047E5220008FE
:10014000D00400200648804706480047FEE7FEE747
:10015000FEE7FEE7FEE7FEE7FEE7FEE7FEE7FEE777
:10016000C514000831010008C10F80EAE07008449E
:10017000CA079623002100F038B800F0004220F0B2
:100180000040C10DC0F3160040F400007F2901DAE1
:1001900000207047962903DCC1F19601C84001E0B8
:1001A00096398840002AF4D04042704730B50B465B
:1001B000014600202022012409E021FA02F59D4297
:1001C00005D303FA02F5491B04FA02F52844151E6B
:1001D000A2F10102F1DC30BD0029A8BF7047401C2C
:1001E000490008BF20F00100704710B4B0FA80FC4D
:1001F00000FA0CF050EA010404BF10BC704749B18A
:10020000CCF1200421FA04F411FA0CF118BF0121F9
:1002100021430843A3EB0C01CB1D4FEA00614FEAD9
:10022000102042BF002010BC704700EBC3501044A8
:100230000029A4BF10BC7047401C490008BF20F033
:10024000010010BC70470000064C074D06E0E06856
:1002500040F0010394E8070098471034AC42F6D30D
:10026000FFF76AFF98240008B824000810B5044678
:10027000224609A1094801F081FE0C21022001F06B
:10028000E7FF07A002F023F80C21022001F0E0FFB5
:10029000024802F01CF810BD256400001400002084
:1002A00020202020202020202020202000000000CE
:1002B00000BFFEE710B500F00DF900F0CBF800F03C
:1002C00077F800F0E7FE10BD704710B500F0CEFCE7
:1002D000A02000F015FD044600F0ECFC204610BD07
:1002E00070B5044600BFFFF7F0FF0028FBD100F017
:1002F000BDFCE10901F0FE0141F0A00000F000FDAD
:10030000E0B200F0FDFC00F0B1FCC4F3C71141F015
:10031000A10000F0F5FC002000F068FC054600F0AC
:10032000C9FC284670BD70B504460D4600BFFFF7F6
:10033000CCFF0028FBD100F099FCE10901F0FE019F
:1003400041F0A00000F0DCFCE0B200F0D9FC28464F
:1003500000F0D6FC00F0AEFC70BD70B50020FFF7D9
:10036000BFFF04460120FFF7BBFF054605EB042055
:1003700086B2304670BD000010B5044609480088BA
:10038000000A0949087007480078084908700648BB
:1003900001780020FFF7C7FF044801780120FFF72C
:1003A000C2FF10BD2A00002064000020650000206C
:1003B00010B50121092000F05DFF4FF440401349C2
:1003C0000880032088704820C870114800F000FBA6
:1003D0000E21012000F0DCFA0F21012000F0D8FAF4
:1003E0004FF4004000F000F94FF4804000F0FCF8BA
:1003F0000020084908714FF4404008600820487107
:1004000001208871084600F009F910BD04000020A1
:10041000000C01400800002010B54FF4004000F02F
:10042000E9F830B14FF4004000F0DEF80120074950
:1004300008704FF4804000F0DDF830B14FF4804098
:1004400000F0D2F801200249087010BD1B00002006
:100450001D00002010B50121052000F00BFF102029
:100460000E490880032088704820C8700C4800F0AE
:10047000AFFA0421002000F08BFA102000F0B4F84D
:10048000002008490871102008600C2048710120E4
:100490008871084600F0C2F810BD0000040000207A
:1004A000000801400800002010B5102000F0A2F85C
:1004B00050B1102000F098F8044800881E3003491D
:1004C000088001200249087010BD00002A000020A9
:1004D0002100002010B50121052000F0CBFE2020D6
:1004E00024490880032088704820C870224800F002
:1004F0006FFA0521002000F04BFA202000F074F87C
:1005000000201E490871202008600C20487101203D
:100510008871084600F082F80121092000F0AAFE47
:100520004FF4407013490880032088704820C87039
:10053000134800F04DFA0821012000F029FA0921A2
:10054000012000F025FA4FF4807000F04DF84FF4D0
:10055000007000F049F80020084908714FF440701D
:1005600008600C20487101208871084600F056F898
:1005700010BD000004000020000801400800002019
:10058000000C014010B5202000F034F850B12020BC
:1005900000F02AF8104800881E380F490880012012
:1005A0000E4908704FF4807000F024F830B14FF419
:1005B000807000F019F80120094908704FF40070AC
:1005C00000F018F830B14FF4007000F00DF8012081
:1005D0000449087010BD00002A00002021000020FE
:1005E0001F0000201E000020014908607047000025
:1005F00014040140014600200022074B1B6803EA57
:100600000102054B14331B680B4013B10AB10120E2
:1006100000E0002070470000000401400021234951
:100620008279002A3AD00A46126803689A430B4638
:100630001A600A1D126803689A430B1D1A6002793A
:1006400011440A6803681A430A60184A083212689B
:1006500003689A43154B08331A601A1D1268036821
:100660009A43124B0C331A604279102A0ED11A1F8A
:10067000126803681A430D4B08331A601A1D12687A
:1006800003681A43094B0C331A600DE0074942799D
:1006900011440A6803681A430A6005E002791144AC
:1006A0000A6803689A430A6070470000000401402A
:1006B00010B500F015F810BD10B50121042000F0B0
:1006C000D9FDC020044908804820C87003208870E4
:1006D000024800F07DF910BD040000200008014030
:1006E00010B500F031F8164801F090F8012104200F
:1006F00000F0A0FD002013494880C88042F20F702E
:10070000888040F2CF200880002008720C4801F059
:100710008FFA01210A4801F05DF80021084801F034
:1007200058FA01221146064801F0F0F90121044867
:1007300001F05CF80121024801F05BF810BD0000F7
:10074000000800408800002010B5FFF7B5FF012128
:10075000022000F06FFD00201949C88048804FF644
:10076000FF7088800120088000200872154801F081
:100770005FFA0420144908800020C88002204880C5
:100780000F200881012088800E4801F069F90223BA
:100790001A4601210B4801F02DF90021094801F00A
:1007A00018FA0121074801F024F80121054801F059
:1007B0001DF801221146034801F0A8F910BD000000
:1007C0008800002000040040A200002010B520484E
:1007D00001F031F91F4909684FF4803202FB010032
:1007E0001D49088009881D4A1288881AFFF7BCFC39
:1007F0000446FFF7C2FC00B2194908800846B0F968
:100800000000002804DD0846B0F9000008800EE072
:100810001348B0F90000002806DA11480088404269
:1008200000B20F49088002E000200D4908800C4802
:10083000B0F900004FF416714843C82190FBF1F065
:1008400008490860044800880449088010BD000079
:100850000004004028000020220000202400002086
:10086000260000201000002070B5044619480078CA
:1008700001282DD1002017490870FFF7A7FF204657
:1008800000F02EF805461449284601F0E9FD134909
:1008900008600846006800280ADD084600684EF631
:1008A0006021884204DA0D49098888B200F06CFDA5
:1008B0000A4800684EF66021884202DB481E07495C
:1008C000086006480068002802DC00200349086030
:1008D00070BD00001A0000202E00002080000020C3
:1008E000014621480088081A204A108020480088C4
:1008F000128850431F4A10801C4800881E4A1288E4
:10090000801A1E4A1288504300EBC00202EB00100E
:100910004FF6FF7202EA8000194A108019480088D9
:10092000124A1288504300EB800040004FF47A7264
:1009300090FBF2F0144A12881044134A10800D48BC
:1009400000880F4A128810440F4A128810440F4A38
:10095000126810440D4A106004480088064A10804E
:100960000A4800687047000010000020780000204E
:100970006C000020720000207A0000206E00002031
:100980007400002070000020760000208400002009
:1009900030B500228B071C0F0F2303FA04F20B4B18
:1009A0008C1053F824309343084C8D1044F82530B4
:1009B00023468C1053F824308C07240F00FA04F4DB
:1009C0002343024C8D1044F8253030BD080001400F
:1009D0002DE9F041024600250026002000230024D6
:1009E000002791F803C00CF00F0591F803C00CF03C
:1009F000100CBCF1000F03D091F802C04CEA0505C1
:100A000091F800C0BCF1000F31D0146800202BE039
:100A10004FF0010C0CFA00F3B1F800C00CEA030629
:100A20009E4220D183004FF00F0C0CFA03F7BC4319
:100A300005FA03FC4CEA040491F803C0BCF1280F4A
:100A400006D14FF0010C0CFA00FCC2F814C00AE009
:100A500091F803C0BCF1480F05D14FF0010C0CFA1E
:100A600000FCC2F810C0401C0828D1D31460B1F8B3
:100A700000C0BCF1FF0F34DD546800202EE000F10F
:100A8000080C4FF0010808FA0CF3B1F800C00CEAAA
:100A900003069E4221D183004FF00F0C0CFA03F79E
:100AA000BC4305FA03FC4CEA040491F803C0BCF112
:100AB000280F05D100F1080C08FA0CF8C2F81480D0
:100AC00091F803C0BCF1480F07D100F1080C4FF0BA
:100AD000010808FA0CF8C2F81080401C0828CED390
:100AE0005460BDE8F081000010B50121042000F041
:100AF000C1FB04200B4908801820C87003208870AF
:100B00000948FFF765FF0121102000F0B3FB032027
:100B1000044908801020C870032088700348FFF73C
:100B200057FF10BD040000200008014000100140E4
:100B300041617047F8B506460C461546ADF80040D1
:100B40008DF8035003208DF8020069463046FFF708
:100B50003FFFF8BD08B50121084600F08BFB0121DD
:100B6000042000F087FB4FF40070ADF80000032074
:100B70008DF8020018208DF8030069460848FFF739
:100B800027FF4FF48060ADF8000003208DF80200CD
:100B900004208DF8030069460148FFF719FF08BDDE
:100BA0000008014000BFFEE710B514224FF4806139
:100BB0000B48FFF7BFFF14224FF400610848FFF70E
:100BC000B9FF012007490860052001F0BBFA0120A8
:100BD0000549C1F8A801052001F0B4FA10BD0000D4
:100BE000000C0140AC8121420080214270B50546D5
:100BF0000024042211021A48FFF79CFF002615E08A
:100C00000120184908600A2001F09CFA6006040ED1
:100C10001548D0F8280108B144F001040A2001F079
:100C200091FA00200F490860701CC6B2082EE7DB5D
:100C300014224FF480610A48FFF77CFF0120094924
:100C40000860052001F07EFA0748C0F8A851052089
:100C500001F078FA002003490860204670BD0000CA
:100C6000000C0140AC8121420080214210B51422C9
:100C70004FF480610C48FFF75DFF01200B490860CD
:100C80000B49C1F8AC01052001F05CFA00200749CE
:100C90000860052001F056FA00200549C1F8AC01B2
:100CA000052001F04FFA10BD000C0140A88121423F
:100CB0000080214210B514224FF480610D48FFF7E7
:100CC00039FF00200C49086001200C49C1F8AC0133
:100CD000052001F037FA012007490860052001F0DE
:100CE00031FA00200549C1F8AC01052001F02AFACB
:100CF00010BD0000000C0140A8812142008021426B
:100D000070B5044614224FF480612148FFF712FFAA
:100D100000251EE004F0800018B101201D49086084
:100D200002E000201B4908606006040E052001F067
:100D300009FA01201749091D0860052001F002FA8F
:100D400000201549C1F8AC01052001F0FBF9681C31
:100D5000C5B2082DDEDB042211020D48FFF7EAFEC2
:100D600001200C49091D0860052001F0EBF90A4833
:100D7000D0F82801C5B2052001F0E4F900200549AA
:100D8000091D0860052001F0DDF9284670BD00004E
:100D9000000C0140A88121420080214270B502462A
:100DA0000024002500230020958A138B1B0445EAAC
:100DB000030626F07F4404EA01068E4201D1012099
:100DC00000E0002070BD21B1028842F001020280E3
:100DD00004E002884FF6FE731A400280704721B18A
:100DE000028842F48072028004E002884FF6FF63BA
:100DF0001A400280704721B1028842F400720280DA
:100E000004E002884FF6FF531A400280704700004A
:100E10002DE9F04385B004460D460026B14604276F
:100E2000DFF8CC80A6884FF6C0700640684600F018
:100E300041FADDF808802F48B8FBF0F01FFA80F97E
:100E400046EA0906A68020884FF6FE7108402080F9
:100E500000262949286888420CD828684000B8FB39
:100E6000F0F087B2042F00DA04273E4309F10100B5
:100E7000208427E0E8884BF6FF71884206D1286875
:100E800000EB4000B8FBF0F087B209E0286800EB07
:100E9000C00101EB0010B8FBF0F087B247F48047C7
:100EA000C7F30B0008B947F0010747F400400643B9
:100EB0004FF4967009FB00F04FF47A7190FBF1F05B
:100EC000401C2084A683208840F0010020802688D2
:100ED0004FF6F5300640A888698908430643268006
:100EE000A88929890843208105B0BDE8F083000066
:100EF00000127A0040420F00A086010010B50121C7
:100F0000480500F097F90121082000F0B3F9C0204E
:100F10000F490880032088701C20C8700D48FFF717
:100F200057FD00200C4988804BF6FF70C8800020D8
:100F3000088148814FF4804088810848086008484B
:100F4000FFF766FF01210648FFF73DFF10BD0000D7
:100F500004000020000C0140AC000020A08601002D
:100F60000054004012B141F0010102E04FF6FE735F
:100F700019400182704701827047000010B5044695
:100F8000224609A1094800F0F9FF0C21012001F0D7
:100F90005FF907A001F09BF90C21012001F058F93D
:100FA000024801F094F910BD2564000014000020EF
:100FB00020202020202020202020202000000000B1
:100FC00017480078012806D1022015490870084604
:100FD00000781449087014480078012806D10320CD
:100FE00011490870084600780E4908700F480078CB
:100FF000012806D104200D490870084600780949E7
:1010000008700B480078012806D1052008490870AF
:1010100008460078034908700248007870470000CD
:101020001B000020200000201F0000201E000020C8
:101030001D00002010B501F01EF90021012001F073
:1010400007F90AA001F043F90021022001F000F99C
:1010500009A001F03CF90B49098888B2FFF706F9AD
:1010600009480088FFF78AFF10BD0000534554204F
:101070005350454544203A005245414C2053504579
:1010800045443A00100000202A00002000BFFEE77F
:101090007047000010B54FF4A06000F06BF81E2000
:1010A000174908700020487088700120C8700846F1
:1010B00000F028F80A20124908700120487000202A
:1010C00088700120C870084600F01CF817200C49F1
:1010D000087001204870002088700120C870084600
:1010E00000F010F828200649087001204870002000
:1010F00088700120C870084600F004F810BD000098
:101100000000002070B5002100230F22C47804B332
:10111000154C246804F4E064C4F5E064210AC1F1CC
:101120000403CA40447804FA03F18478144021434C
:1011300009010E4C0678A155047804F01F0501241E
:10114000AC4005786D11AD0005F1E025C5F8004112
:1011500009E0047804F01F050124AC40044D067832
:10116000761145F8264070BD0CED00E000E400E08B
:1011700080E100E002490143024A1160704700002B
:101180000000FA050CED00E010B50446FFF7ACFCDA
:101190000121084600F04EF80020134908804EF661
:1011A0005F2088800020C88048804FF0804000F099
:1011B0003FFD60200D4908800120488000204881C3
:1011C0004EF66020001B401EC8804FF0804000F0AB
:1011D000A7FC0821C80600F0F3FC00214FF0804076
:1011E00000F007FB10BD00008800002092000020E6
:1011F00010B504460220FFF7C7FF00214FF08040E2
:1012000000F0F7FA4EF66020001B401E0749C88028
:101210004FF0804000F084FC0821C80600F0D0FCAC
:101220000121880700F0E5FA10BD000092000020BF
:101230007047000029B1064AD2690243044BDA61C3
:1012400004E0034AD2698243014BDA61704700002F
:101250000010024029B1064A12690243044B1A6188
:1012600004E0034A12698243014B1A61704700008F
:101270000010024029B1064A92690243044B9A6168
:1012800004E0034A92698243014B9A61704700006F
:101290000010024029B1064AD2680243044BDA60CA
:1012A00004E0034AD2688243014BDA6070470000D1
:1012B0000010024030B500210022002400232D4DF3
:1012C0006D6805F00C0121B1042905D0082923D14E
:1012D00005E0294D056022E0274D05601FE0254D02
:1012E0006D6805F47012234D6D6805F48034022595
:1012F00005EB92421CB9214D554305600BE01D4D95
:101300006D6805F400351DB11C4D5543056002E0C4
:10131000194D5543056002E0174D056000BF00BF41
:10132000144D6D6805F0F0010909154D6B5C0568F9
:10133000DD4045600F4D6D6805F4E061090A104D10
:101340006B5C4568DD4085600A4D6D6805F4605151
:10135000C90A0B4D6B5C4568DD40C560054D6D6885
:1013600005F44041890B074D6B5CC568B5FBF3F58F
:10137000056130BD0010024000127A0000093D00F6
:10138000500000206000002010B5044601200449F0
:101390000861022008612046FFF72AFF10BD000007
:1013A00000100140704710B500F002F810BD0000B9
:1013B0000CB50020019000903348006840F4803064
:1013C0003149086000BF3048006800F400300090E8
:1013D0000198401C0190009818B90198B0F5A06FD1
:1013E000F1D12948006800F4003010B101200090CC
:1013F00001E0002000900098012843D123480068B4
:1014000040F01000214908600846006820F0030001
:1014100008600846006840F0020008601A4840680A
:10142000194948600846406848600846406840F4EA
:10143000806048600846406820F47C104860084698
:10144000406840F4E81048600846006840F080704A
:10145000086000BF0C48006800F000700028F9D058
:101460000948406820F00300074948600846406882
:1014700040F00200486000BF0348406800F00C00E4
:101480000828F9D10CBD00000010024000200240E5
:1014900010B502210548FFF74BFB04210448FFF774
:1014A00047FB0020FFF7A4FE10BD00000010014024
:1014B0000008014002480068401E0149086070476A
:1014C0006800002010B51348006840F00100114981
:1014D000086008464068104908400E4948600846C0
:1014E00000680E4908400B4908600846006820F46F
:1014F000802008600846406820F4FE0048604FF4F1
:101500001F008860FFF74FFF4FF00060044908603C
:1015100010BD0000001002400000FFF8FFFFF6FEC3
:1015200008ED00E0F0B50C46154600220021068CBF
:101530004FF6FE773E400684028B018C4FF60C7608
:1015400032407E1C06EA03162E433243104EB04250
:101550000ED0104EB0420BD0B0F1804F08D00E4EDE
:10156000B04205D00D4EB04202D00D4EB04206D171
:101570004FF6FD76314044F00106314305E04FF669
:10158000F576314044F00106314302830184F0BD19
:10159000002C0140003401400004004000080040DD
:1015A000000C0040F0B50C46154600220021002634
:1015B000078C4FF6EF7C07EA0C070784028B018C3F
:1015C0004FF6FF7707EA041640F6FF473A404FF61A
:1015D000FF7707EA03373A434FF6FF7707EA052715
:1015E0003A43114FB8420ED0104FB8420BD0B0F171
:1015F000804F08D00E4FB84205D00E4FB84202D0EF
:101600000D4FB84206D14FF6DF77394046F010074C
:10161000394305E04FF65F77394044F0100739430E
:1016200002830184F0BD0000002C01400034014021
:101630000004004000080040000C0040F0B50C46DB
:101640001546002200210026078C4FF6FF6C07EAA2
:101650000C070784828B018C4FF6FF7707EA04267C
:101660004FF60C773A404FF6FF7707EA03172F4300
:101670003A43114FB8420ED0104FB8420BD0B0F1E0
:10168000804F08D00E4FB84205D00E4FB84202D05E
:101690000D4FB84206D14FF6FF57394046F48077D8
:1016A000394305E04FF2FF57394044F4807739431E
:1016B00082830184F0BD0000002C01400034014011
:1016C0000004004000080040000C0040F0B50C464B
:1016D0001546002200210026078C4EF6FF7C07EA03
:1016E0000C070784828B018C4FF6FF7707EA0436DC
:1016F00040F6FF473A404FF6FF7707EA05273A439F
:101700004FF6FF7707EA03373A43114FB8420ED03E
:10171000104FB8420BD0B0F1804F08D00E4FB842F6
:1017200005D00E4FB84202D00D4FB84206D14DF64B
:10173000FF77394046F48057394305E047F6FF57B5
:10174000394044F48057394382830184F0BD00005E
:10175000002C01400034014000040040000800401B
:10176000000C004010B50121880700F067F940B176
:101770000121880700F03AF802480068401C01493E
:10178000086010BD3800002010B50121064800F0A7
:1017900055F940B10121044800F028F803480068D9
:1017A000401C0249086010BD0004004028000020D1
:1017B00010B50121054800F041F930B1012103487D
:1017C00000F014F801200249087010BD0008004024
:1017D0001A00002021B1028842F08002028004E059
:1017E00002884FF67F731A4002807047CA43028214
:1017F000704721B1028842F00102028004E00288B1
:101800004FF6FE731A4002807047000010B5044680
:101810006848844208D10121C014FFF73BFD002134
:10182000E014FFF737FDC4E0B4F1804F08D1012187
:101830000846FFF70FFD00210120FFF70BFDB8E080
:101840005D48844208D101210220FFF703FD0021F9
:101850000220FFF7FFFCACE05848844208D1012188
:101860000420FFF7F7FC00210420FFF7F3FCA0E0C1
:101870005348844208D101210820FFF7EBFC0021E6
:101880000820FFF7E7FC94E04E48844208D101218C
:101890001020FFF7DFFC00211020FFF7DBFC88E0C1
:1018A0004948844208D101212020FFF7D3FC0021C0
:1018B0002020FFF7CFFC7CE04448844208D101217E
:1018C0004014FFF7E7FC00216014FFF7E3FC70E031
:1018D0003F48844209D10121C804FFF7DBFC002105
:1018E0004FF40020FFF7D6FC63E03A48844209D168
:1018F00001210805FFF7CEFC00214FF48010FFF70F
:10190000C9FC56E03448844209D101214805FFF75B
:10191000C1FC00214FF40010FFF7BCFC49E02F4848
:10192000844208D101214020FFF794FC002140208F
:10193000FFF790FC3DE02A48844208D10121802035
:10194000FFF788FC00218020FFF784FC31E0254868
:10195000844208D101218015FFF77CFC0021A015ED
:10196000FFF778FC25E02048844209D101210804D2
:10197000FFF790FC00214FF48030FFF78BFC18E05C
:101980001A48844209D101214804FFF783FC002151
:101990004FF40030FFF77EFC0BE01548844208D17D
:1019A00001218804FFF776FC00214FF48020FFF727
:1019B00071FC10BD002C01400004004000080040F4
:1019C000000C0040001000400014004000340140B2
:1019D000004C0140005001400054014000180040FC
:1019E000001C004000200040004001400044014035
:1019F00000480140F0B50C4615461E460021002265
:101A000000230189028B038C4FF6F877394021437C
:101A10004FF6FC473A4040F201173A434FF6DD7764
:101A20003B404FF6FF7707EA06172F433B43018100
:101A300002830384F0BD0146888C704730B50246AE
:101A4000002000230024158A05EA0103958905EA90
:101A5000010413B10CB1012000E0002030BD0000F2
:101A600070B505460C46244885420ED02348854271
:101A70000BD0B5F1804F08D02148854205D02148D0
:101A8000854202D02048854200D100E000BF208876
:101A900050B92389A28861882846FFF743FDE18871
:101AA000284600F098F825E0208804280AD12389E8
:101AB000A28861882846FFF775FDE188284600F076
:101AC00093F817E0208808280AD12389A288618822
:101AD0002846FFF7B3FDE188284600F092F809E0B8
:101AE0002389A28861882846FFF7F0FDE18828460F
:101AF00000F090F870BD0000002C0140003401405F
:101B00000004004000080040000C00401AB1838926
:101B10000B43838102E083898B43838170470000FC
:101B200070B5002400220023058C4FF6FF66354077
:101B30000584028C8388848B4FF68F752C404FF67A
:101B4000FC752C400D882C434FF6FF552A400D891B
:101B50004FF6FF7606EA05252A434D8806EA052555
:101B60002A43154DA84202D0144DA8421DD14FF270
:101B7000FF752A404D894FF6FF7606EA05252A4370
:101B80004FF6FF352A408D8806EA05252A434EF692
:101B9000FF752B404DF6FF752B408D8906EA051524
:101BA0002B43CD8906EA05152B4383808483CD889A
:101BB0008587028470BD0000002C01400034014084
:101BC0000A460021818B4FF6F77319401143818338
:101BD000704781847047028B4FF6F3731A4002837B
:101BE000028B0A4302837047028B4FF2FF331A4085
:101BF0000283028B4FF6FF7303EA01231A43028329
:101C00007047828B4FF6F3731A408283828B0A43AC
:101C100082837047828B4FF2FF331A408283828B1C
:101C20004FF6FF7303EA01231A43828370470000D3
:101C3000002202881D4B98420ED01D4B98420BD0BB
:101C4000B0F1804F08D01B4B984205D01A4B9842F8
:101C500002D01A4B984204D14FF68F731A404B882A
:101C60001A43174B984207D0164B984204D04FF6B0
:101C7000FF431A40CB881A4302808B8883850B88E8
:101C800003850A4B98420BD0094B984208D00E4B63
:101C9000984205D00D4B984202D00D4B984201D18D
:101CA0000B7A03860123838270470000002C0140D9
:101CB000003401400004004000080040000C0040D7
:101CC000001000400014004000400140004401406A
:101CD0000048014001F40072B2F5007F00D100BF5E
:101CE000CA430280704721B1828942F40052828146
:101CF00004E082894DF6FF731A408281704700002C
:101D000010B5FEF727FF024800F0E4F810BD000010
:101D10000038014010B504462048844209D1012111
:101D20008803FFF7B7FA00214FF48040FFF7B2FABB
:101D300032E01B48844209D101214804FFF78AFAA6
:101D400000214FF40030FFF785FA25E01548844262
:101D500009D101218804FFF77DFA00214FF480208A
:101D6000FFF778FA18E01048844209D10121C8042D
:101D7000FFF770FA00214FF40020FFF76BFA0BE039
:101D80000A48844208D101210805FFF763FA0021BF
:101D90004FF48010FFF75EFA10BD000000380140DC
:101DA0000044004000480040004C0040005000400B
:101DB000F0B50346002400260025002040F66A17EF
:101DC000B94200D100BF1846C1F3421401F01F060A
:101DD000012707FA06F5012C01D10C3004E0022C92
:101DE00001D1103000E014301AB107682F430760AA
:101DF00002E00768AF430760F0BD00002DE9F0473F
:101E000086B005460E460024A24600BFA146002724
:101E1000B08900B100BF2F462C8A4CF6FF700440F9
:101E2000F08804432C82AC894EF6F3100440B0884D
:101E300031890843718908430443AC81AC8A4FF669
:101E4000FF400440B0890443AC8201A8FFF732FA96
:101E50001F48874202D1DDF810A001E0DDF80CA098
:101E6000A88900F4004040B10AEBCA0000EB0A1058
:101E700031684900B0FBF1F807E00AEBCA0000EB5B
:101E80000A1031688900B0FBF1F86420B8FBF0F06B
:101E900004012009642101FB1089A88900F4004095
:101EA00040B1322000EBC900B0FBF1F000F00700B8
:101EB000044308E0322000EB09106421B0FBF1F08C
:101EC00000F00F0004432C8106B0BDE8F08700004D
:101ED000003801401FB504462448844204D1012142
:101EE0008803FFF7A7F90EE02148844204D10121BD
:101EF0004804FFF79FF906E01E48844203D1012100
:101F00008804FFF797F92046FFF704FF4FF4E1300C
:101F100000900020ADF80C000C20ADF80A00002065
:101F2000ADF80800ADF80600ADF80400694620469B
:101F3000FFF764FF40F225512046FFF7CBFE40F249
:101F400027712046FFF7C6FE012240F225512046A8
:101F5000FFF72EFF012240F227712046FFF728FFEE
:101F600001212046FFF7BFFE1FBD000000380140E1
:101F7000004400400048004000BFFEE70FB4084B9B
:101F800010B504A902AA039800F01CF8044602A99F
:101F9000002000F0C1F8204610BC5DF814FB0000E2
:101FA0001921000802E008C8121F08C1002AFAD14E
:101FB00070477047002001E001C1121F002AFBD1C9
:101FC000704700002DE9FF4F89B09B46044600256D
:101FD00006E025280BD05A460B999047641C6D1CCF
:101FE00020780028F5D10DB02846BDE8F08F0027F5
:101FF000B8460122474900E0074314F8013F203B5F
:1020000002FA03F00842F7D120782E2819D114F8EB
:10201000010F47F004072A280ED06FF02F02207816
:10202000A0F1300109290CD808EB880102EB41012D
:1020300000EB0108641CF2E70A98641C50F8048B5A
:102040000A9020780028CED0642808D0692806D0CD
:1020500075281ED05A460B9990476D1C58E00A9976
:102060004FF00A0901C90A91002802DA40422D21E5
:1020700002E0390504D52B218DF82010012103E061
:10208000F90704D02021F7E78A4608AE0DE00021C9
:10209000FAE70A994FF00A0901C90A91F7E7494698
:1020A000FEF784F8303106F8011D0028F7D1ADEBBA
:1020B000060000F12009780701D44FF00108C84557
:1020C00002DDA8EB090000E000208046002706E0C2
:1020D00008A85A46C05D0B9990476D1C7F1C574558
:1020E000F6DB04E030205A460B9990476D1CB8F19E
:1020F0000001A8F10108F5DC05E016F8010B5A46CD
:102100000B9990476D1CB9F10001A9F10109F4DCAC
:10211000641C65E7092801000A68531C0B601070F5
:10212000704701B581B00020009042F63C01019853
:102130004843009002E00098401E0090009800285C
:10214000F9D10CBD01B581B000200090019800EBE1
:10215000400101EBC000009002E00098401E00909A
:1021600000980028F9D10CBDF8B50446002504F00C
:10217000F006F02000EA041746F004008DF8000095
:102180008DF8016047F004008DF8020047F0080068
:102190008DF8030000BF05E01DF8050000F028F8E9
:1021A000681CC5B2042DF7DBF8BDF8B50446002560
:1021B00004F0F006F02000EA041746F00D008DF858
:1021C000000046F009008DF8010047F00D008DF881
:1021D000020047F009008DF8030000BF05E01DF87C
:1021E000050000F005F8681CC5B2042DF7DBF8BD4A
:1021F00010B5044601211348FEF7F1FD00BF124956
:102200001048FEF7CBFD0028F9D000227E210D48B2
:10221000FEF7A8FE00BF0D490A48FEF7BFFD0028E3
:10222000F9D021460748FEF7A6FE00BF0749891CE2
:102230000448FEF7B3FD0028F8D001210148FEF75D
:10224000DAFD10BD005400400100030082000700C9
:1022500070B504460D46012C04D104F17F002844DA
:10226000C6B204E005F14000C0B240F0800630463E
:10227000FFF77AFF70BD10B53320FFF775FF0A2016
:10228000FFF74FFF3220FFF76FFF3220FFF749FFC4
:102290002820FFF769FF3220FFF743FF0120FFF7F7
:1022A00063FF3220FFF73DFF0620FFF75DFF32207E
:1022B000FFF737FF0C20FFF757FF3220FFF731FF02
:1022C0000220FFF751FF3220FFF72BFF10BD10B5A2
:1022D000044603E014F8010BFFF767FF207800289D
:1022E000F8D110BD554800684FF47A72B0FBF2F196
:1022F000B1F1807F00D31DE021F07F40401E4FF000
:10230000E022506150170F22002807DA13071D0E34
:102310004B4B00F00F04241F1D5503E013071C0E48
:10232000484B1C5400BF00204FF0E0229061072072
:10233000106100BFFEF7E2FDFFF7E2FCFEF734FCA0
:102340000220FEF755FFFEF7B3F9FDF7B3FF74E087
:102350003D48007807286FD2DFE800F0042B333BBC
:1023600047596800FEF72CFE384908700846007887
:10237000022803D10120344908705DE03348007819
:10238000032803D102203049087055E02F48007817
:10239000042803D103202C4908704DE02B48007815
:1023A000052802D1FFF774F846E005202649087099
:1023B00042E027480088FEF757FA042022490870B7
:1023C0003AE023480088FDF7D7FF01201E49087036
:1023D00032E0FDF7C2FF1E49088008460088FEF77C
:1023E000CDFD00201849087026E01A4800681A49F7
:1023F0000988884207D0174800881749088008468E
:102400000088FDF733FF05200F49087014E01348DA
:102410000078012806D10020104908700C48008877
:10242000FEF7ACFD00200849087005E0FEF702FE4B
:1024300000200549087000BF00BF89E73C0000206C
:1024400018ED00E000E400E0190000201C0000206E
:102450002A000020100000202C0000202100002075
:1024600070B5044600250020072206E0561E31F80C
:10247000166021F81260561EF2B2002AF6DC0C80BB
:10248000002304E031F8136035445E1CF3B2082BDE
:10249000F8DBE80870BD0000B82400080000002048
:1024A00088000000A41F00084025000888000020C4
:1024B00048040000B41F00080000000000000000F5
:1024C000000000000000000000000000000000000C
:1024D00000060000000000000000000000000000F6
:1024E0000000C20100000000000000000000000029
:1024F0000000000000A24A040000000000000000EC
:102500000102030406070809000000000102030499
:10251000010203040607080902040608000000007F
:1025200000000000020000000000000000000000A9
:10253000000000000000000000000000000000009B
:0400000508000131BD
:00000001FF
