:020000040800F2
:10000000D804002045010008DD0C00086508000840
:10001000D90C0008B10200084B1C000800000000C9
:10002000000000000000000000000000AD0F00080C
:100030009903000800000000D50D000861110008B8
:100040005F0100085F0100085F0100085F01000810
:100050005F0100085F0100085F0100085F01000800
:100060005F0100085F0100085F0100085F010008F0
:100070005F0100085F0100085F0100085F010008E0
:100080005F0100085F0100085F0100085F010008D0
:100090005F0100085F0100085F010008E10400083B
:1000A0005F0100085F0100085F0100085F010008B0
:1000B00011140008351400085D1400085F010008E1
:1000C0005F0100085F0100085F0100085F01000890
:1000D0005F0100085F0100085F0100085F01000880
:1000E000A50400085F0100085F0100085F01000827
:1000F0005F0100085F0100085F0100085F01000860
:100100005F0100085F0100085F0100085F0100084F
:100110005F0100085F0100085F0100085F0100083F
:100120005F0100085F0100085F0100085F0100082F
:10013000DFF80CD000F088F80048004745200008A0
:10014000D80400200648804706480047FEE7FEE73F
:10015000FEE7FEE7FEE7FEE7FEE7FEE7FEE7FEE777
:100160007111000831010008C10F80EAE0700844F5
:10017000CA079623002100F038B800F0004220F0B2
:100180000040C10DC0F3160040F400007F2901DAE1
:1001900000207047962903DCC1F19601C84001E0B8
:1001A00096398840002AF4D04042704730B50B465B
:1001B000014600202022012409E021FA02F59D4297
:1001C00005D303FA02F5491B04FA02F52844151E6B
:1001D000A2F10102F1DC30BD0029A8BF7047401C2C
:1001E000490008BF20F00100704710B4B0FA80FC4D
:1001F00000FA0CF050EA010404BF10BC704749B18A
:10020000CCF1200421FA04F411FA0CF118BF0121F9
:1002100021430843A3EB0C01CB1D4FEA00614FEAD9
:10022000102042BF002010BC704700EBC3501044A8
:100230000029A4BF10BC7047401C490008BF20F033
:10024000010010BC70470000064C074D06E0E06856
:1002500040F0010394E8070098471034AC42F6D30D
:10026000FFF76AFF202400084024000810B5044668
:10027000224609A1094801F0EBFC0C21022001F003
:1002800097FE07A001F0D3FE0C21022001F090FEA2
:10029000024801F0CCFE10BD2564000011000020D2
:1002A00020202020202020202020202000000000CE
:1002B00000BFFEE710B50121052000F0ADFD3020A4
:1002C00031490880032088704820C8702F4800F00A
:1002D000FDF90121092000F09FFD4FF440702A49EB
:1002E0000880032088704820C870294800F0EEF983
:1002F0000821012000F0CAF90921012000F0C6F907
:100300004FF4807000F00AF94FF4007000F006F925
:100310000020204908714FF4407008600C2048719B
:1003200001208871084600F013F90121092000F02E
:1003300073FD4FF440401449088003208870482022
:10034000C870134800F0C2F90E21012000F09EF998
:100350000F21012000F09AF94FF4004000F0DEF880
:100360004FF4804000F0DAF800200A4908714FF499
:10037000404008600820487101208871084600F05C
:10038000E7F800F0ADFC10BD0400002000080140BB
:10039000000C01400800002070470000034908607D
:1003A00000BF024909680029FBD170476C0000209A
:1003B00010B5012001F088FD0A20FFF7EFFF10BD06
:1003C00010B500F0B3FAA02000F0FAFA044600F0ED
:1003D000D1FA204610BD70B5044600BFFFF7F0FF0C
:1003E0000028FBD100F0A2FAE10901F0FE0141F082
:1003F000A00000F0E5FAE0B200F0E2FA00F096FAB0
:10040000C4F3C71141F0A10000F0DAFA002000F0B7
:100410004DFA054600F0AEFA284670BD70B50446A8
:100420000D4600BFFFF7CCFF0028FBD100F07EFA9D
:10043000E10901F0FE0141F0A00000F0C1FAE0B2D4
:1004400000F0BEFA284600F0BBFA00F093FA70BD47
:1004500070B50020FFF7BFFF04460120FFF7BBFF88
:10046000054605EB042086B2304670BD10B5044643
:1004700009480088000A09490870074800780849B7
:100480000870064801780020FFF7C8FF044801788B
:100490000120FFF7C3FF10BD2200002068000020EC
:1004A0006900002010B54FF4004000F03DF830B175
:1004B0004FF4004000F032F80120074908704FF473
:1004C000804000F031F830B14FF4804000F026F861
:1004D00001200249087010BD3300002035000020C3
:1004E00010B54FF4807000F01FF830B14FF48070F9
:1004F00000F014F80120074908704FF4007000F074
:1005000013F830B14FF4007000F008F801200249F0
:10051000087010BD3A000020360000200149086034
:100520007047000014040140014600200022074BE0
:100530001B6803EA0102054B14331B680B4013B11F
:100540000AB1012000E000207047000000040140D3
:10055000002123498279002A3AD00A4612680368AA
:100560009A430B461A600A1D126803689A430B1DD2
:100570001A60027911440A6803681A430A60184A2B
:100580000832126803689A43154B08331A601A1D23
:10059000126803689A43124B0C331A604279102A8E
:1005A0000ED11A1F126803681A430D4B08331A60E4
:1005B0001A1D126803681A43094B0C331A600DE0C8
:1005C0000749427911440A6803681A430A6005E042
:1005D000027911440A6803689A430A607047000070
:1005E0000004014010B50121042000F015FCC020DA
:1005F000214908804820C870032088701F4800F0F7
:1006000065F80121022000F0E7FB00201C49C880AA
:1006100048804FF6FF708880012008800020087213
:10062000184801F05BF90420174908800020C880B1
:10063000022048800F20088101208880114801F0A5
:1006400065F802231A4601210E4801F029F800211D
:100650000C4801F014F901210A4800F020FF0121A3
:10066000084800F019FF01221146064801F0A4F8DD
:1006700000F05CFC10BD00000400002000080140F8
:100680009000002000040040AA00002030B50022A5
:100690008B071C0F0F2303FA04F20B4B8C1053F83B
:1006A00024309343084C8D1044F8253023468C1099
:1006B00053F824308C07240F00FA04F42343024C2F
:1006C0008D1044F8253030BD080001402DE9F0417F
:1006D000024600250026002000230024002791F870
:1006E00003C00CF00F0591F803C00CF0100CBCF126
:1006F000000F03D091F802C04CEA050591F800C044
:10070000BCF1000F31D0146800202BE04FF0010C39
:100710000CFA00F3B1F800C00CEA03069E4220D1A7
:1007200083004FF00F0C0CFA03F7BC4305FA03FCEF
:100730004CEA040491F803C0BCF1280F06D14FF035
:10074000010C0CFA00FCC2F814C00AE091F803C0D6
:10075000BCF1480F05D14FF0010C0CFA00FCC2F8B7
:1007600010C0401C0828D1D31460B1F800C0BCF1FF
:10077000FF0F34DD546800202EE000F1080C4FF02C
:10078000010808FA0CF3B1F800C00CEA03069E4217
:1007900021D183004FF00F0C0CFA03F7BC4305FA8C
:1007A00003FC4CEA040491F803C0BCF1280F05D106
:1007B00000F1080C08FA0CF8C2F8148091F803C094
:1007C000BCF1480F07D100F1080C4FF0010808FAFE
:1007D0000CF8C2F81080401C0828CED35460BDE845
:1007E000F0810246002093680B400BB1012000E02D
:1007F00000207047F8B506460C461546ADF8004097
:100800008DF8035003208DF8020069463046FFF74B
:100810005DFFF8BD08B50121084600F0FDFA012191
:10082000042000F0F9FA4FF40070ADF80000032046
:100830008DF8020018208DF8030069460848FFF77C
:1008400045FF4FF48060ADF8000003208DF80200F2
:1008500004208DF8030069460148FFF737FF08BD03
:100860000008014000BFFEE710B514224FF480617C
:100870000B48FFF7BFFF14224FF400610848FFF751
:10088000B9FF012007490860052001F0C5FA0120E1
:100890000549C1F8A801052001F0BEFA10BD00000D
:1008A000000C0140AC8121420080214270B5054618
:1008B0000024042211021A48FFF79CFF002615E0CD
:1008C0000120184908600A2001F0A6FA6006040E0B
:1008D0001548D0F8280108B144F001040A2001F0BD
:1008E0009BFA00200F490860701CC6B2082EE7DB97
:1008F00014224FF480610A48FFF77CFF0120094968
:100900000860052001F088FA0748C0F8A8510520C2
:1009100001F082FA002003490860204670BD000003
:10092000000C0140AC8121420080214210B514220C
:100930004FF480610C48FFF75DFF01200B49086010
:100940000B49C1F8AC01052001F066FA0020074907
:100950000860052001F060FA00200549C1F8AC01EB
:10096000052001F059FA10BD000C0140A881214278
:100970000080214210B514224FF480610D48FFF72A
:1009800039FF00200C49086001200C49C1F8AC0176
:10099000052001F041FA012007490860052001F017
:1009A0003BFA00200549C1F8AC01052001F034FAFA
:1009B00010BD0000000C0140A881214200802142AE
:1009C00070B5044614224FF480612148FFF712FFEE
:1009D00000251EE004F0800018B101201D490860C8
:1009E00002E000201B4908606006040E052001F0AB
:1009F00013FA01201749091D0860052001F00CFABF
:100A000000201549C1F8AC01052001F005FA681C69
:100A1000C5B2082DDEDB042211020D48FFF7EAFE05
:100A200001200C49091D0860052001F0F5F90A486C
:100A3000D0F82801C5B2052001F0EEF900200549E3
:100A4000091D0860052001F0E7F9284670BD000087
:100A5000000C0140A88121420080214270B502466D
:100A60000024002500230020958A138B1B0445EAEF
:100A7000030626F07F4404EA01068E4201D10120DC
:100A800000E0002070BD21B1028842F00102028026
:100A900004E002884FF6FE731A400280704721B1CD
:100AA000028842F48072028004E002884FF6FF63FD
:100AB0001A400280704721B1028842F4007202801D
:100AC00004E002884FF6FF531A400280704700008E
:100AD0002DE9F04385B004460D460026B1460427B3
:100AE000DFF8CC80A6884FF6C0700640684600F05C
:100AF000B3F9DDF808802F48B8FBF0F01FFA80F951
:100B000046EA0906A68020884FF6FE71084020803C
:100B100000262949286888420CD828684000B8FB7C
:100B2000F0F087B2042F00DA04273E4309F10100F8
:100B3000208427E0E8884BF6FF71884206D12868B8
:100B400000EB4000B8FBF0F087B209E0286800EB4A
:100B5000C00101EB0010B8FBF0F087B247F480470A
:100B6000C7F30B0008B947F0010747F400400643FC
:100B70004FF4967009FB00F04FF47A7190FBF1F09E
:100B8000401C2084A683208840F001002080268815
:100B90004FF6F5300640A888698908430643268049
:100BA000A88929890843208105B0BDE8F0830000A9
:100BB00000127A0040420F00A086010010B501210A
:100BC000480500F009F90121082000F025F9C020AE
:100BD0000F490880032088701C20C8700D48FFF75B
:100BE00075FD00200C4988804BF6FF70C8800020FE
:100BF000088148814FF4804088810848086008488F
:100C0000FFF766FF01210648FFF73DFF10BD00001A
:100C100004000020000C0140B4000020A086010068
:100C20000054004012B141F0010102E04FF6FE73A2
:100C300019400182704701827047000010B50446D8
:100C4000224609A1094801F003F80C21012001F016
:100C5000AFF907A001F0EBF90C21012001F0A8F990
:100C6000024801F0E4F910BD2564000011000020E5
:100C700020202020202020202020202000000000F4
:100C800010B501F0A8F90021012001F091F90AA0A6
:100C900001F0CDF90021022001F08AF909A001F04C
:100CA000C6F90B49098888B2FFF7E0FA09480088BD
:100CB000FFF7C4FF10BD0000534554205350454575
:100CC00044203A005245414C2053504545443A0097
:100CD000240000202200002000BFFEE77047000033
:100CE00010B54FF4A06000F06BF81E201749087093
:100CF0000020487088700120C870084600F028F86D
:100D00000A201249087001204870002088700120D4
:100D1000C870084600F01CF817200C490870012024
:100D20004870002088700120C870084600F010F854
:100D30002820064908700120487000208870012092
:100D4000C870084600F004F810BD00000000002044
:100D500070B5002100230F22C47804B3154C246819
:100D600004F4E064C4F5E064210AC1F10403CA405C
:100D7000447804FA03F184781440214309010E4CAD
:100D80000678A155047804F01F050124AC400578CD
:100D90006D11AD0005F1E025C5F8004109E00478CA
:100DA00004F01F050124AC40044D0678761145F887
:100DB000264070BD0CED00E000E400E080E100E0C2
:100DC00002490143024A1160704700000000FA0521
:100DD0000CED00E07047000029B1064AD2690243D9
:100DE000044BDA6104E0034AD2698243014BDA61C1
:100DF000704700000010024029B1064A1269024300
:100E0000044B1A6104E0034A12698243014B1A61E0
:100E1000704700000010024029B1064A926902435F
:100E2000044B9A6104E0034A92698243014B9A6140
:100E3000704700000010024029B1064AD268024300
:100E4000044BDA6004E0034AD2688243014BDA6063
:100E5000704700000010024030B50021002200243D
:100E600000232D4D6D6805F00C0121B1042905D03A
:100E7000082923D105E0294D056022E0274D0560B2
:100E80001FE0254D6D6805F47012234D6D6805F463
:100E90008034022505EB92421CB9214D5543056073
:100EA0000BE01D4D6D6805F400351DB11C4D55431B
:100EB000056002E0194D5543056002E0174D0560DD
:100EC00000BF00BF144D6D6805F0F0010909154D14
:100ED0006B5C0568DD4045600F4D6D6805F4E061B1
:100EE000090A104D6B5C4568DD4085600A4D6D68F0
:100EF00005F46051C90A0B4D6B5C4568DD40C56067
:100F0000054D6D6805F44041890B074D6B5CC56864
:100F1000B5FBF3F5056130BD0010024000127A0008
:100F200000093D00540000206400002010B5164860
:100F300000F0C2FA01210420FFF74EFF0020134900
:100F40004880C88042F20F70888040F2CF2008802D
:100F5000002008720C4800F0C1FC01210A4800F092
:100F60008FFA0021084800F08AFC01221146064849
:100F700000F022FC0121044800F08EFA0121024811
:100F800000F08DFA10BD0000000800409000002025
:100F900010B504460120044908610220086120467A
:100FA00000F040FE10BD000000100140704700003E
:100FB00010B5044601210420FFF72EFF042021492B
:100FC00008801820C870032088701F48FFF77EFB38
:100FD00001211020FFF720FF03201A49088010206C
:100FE000C870032088701948FFF770FB012108467C
:100FF000FFF7F2FE0020164908804EF65F20888039
:101000000020C88048804FF0804000F067FC6020DE
:101010001049088001204880002048814EF6602059
:10102000001B401EC8804FF0804000F0CFFB08211D
:10103000C80600F01BFC00214FF0804000F02FFAA2
:1010400010BD000004000020000801400010014015
:10105000900000209A00002010B500F001F810BDAB
:101060000CB50020019000903348006840F48030B7
:101070003149086000BF3048006800F4003000903B
:101080000198401C0190009818B90198B0F5A06F24
:10109000F1D12948006800F4003010B1012000901F
:1010A00001E0002000900098012843D12348006807
:1010B00040F01000214908600846006820F0030055
:1010C00008600846006840F0020008601A4840685E
:1010D000194948600846406848600846406840F43E
:1010E000806048600846406820F47C1048600846EC
:1010F000406840F4E81048600846006840F080709E
:10110000086000BF0C48006800F000700028F9D0AB
:101110000948406820F003000749486008464068D5
:1011200040F00200486000BF0348406800F00C0037
:101130000828F9D10CBD0000001002400020024038
:1011400010B50220044948610420044908600020C9
:1011500000F068FD10BD00000010014014080140BF
:1011600002480068401E0149086070476C0000207A
:1011700010B51348006840F00100114908600846A6
:101180004068104908400E494860084600680E490A
:1011900008400B4908600846006820F48020086079
:1011A0000846406820F4FE0048604FF41F00886045
:1011B000FFF752FF4FF000600449086010BD0000C7
:1011C000001002400000FFF8FFFFF6FE08ED00E00F
:1011D000F0B50C46154600220021068C4FF6FE772E
:1011E0003E400684028B018C4FF60C7632407E1C0A
:1011F00006EA03162E433243104EB0420ED0104E74
:10120000B0420BD0B0F1804F08D00E4EB04205D0A6
:101210000D4EB04202D00D4EB04206D14FF6FD76D3
:10122000314044F00106314305E04FF6F576314098
:1012300044F00106314302830184F0BD002C0140DB
:10124000003401400004004000080040000C004051
:10125000F0B50C461546002200210026078C4FF6FB
:10126000EF7C07EA0C070784028B018C4FF6FF77AF
:1012700007EA041640F6FF473A404FF6FF7707EAC1
:1012800003373A434FF6FF7707EA05273A43114FF2
:10129000B8420ED0104FB8420BD0B0F1804F08D0FA
:1012A0000E4FB84205D00E4FB84202D00D4FB84293
:1012B00006D14FF6DF77394046F01007394305E095
:1012C0004FF65F77394044F01007394302830184B9
:1012D000F0BD0000002C014000340140000400403B
:1012E00000080040000C0040F0B50C4615460022F6
:1012F00000210026078C4FF6FF6C07EA0C070784D5
:10130000828B018C4FF6FF7707EA04264FF60C77A5
:101310003A404FF6FF7707EA03172F433A43114F3E
:10132000B8420ED0104FB8420BD0B0F1804F08D069
:101330000E4FB84205D00E4FB84202D00D4FB84202
:1013400006D14FF6FF57394046F48077394305E020
:101350004FF2FF57394044F4807739438283018448
:10136000F0BD0000002C01400034014000040040AA
:1013700000080040000C0040F0B50C461546002265
:1013800000210026078C4EF6FF7C07EA0C07078435
:10139000828B018C4FF6FF7707EA043640F6FF4751
:1013A0003A404FF6FF7707EA05273A434FF6FF77B3
:1013B00007EA03373A43114FB8420ED0104FB842F4
:1013C0000BD0B0F1804F08D00E4FB84205D00E4F71
:1013D000B84202D00D4FB84206D14DF6FF773940E2
:1013E00046F48057394305E047F6FF57394044F447
:1013F0008057394382830184F0BD0000002C0140F6
:10140000003401400004004000080040000C00408F
:1014100010B50121880700F067F940B10121880764
:1014200000F03AF802480068401C0149086010BD0D
:101430003C00002010B50121064800F055F940B1EC
:101440000121044800F028F803480068401C0249C4
:10145000086010BD000400402000002010B50121EC
:10146000054800F041F930B10121034800F014F8BB
:1014700001200249087010BD000800403200002021
:1014800021B1028842F08002028004E002884FF617
:101490007F731A4002807047CA430282704721B1AD
:1014A000028842F00102028004E002884FF6FE73D7
:1014B0001A4002807047000010B504466848844214
:1014C00008D10121C014FFF7B7FC0021E014FFF799
:1014D000B3FCC4E0B4F1804F08D101210846FFF706
:1014E0008BFC00210120FFF787FCB8E05D488442B7
:1014F00008D101210220FFF77FFC00210220FFF725
:101500007BFCACE05848844208D101210420FFF75D
:1015100073FC00210420FFF76FFCA0E053488442D5
:1015200008D101210820FFF767FC00210820FFF700
:1015300063FC94E04E48844208D101211020FFF75B
:101540005BFC00211020FFF757FC88E049488442EB
:1015500008D101212020FFF74FFC00212020FFF7B8
:101560004BFC7CE04448844208D101214014FFF741
:1015700063FC00216014FFF75FFC70E03F48844289
:1015800009D10121C804FFF757FC00214FF40020C6
:10159000FFF752FC63E03A48844209D10121080573
:1015A000FFF74AFC00214FF48010FFF745FC56E09E
:1015B0003448844209D101214805FFF73DFC002150
:1015C0004FF40010FFF738FC49E02F48844208D15F
:1015D00001214020FFF710FC00214020FFF70CFC08
:1015E0003DE02A48844208D101218020FFF704FC15
:1015F00000218020FFF700FC31E02548844208D11B
:1016000001218015FFF7F8FB0021A015FFF7F4FB7F
:1016100025E02048844209D101210804FFF70CFC91
:1016200000214FF48030FFF707FC18E01A4884428D
:1016300009D101214804FFF7FFFB00214FF40030DE
:10164000FFF7FAFB0BE01548844208D1012188041A
:10165000FFF7F2FB00214FF48020FFF7EDFB10BDF8
:10166000002C01400004004000080040000C004035
:10167000001000400014004000340140004C0140C4
:10168000005001400054014000180040001C004080
:10169000002000400040014000440140004801405B
:1016A000F0B50C4615461E46002100220023018994
:1016B000028B038C4FF6F877394021434FF6FC47F5
:1016C0003A4040F201173A434FF6DD773B404FF680
:1016D000FF7707EA06172F433B4301810283038408
:1016E000F0BD0146888C704730B5024600200023CB
:1016F0000024158A05EA0103958905EA010413B15E
:101700000CB1012000E0002030BD000070B505469E
:101710000C46244885420ED0234885420BD0B5F1B3
:10172000804F08D02148854205D02148854202D00B
:101730002048854200D100E000BF208850B92389AD
:10174000A28861882846FFF743FDE188284600F01B
:1017500098F825E0208804280AD12389A288618886
:101760002846FFF775FDE188284600F093F817E05A
:10177000208808280AD12389A28861882846FFF793
:10178000B3FDE188284600F092F809E02389A28899
:1017900061882846FFF7F0FDE188284600F090F8C0
:1017A00070BD0000002C01400034014000040040E6
:1017B00000080040000C00401AB183890B4383816C
:1017C00002E083898B4383817047000070B5002459
:1017D00000220023058C4FF6FF6635400584028CFD
:1017E0008388848B4FF68F752C404FF6FC752C4008
:1017F0000D882C434FF6FF552A400D894FF6FF7692
:1018000006EA05252A434D8806EA05252A43154D93
:10181000A84202D0144DA8421DD14FF2FF752A40B4
:101820004D894FF6FF7606EA05252A434FF6FF3528
:101830002A408D8806EA05252A434EF6FF752B407F
:101840004DF6FF752B408D8906EA05152B43CD8992
:1018500006EA05152B4383808483CD88858702841F
:1018600070BD0000002C0140003401400A460021F8
:10187000818B4FF6F7731940114381837047818440
:101880007047028B4FF6F3731A400283028B0A43B0
:1018900002837047028B4FF2FF331A400283028BA0
:1018A0004FF6FF7303EA01231A4302837047828BCA
:1018B0004FF6F3731A408283828B0A438283704708
:1018C000828B4FF2FF331A408283828B4FF6FF7375
:1018D00003EA01231A438283704700000022028832
:1018E0001D4B98420ED01D4B98420BD0B0F1804F4B
:1018F00008D01B4B984205D01A4B984202D01A4B85
:10190000984204D14FF68F731A404B881A43174BF5
:10191000984207D0164B984204D04FF6FF431A4026
:10192000CB881A4302808B8883850B8803850A4BFA
:1019300098420BD0094B984208D00E4B984205D0E4
:101940000D4B984202D00D4B984201D10B7A038681
:101950000123838270470000002C014000340140C5
:101960000004004000080040000C0040001000404F
:101970000014004000400140004401400048014084
:1019800001F40072B2F5007F00D100BFCA430280AB
:10199000704721B1828942F40052828104E0828939
:1019A0004DF6FF731A4082817047000010B5FEF7B4
:1019B00031FF024800F0E4F810BD0000003801409B
:1019C00010B504462048844209D101218803FFF75D
:1019D00033FA00214FF48040FFF72EFA32E01B4823
:1019E000844209D101214804FFF706FA00214FF48F
:1019F0000030FFF701FA25E01548844209D10121A2
:101A00008804FFF7F9F900214FF48020FFF7F4F97B
:101A100018E01048844209D10121C804FFF7ECF90D
:101A200000214FF40020FFF7E7F90BE00A48844259
:101A300008D101210805FFF7DFF900214FF48010DC
:101A4000FFF7DAF910BD0000003801400044004003
:101A500000480040004C004000500040F0B50346F4
:101A6000002400260025002040F66A17B94200D164
:101A700000BF1846C1F3421401F01F06012707FA00
:101A800006F5012C01D10C3004E0022C01D11030FC
:101A900000E014301AB107682F43076002E00768BE
:101AA000AF430760F0BD00002DE9F04786B0054662
:101AB0000E460024A24600BFA1460027B08900B10F
:101AC00000BF2F462C8A4CF6FF700440F088044378
:101AD0002C82AC894EF6F3100440B088318908435B
:101AE000718908430443AC81AC8A4FF6FF4004403F
:101AF000B0890443AC8201A8FFF7AEF91F488742C2
:101B000002D1DDF810A001E0DDF80CA0A88900F4F6
:101B1000004040B10AEBCA0000EB0A1031684900EE
:101B2000B0FBF1F807E00AEBCA0000EB0A103168DD
:101B30008900B0FBF1F86420B8FBF0F00401200943
:101B4000642101FB1089A88900F4004040B13220D3
:101B500000EBC900B0FBF1F000F00700044308E01F
:101B6000322000EB09106421B0FBF1F000F00F000F
:101B700004432C8106B0BDE8F08700000038014026
:101B80001FB504462448844204D101218803FFF78D
:101B900023F90EE02148844204D101214804FFF7D3
:101BA0001BF906E01E48844203D101218804FFF797
:101BB00013F92046FFF704FF4FF4E13000900020B6
:101BC000ADF80C000C20ADF80A000020ADF80800BC
:101BD000ADF80600ADF8040069462046FFF764FF43
:101BE00040F225512046FFF7CBFE40F227712046F8
:101BF000FFF7C6FE012240F225512046FFF72EFFD7
:101C0000012240F227712046FFF728FF01212046DC
:101C1000FFF7BFFE1FBD0000003801400044004038
:101C20000048004010B5044600214FF08040FFF707
:101C300036FC4EF66020001B401E4FF08041888726
:101C400001218807FFF72BFC10BD00BFFEE7000055
:101C50000FB4084B10B504A902AA039800F01CF8B1
:101C6000044602A9002000F0C1F8204610BC5DF82F
:101C700014FB0000ED1D000802E008C8121F08C197
:101C8000002AFAD170477047002001E001C1121FFD
:101C9000002AFBD1704700002DE9FF4F89B09B4619
:101CA0000446002506E025280BD05A460B9990479C
:101CB000641C6D1C20780028F5D10DB02846BDE8C5
:101CC000F08F0027B8460122474900E0074314F887
:101CD000013F203B02FA03F00842F7D120782E287A
:101CE00019D114F8010F47F004072A280ED06FF01D
:101CF0002F022078A0F1300109290CD808EB8801C7
:101D000002EB410100EB0108641CF2E70A98641C35
:101D100050F8048B0A9020780028CED0642808D090
:101D2000692806D075281ED05A460B9990476D1C1D
:101D300058E00A994FF00A0901C90A91002802DA0D
:101D400040422D2102E0390504D52B218DF82010C9
:101D5000012103E0F90704D02021F7E78A4608AE05
:101D60000DE00021FAE70A994FF00A0901C90A912A
:101D7000F7E74946FEF71AFA303106F8011D002848
:101D8000F7D1ADEB060000F12009780701D44FF040
:101D90000108C84502DDA8EB090000E000208046EC
:101DA000002706E008A85A46C05D0B9990476D1CB5
:101DB0007F1C5745F6DB04E030205A460B999047CC
:101DC0006D1CB8F10001A8F10108F5DC05E016F87A
:101DD000010B5A460B9990476D1CB9F10001A9F10E
:101DE0000109F4DC641C65E7092801000A68531C3A
:101DF0000B601070704701B581B00020009042F672
:101E00003C0101984843009002E00098401E009079
:101E100000980028F9D10CBD01B581B000200090D8
:101E2000019800EB400101EBC000009002E0009837
:101E3000401E009000980028F9D10CBD70B50446F2
:101E40001E480078012838D100201C49087000F095
:101E500099FAA0B2012100F03DFA0546184928463A
:101E600000F01CFA174908600846006800280BDDDE
:101E7000084600684EF66021884205DA1149098853
:101E800088B2FFF785F818E00E4800684EF660212A
:101E9000884207DB481E0B490860098888B2FFF7B3
:101EA00077F80AE007480068002806DC00200549AA
:101EB0000860098888B2FFF76BF870BD3200002017
:101EC0002A00002080000020F8B50446002504F018
:101ED000F006F02000EA041746F004008DF8000038
:101EE0008DF8016047F004008DF8020047F008000B
:101EF0008DF8030000BF05E01DF8050000F028F88C
:101F0000681CC5B2042DF7DBF8BDF8B50446002502
:101F100004F0F006F02000EA041746F00D008DF8FA
:101F2000000046F009008DF8010047F00D008DF823
:101F3000020047F009008DF8030000BF05E01DF81E
:101F4000050000F005F8681CC5B2042DF7DBF8BDEC
:101F500010B5044601211348FEF7A1FD00BF124948
:101F60001048FEF77BFD0028F9D000227E210D48A5
:101F7000FEF758FE00BF0D490A48FEF76FFD002826
:101F8000F9D021460748FEF756FE00BF0749891CD5
:101F90000448FEF763FD0028F8D001210148FEF750
:101FA0008AFD10BD005400400100030082000700BC
:101FB00070B504460D46012C04D104F17F0028447D
:101FC000C6B204E005F14000C0B240F080063046E1
:101FD000FFF77AFF70BD10B53320FFF775FF0A20B9
:101FE000FFF709FF3220FFF76FFF3220FFF703FFF3
:101FF0002820FFF769FF3220FFF7FDFE0120FFF7E1
:1020000063FF3220FFF7F7FE0620FFF75DFF322067
:10201000FFF7F1FE0C20FFF757FF3220FFF7EBFE32
:102020000220FFF751FF3220FFF7E5FE10BD10B58B
:10203000044603E014F8010BFFF767FF207800283F
:10204000F8D110BD864800684FF47A72B0FBF2F107
:10205000B1F1807F00D31DE021F07F40401E4FF0A2
:10206000E022506150170F22002807DA13071D0ED7
:102070007C4B00F00F04241F1D5503E013071C0EBA
:10208000794B1C5400BF00204FF0E02290610720E4
:10209000106100BFFEF792FDFFF788FCFEF7E4FB3E
:1020A0000220FEF785FFFEF79DFAFEF703F9D6E062
:1020B0006E480078052871D2DFE800F003717D8951
:1020C000C0006B480078012804D1002068490870DE
:1020D000684908706748007810B1012855D14CE074
:1020E00010216548FEF77DFB78B900BF10216248DA
:1020F000FEF777FB0028F9D0604800881E305F4962
:10210000088001205E49087036E020215A48FEF719
:1021100068FB78B900BF20215748FEF762FB002812
:10212000F9D0564800881E38544908800120544987
:10213000087021E05348007801280CD10020514953
:102140000870FEF7FDFFFEF733F9FEF799FD00205A
:102150004649087010E04C480078012806D100205C
:102160004949087001204349087005E001204749AA
:10217000087003203D4908700FE040480088FEF7D2
:1021800075F901203949087007E0414800780128B5
:1021900002D102203549087000BF00BF5EE0374819
:1021A000008800B2FFF74AFE00203849087003207B
:1021B0002E49087052E0FEF74BF930490880084676
:1021C0000088FEF73BFD01202849087046E02F48B3
:1021D000007890B101282FD129480078012806D134
:1021E00000202749087025480088FEF727FD0020B9
:1021F000204908701D4908701EE0264800682649DD
:102200000988884208D02348008823490880084666
:102210000088FEF72BF80EE015480078012807D15A
:10222000002013490870134908701049087002E033
:1022300001200E49087000BF00BF0FE04FF4E170AD
:102240000E490880FEF71CFD002009490870052092
:102250000849087000200549087000BF00BF27E743
:102260004000002018ED00E000E400E0160000202F
:102270003A00002017000020000801402200002042
:102280003900002035000020330000201800002015
:1022900036000020240000202800002070B50446ED
:1022A00000250020072206E0561E31F8166021F8AE
:1022B0001260561EF2B2002AF6DC0C80002304E005
:1022C00031F8136035445E1CF3B2082BF8DBE808E4
:1022D00070BD0000024621480088101A204B18806B
:1022E000204800881B8858431F4B18801C480088D2
:1022F0001E4B1B88C01A1E4B1B88584300EBC003A3
:1023000003EB00104FF6FF7303EA8000194B1880AF
:1023100019480088124B1B88584300EB800040008E
:102320004FF47A7390FBF3F0144B1B881844134B53
:1023300018800D4800880F4B1B8818440F4B1B88D2
:1023400018440F4B1B6800FB01300D4B186004480C
:102350000088064B18800A48006870472400002057
:102360007600002088000020700000207800002007
:102370008A000020720000208C00002074000020E1
:102380008400002010B52048FFF7ABF91F49096809
:102390004FF4803202FB01001D49088009881D4A64
:1023A0001288881AFDF7E0FE0446FDF7E6FE00B24B
:1023B000194908800846B0F90000002804DD0846E5
:1023C000B0F9000008800EE01348B0F900000028C2
:1023D00006DA11480088404200B20F49088002E046
:1023E00000200D4908800C48B0F900004FF4167128
:1023F0004843C82190FBF1F0084908600448008870
:102400000449088010BD00000004004020000020A6
:102410001A0000201C0000201E00002024000020C4
:10242000402400080000002090000000781C0008F4
:10243000D02400089000002048040000881C0008F8
:10244000000000000000000000000000000000008C
:102450000000000000000400000000000000000078
:10246000000000000000000000000000000000006C
:10247000000000000000000000000000000000005C
:1024800000A24A0400000000000000000102030452
:10249000060708090000000001020304010203040A
:1024A00006070809020406080000000000000000FA
:1024B000000000000000000000000000000000001C
:1024C00000000000000000000A0000000000000002
:0400000508000131BD
:00000001FF
