:020000040800F2
:100000005005002001010008F5100008530E0008FB
:10001000A9100008A9060008B11F00080000000090
:10002000000000000000000000000000E1130008D4
:10003000AD0600080000000089120008F114000855
:100040001B0100081B0100081B0100081B01000820
:100050001B0100081B0100081B0100081B01000810
:100060001B0100081B010008190700081B010008FC
:100070001B0100081B0100081B0100081B010008F0
:100080001B0100081B0100081B0100081B010008E0
:100090001B0100081B0100081B010008F5070008F0
:1000A0001B0100081B0100081B0100081B010008C0
:1000B000A1170008C5170008ED1700081B0100086C
:1000C0001B0100081B0100081B0100081B010008A0
:1000D0001B0100081B0100081B0100081B01000890
:1000E0001B0100081B0100081B010008DFF80CD0F1
:1000F00000F0C8FA00480047D92200085005002047
:100100000648804706480047FEE7FEE7FEE7FEE7B1
:10011000FEE7FEE7FEE7FEE7FEE7FEE70115000863
:10012000ED0000082DE9FE4F804681EA0300C00F74
:100130000C46009021F0004123F00045B8EB02008E
:10014000A94105D24046214690461C460B46024630
:1001500023F00040104347D0270DC7F30A00C3F334
:100160000A510290401A019040286BDAC3F3130041
:1001700040F4801B0098924620B10023D2EB030A82
:1001800063EB0B0B01985946C0F14002504600F05A
:10019000B4F906460D4650465946019A00F0CCF98E
:1001A00010EB08006141002487EA115284EAE773EA
:1001B0001A4340D0009A62B3019A012A4FEA0752CB
:1001C00015DC001B61EB02014FF0004202EA07520E
:1001D000CDE90042001C41F5801132462B4600F06B
:1001E00003FA03B0BDE8F08F40462146F9E7001B53
:1001F00061EB0201001C41F5801300185B412018DF
:10020000A2F5001747EB030140EAD570B6196D411E
:1002100011E06D084FEA360645EAC0754FEA07520D
:10022000001B61EB0201001C41F5801149084FEAF7
:1002300030000019514132462B4603B0BDE8F04F63
:1002400000F0C3B90098012240000023D0EB020265
:1002500063EBE073009821464FEAE074B8EB0000CE
:1002600061EB0401E9E783F000435BE781F00041C3
:1002700058E72DE9FE4F81EA030404F0004421F021
:10028000004100944FF0000B23F0004350EA0104BA
:100290005ED052EA03045BD0C3F30A54C1F30A559B
:1002A0002C44A4F2F3340194A0FB0254C1F31301D3
:1002B00041F48011C3F3130343F4801301FB0244A0
:1002C00000FB034E840A970A44EA815447EA8357A5
:1002D000A4FB076802958D0A05FB07854FEA932C5E
:1002E00004FB0C542705029D4FEA065847EA1637CF
:1002F000B5EB08056EEB070C870E920E47EA8117E7
:1003000042EA8312A7FB0201B6EB0B0164EB000487
:100310002B0D43EA0C335E1844EB1C50DA46514671
:10032000E7FB0201C5F313044FEA0B3343EA14530E
:100330004FEA0432019C43EA0603A4F10C04029440
:10034000009CCDE900B400F04FF903B0BDE8F08F98
:1003500000200146F9E72DE9F04D81EA030404F09D
:10036000004B21F0004514464FF0000A23F00041F5
:1003700050EA050220D054EA01021DD0C5F30A5705
:100380000246C5F31303C1F31300C1F30A5640F448
:10039000801543F48013A7EB0608101BD64608F21D
:1003A000FD3873EB050002D308F1010801E0921853
:1003B0005B41B8F1000F03DA00200146BDE8F08D83
:1003C00000204FF48011064684460EE0171B73EBA5
:1003D000050705D3121B63EB050306434CEA010C2A
:1003E00049084FEA300092185B4150EA0107EDD10D
:1003F00052EA030012D082EA040083EA05010843AE
:1004000005D0101BAB4106D20122002306E00022DA
:100410004FF0004302E06FF0010253101AEB0600A8
:100420004CEB085110EB0A0041EB0B01BDE8F04D1D
:1004300000F0CBB8C10F80EAE0700844CA079623E9
:10044000002100F094B80EB5C10F80EAE0700844B6
:10045000CA07002140F233438DE80E000A460B46DE
:1004600000F0C2F803B000BD20F00040C10DC0F3A1
:10047000160040F400007F2901DA00207047962919
:1004800003DCC1F19601C840704796398840704737
:1004900070B5C1F30A5201F000450024C1F3130105
:1004A00040F2FF3341F480119A4201DA002070BD1E
:1004B00040F233439A42A2F2334203DC524200F04C
:1004C0002BF800E090402C43F1D0404270BD30B595
:1004D0000B46014600202022012409E021FA02F502
:1004E0009D4205D303FA02F5491B04FA02F528449C
:1004F000151EA2F10102F1DC30BD202A04DB203AF6
:1005000000FA02F1002070479140C2F1200320FA66
:1005100003F3194390407047202A04DB203A21FA64
:1005200002F00021704721FA02F3D040C2F120020C
:100530009140084319467047202A06DBCB17203A22
:1005400041FA02F043EAE07306E041FA02F3D040D8
:10055000C2F1200291400843194670470029A8BF04
:100560007047401C490008BF20F00100704710B4DC
:10057000B0FA80FC00FA0CF050EA010404BF10BC91
:10058000704749B1CCF1200421FA04F411FA0CF1BE
:1005900018BF012121430843A3EB0C01CB1D4FEAF7
:1005A00000614FEA102042BF002010BC704700EBF2
:1005B000C35010440029A4BF10BC7047401C490020
:1005C00008BF20F0010010BC704710B5141E73F175
:1005D000000408DA401C41F1000192185B411A4303
:1005E00001D120F0010010BD2DE9F04D92469B464F
:1005F00011B1B1FA81F202E0B0FA80F220329046F5
:10060000FFF77BFF04460F4640EA0A0041EA0B0170
:1006100053465A46084313D0114653EA010019D0F5
:10062000C8F140025046FFF777FF05460E46504698
:1006300059464246FFF761FF084305D0012004E018
:1006400020463946BDE8F08D0020054346EAE076B5
:100650002C4337430A986305E40AA0EB0800002204
:10066000FD0A44EA47540A3002D500200146E9E772
:10067000010510196941DDE9084500196941BDE826
:10068000F04DA2E7064C074D06E0E06840F001039C
:1006900094E8070098471034AC42F6D3FFF72AFDE0
:1006A00098240008B824000800BFFEE77047000047
:1006B0000349086000BF024909680029FBD170475F
:1006C0007000002010B50121052000F0FFFD102072
:1006D0000E490880032088704820C8700C4800F03C
:1006E000CBFA0421002000F0A7FA102000F0B4F8A3
:1006F000002008490871102008600C204871012072
:100700008871084600F0C2F810BD00000400002007
:10071000000801400800002010B5102000F0A2F8E9
:1007200058B1102000F098F804480088323003498E
:100730000880084600880249088010BD5C0000203F
:100740003000002010B50121052000F0BFFD202061
:1007500024490880032088704820C870224800F08F
:100760008BFA0521002000F067FA202000F074F8D1
:1007700000201E490871202008600C2048710120CB
:100780008871084600F082F80121092000F09EFDE2
:100790004FF4407013490880032088704820C870C7
:1007A000134800F069FA0821012000F045FA0921F8
:1007B000012000F041FA4FF4807000F04DF84FF442
:1007C000007000F049F80020084908714FF44070AB
:1007D00008600C20487101208871084600F056F826
:1007E00010BD0000040000200008014008000020A7
:1007F000000C014010B5202000F034F858B1202042
:1008000000F02AF81048008832380F49088008465E
:1008100000880E4908804FF4807000F023F830B152
:100820004FF4807000F018F80120094908704FF467
:10083000007000F017F830B14FF4007000F00CF8C1
:1008400001200449087010BD5C0000203000002029
:1008500021000020230000200149086070470000AB
:1008600014040140014600200022074B1B6803EAE4
:100870000102054B14331B680B4013B10AB1012070
:1008800000E00020704700000004014000212349DF
:100890008279002A3AD00A46126803689A430B46C6
:1008A0001A600A1D126803689A430B1D1A600279C8
:1008B00011440A6803681A430A60184A0832126829
:1008C00003689A43154B08331A601A1D12680368AF
:1008D0009A43124B0C331A604279102A0ED11A1F18
:1008E000126803681A430D4B08331A601A1D126808
:1008F00003681A43094B0C331A600DE0074942792B
:1009000011440A6803681A430A6005E00279114439
:100910000A6803689A430A607047000000040140B7
:1009200010B50121042000F0D1FCC020044908804A
:100930004820C87003208870024800F09DF910BD5F
:10094000040000200008014010B51D4801F099F88E
:100950001C4909684FF4803202FB01001A490880E3
:1009600009881A4A1288881AFFF764FD0446FFF7BF
:100970007BFD1749088008460088002803DD0846EB
:10098000008808800CE012480088002805DA10482A
:10099000008840420E49088002E000200C4908808F
:1009A0000B48008841F270714843C82190FBF1F078
:1009B00008490860044800880449088010BD000008
:1009C000000400402C000020260000202800002009
:1009D0002A0000201000002010B5154800F03CFF50
:1009E0000121042000F052FC002012494880C880F8
:1009F0006320888041F61F400880002008720C4860
:100A000001F03CF901210A4800F00AFF00210848E2
:100A100001F005F901221146054801F09DF8012178
:100A2000034800F009FF0121014800F008FF10BD54
:100A300000080040C800002010B50121022000F08D
:100A400025FC00201949C88048804FF6FF70888037
:100A50000120088000200872154801F00FF90420D9
:100A6000144908800020C880022048800F20088197
:100A7000012088800E4801F019F802231A4601214E
:100A80000B4800F0DDFF0021094801F0C8F8012102
:100A9000074800F0D4FE0121054800F0CDFE0122F8
:100AA0001146034801F058F810BD0000C8000020AE
:100AB00000040040E200002070B504460B480078B6
:100AC000012812D10020094908704021084800F08F
:100AD00085F980F001052A464021054800F0B4F967
:100AE000FFF732FF204600F005F870BD200000201F
:100AF000000C01402DE9FC4782464148C0F800A0A7
:100B0000014609683F4A1268881AFFF79CFC3E4A72
:100B100003C23D483D490CC803C9FFF7AAFB3C4A44
:100B200003C23C4838490CC803C9FFF79CFB044684
:100B300039480CC82046FFF79CFB06460022374B7D
:100B4000FFF797FB364A03C22F4836490CC803C942
:100B5000FFF78FFB06460022334BFFF78AFB044664
:100B60000022324BFFF7F7FB804631480CC8404665
:100B7000FFF7D8FA2E4A03C2294825490CC803C9F1
:100B8000FFF7D0FA80462A480CC84046FFF7CAFA59
:100B900004460D4627480068FFF755FC06462246E6
:100BA0002B46FFF7BFFACDE90001FFF771FC2149A1
:100BB00008601548D0E90010164AC2E900101D4827
:100BC000006800280ADD1B48006843F69821884227
:100BD00004DA1849098888B200F036FB1548006825
:100BE00043F69821884202DB481E124908601148EA
:100BF0000068002802DC00200E490860BDE8FC8780
:100C0000C000002010000020B00000208000002064
:100C100098000020B8000020880000200000594003
:100C2000A0000020900000200000244000408F40E1
:100C3000A8000020C400002030B500228B071C0F44
:100C40000F2303FA04F20B4B8C1053F82430934318
:100C5000084C8D1044F8253023468C1053F824306E
:100C60008C07240F00FA04F42343024C8D1044F83F
:100C7000253030BD080001402DE9F0410246002535
:100C80000026002000230024002791F803C00CF068
:100C90000F0591F803C00CF0100CBCF1000F03D04D
:100CA00091F802C04CEA050591F800C0BCF1000FB4
:100CB00031D0146800202BE04FF0010C0CFA00F347
:100CC000B1F800C00CEA03069E4220D183004FF029
:100CD0000F0C0CFA03F7BC4305FA03FC4CEA0404BE
:100CE00091F803C0BCF1280F06D14FF0010C0CFAAB
:100CF00000FCC2F814C00AE091F803C0BCF1480F30
:100D000005D14FF0010C0CFA00FCC2F810C0401CD9
:100D10000828D1D31460B1F800C0BCF1FF0F34DD56
:100D2000546800202EE000F1080C4FF0010808FA8A
:100D30000CF3B1F800C00CEA03069E4221D18300F7
:100D40004FF00F0C0CFA03F7BC4305FA03FC4CEA16
:100D5000040491F803C0BCF1280F05D100F1080C80
:100D600008FA0CF8C2F8148091F803C0BCF1480FDF
:100D700007D100F1080C4FF0010808FA0CF8C2F88E
:100D80001080401C0828CED35460BDE8F0810000DC
:100D900010B50121082000F099FAE0200C490880E4
:100DA0001020C870032088700A48FFF765FF0121F2
:100DB000102000F08BFA4FF4005005490880032002
:100DC00088701020C8700448FFF756FF10BD00005F
:100DD00004000020000C01400010014002460020E9
:100DE00093680B400BB1012000E000207047416187
:100DF000704701617047000008B50121084600F006
:100E000065FA0121042000F061FA4FF40070ADF89A
:100E1000000003208DF8020018208DF803006946B9
:100E20000848FFF729FF4FF48060ADF80000032069
:100E30008DF8020004208DF8030069460148FFF791
:100E40001BFF08BD000801400AB1016100E04161DB
:100E5000704700BFFEE770B502460024002500235E
:100E60000020958A138B1B0445EA030626F07F4475
:100E700004EA01068E4201D1012000E0002070BD8D
:100E800021B1028842F00102028004E002884FF69C
:100E9000FE731A400280704721B1028842F48072CA
:100EA000028004E002884FF6FF631A400280704718
:100EB00021B1028842F40072028004E002884FF6F9
:100EC000FF531A40028070472DE9F04385B0044675
:100ED0000D460026B1460427DFF8CC80A6884FF6E1
:100EE000C0700640684600F011FADDF808802F480F
:100EF000B8FBF0F01FFA80F946EA0906A6802088C0
:100F00004FF6FE7108402080002629492868884253
:100F10000CD828684000B8FBF0F087B2042F00DA44
:100F200004273E4309F10100208427E0E8884BF6BE
:100F3000FF71884206D1286800EB4000B8FBF0F052
:100F400087B209E0286800EBC00101EB0010B8FB94
:100F5000F0F087B247F48047C7F30B0008B947F0B9
:100F6000010747F4004006434FF4967009FB00F078
:100F70004FF47A7190FBF1F0401C2084A683208806
:100F800040F00100208026884FF6F5300640A88802
:100F90006989084306432680A88929890843208156
:100FA00005B0BDE8F083000000127A0040420F0057
:100FB000A086010010B50121880500F067F9012124
:100FC000082000F083F94FF440600F4908800320A7
:100FD00088701C20C8700D48FFF74EFE00200C4999
:100FE00088804BF6FF70C8800020088148814FF44C
:100FF00080408881074808600748FFF765FF0121A6
:101000000548FFF73DFF10BD04000020000C014023
:10101000EC000020A08601000058004012B141F011
:10102000010102E04FF6FE73194001827047018210
:101030007047000010B518480078012811D102202F
:101040001549087008460078144908708021144832
:10105000FFF7C4FE80F00104224680211048FFF70C
:10106000F3FE10480078012813D103200D490870C1
:10107000084600780949087020210948FFF7AEFEAC
:1010800080F00104224620210548FFF7DDFE00F034
:101090001DFA0248007810BD210000202400002025
:1010A000000C01402300002000BFFEE710B5012125
:1010B000042000F00BF904200B4908801820C870A8
:1010C000032088700948FFF7D7FD0121082000F0B0
:1010D000FDF80320044908801020C87003208870A0
:1010E0000348FFF7C9FD10BD0400002000080140BF
:1010F000000C01407047000010B54FF4A06000F0F4
:101100006BF81C2017490870022048700020887076
:101110000120C870084600F027F81E201149087009
:101120000020487088700120C870084600F01CF844
:1011300017200C4908700120487000208870012099
:10114000C870084600F010F80A200649087001200F
:101150004870002088700120C870084600F004F82C
:1011600010BD00000000002070B5002100230F22F8
:10117000C47804B3154C246804F4E064C4F5E06456
:10118000210AC1F10403CA40447804FA03F18478C7
:101190001440214309010E4C0678A155047804F04F
:1011A0001F050124AC4005786D11AD0005F1E02567
:1011B000C5F8004109E0047804F01F050124AC40A3
:1011C000044D0678761145F8264070BD0CED00E020
:1011D00000E400E080E100E002490143024A1160BE
:1011E000704700000000FA050CED00E010B5044661
:1011F0000121084600F04AF804201149088043F60E
:10120000972088800020C88048804FF0804000F000
:1012100035FD60200B49088001204880002048816E
:10122000601EC8804FF0804000F0A0FC0821C80676
:1012300000F0ECFC00214FF0804000F000FB10BDFE
:10124000C8000020D200002010B5044600214FF055
:10125000804000F0F4FA60200A49088001204880AC
:1012600000204881601EC8804FF0804000F07EFC66
:101270000821C80600F0CAFC0121880700F0DFFA47
:1012800010BD0000D20000207047000029B1064ABE
:10129000D2690243044BDA6104E0034AD269824313
:1012A000014BDA61704700000010024029B1064A84
:1012B00012690243044B1A6104E0034A1269824333
:1012C000014B1A61704700000010024029B1064A24
:1012D00092690243044B9A6104E0034A9269824393
:1012E000014B9A61704700000010024029B1064A84
:1012F000D2680243044BDA6004E0034AD2688243B6
:10130000014BDA60704700000010024030B5002148
:101310000022002400232D4D6D6805F00C0121B141
:10132000042905D0082923D105E0294D056022E0D4
:10133000274D05601FE0254D6D6805F47012234DA3
:101340006D6805F48034022505EB92421CB9214DED
:10135000554305600BE01D4D6D6805F400351DB16A
:101360001C4D5543056002E0194D5543056002E0F0
:10137000174D056000BF00BF144D6D6805F0F0010A
:101380000909154D6B5C0568DD4045600F4D6D68C2
:1013900005F4E061090A104D6B5C4568DD4085602D
:1013A0000A4D6D6805F46051C90A0B4D6B5C4568C8
:1013B000DD40C560054D6D6805F44041890B074D62
:1013C0006B5CC568B5FBF3F5056130BD00100240EC
:1013D00000127A0000093D0048000020580000205B
:1013E000704710B500F002F810BD00000CB50020E9
:1013F000019000903348006840F480303149086023
:1014000000BF3048006800F4003000900198401C94
:101410000190009818B90198B0F5A06FF1D1294852
:10142000006800F4003010B10120009001E00020BD
:1014300000900098012843D12348006840F0100034
:10144000214908600846006820F00300086008464B
:10145000006840F0020008601A4840681949486076
:101460000846406848600846406840F4806048602C
:101470000846406820F47C1048600846406840F404
:10148000E81048600846006840F08070086000BFBF
:101490000C48006800F000700028F9D00948406846
:1014A00020F00300074948600846406840F0020009
:1014B000486000BF0348406800F00C000828F9D1DC
:1014C0000CBD0000001002400020024010B50221B7
:1014D0000548FFF78CFC04210448FFF788FC012134
:1014E0000148FFF786FC10BD000C014000080140D8
:1014F00002480068401E01490860704770000020E3
:1015000010B51348006840F0010011490860084612
:101510004068104908400E494860084600680E4976
:1015200008400B4908600846006820F480200860E5
:101530000846406820F4FE0048604FF41F008860B1
:10154000FFF74FFF4FF000600449086010BD000036
:10155000001002400000FFF8FFFFF6FE08ED00E07B
:10156000F0B50C46154600220021068C4FF6FE779A
:101570003E400684028B018C4FF60C7632407E1C76
:1015800006EA03162E433243104EB0420ED0104EE0
:10159000B0420BD0B0F1804F08D00E4EB04205D013
:1015A0000D4EB04202D00D4EB04206D14FF6FD7640
:1015B000314044F00106314305E04FF6F576314005
:1015C00044F00106314302830184F0BD002C014048
:1015D000003401400004004000080040000C0040BE
:1015E000F0B50C461546002200210026078C4FF668
:1015F000EF7C07EA0C070784028B018C4FF6FF771C
:1016000007EA041640F6FF473A404FF6FF7707EA2D
:1016100003373A434FF6FF7707EA05273A43114F5E
:10162000B8420ED0104FB8420BD0B0F1804F08D066
:101630000E4FB84205D00E4FB84202D00D4FB842FF
:1016400006D14FF6DF77394046F01007394305E001
:101650004FF65F77394044F0100739430283018425
:10166000F0BD0000002C01400034014000040040A7
:1016700000080040000C0040F0B50C461546002262
:1016800000210026078C4FF6FF6C07EA0C07078441
:10169000828B018C4FF6FF7707EA04264FF60C7712
:1016A0003A404FF6FF7707EA03172F433A43114FAB
:1016B000B8420ED0104FB8420BD0B0F1804F08D0D6
:1016C0000E4FB84205D00E4FB84202D00D4FB8426F
:1016D00006D14FF6FF57394046F48077394305E08D
:1016E0004FF2FF57394044F48077394382830184B5
:1016F000F0BD0000002C0140003401400004004017
:1017000000080040000C0040F0B50C4615460022D1
:1017100000210026078C4EF6FF7C07EA0C070784A1
:10172000828B018C4FF6FF7707EA043640F6FF47BD
:101730003A404FF6FF7707EA05273A434FF6FF771F
:1017400007EA03373A43114FB8420ED0104FB84260
:101750000BD0B0F1804F08D00E4FB84205D00E4FDD
:10176000B84202D00D4FB84206D14DF6FF7739404E
:1017700046F48057394305E047F6FF57394044F4B3
:101780008057394382830184F0BD0000002C014062
:10179000003401400004004000080040000C0040FC
:1017A00010B50121880700F06FF940B101218807C9
:1017B00000F042F802480068401C0149086010BD72
:1017C0007C00002010B50121064800F05DF940B111
:1017D0000121044800F030F803480068401C024929
:1017E000086010BD000400402C00002010B501214D
:1017F000084800F049F958B10121064800F01CF8EA
:1018000005480078401C044908700120034908700D
:1018100010BD00000008004014000020200000203F
:1018200021B1028842F08002028004E002884FF673
:101830007F731A4002807047CA430282704721B109
:10184000028842F00102028004E002884FF6FE7333
:101850001A4002807047000010B504466848844270
:1018600008D10121C014FFF741FD0021E014FFF76A
:101870003DFDC4E0B4F1804F08D101210846FFF7D7
:1018800015FD00210120FFF711FDB8E05D488442FD
:1018900008D101210220FFF709FD00210220FFF7F6
:1018A00005FDACE05848844208D101210420FFF72F
:1018B000FDFC00210420FFF7F9FCA0E0534884421E
:1018C00008D101210820FFF7F1FC00210820FFF7D3
:1018D000EDFC94E04E48844208D101211020FFF72E
:1018E000E5FC00211020FFF7E1FC88E04948844234
:1018F00008D101212020FFF7D9FC00212020FFF78B
:10190000D5FC7CE04448844208D101214014FFF713
:10191000EDFC00216014FFF7E9FC70E03F488442D1
:1019200009D10121C804FFF7E1FC00214FF4002098
:10193000FFF7DCFC63E03A48844209D10121080545
:10194000FFF7D4FC00214FF48010FFF7CFFC56E0E6
:101950003448844209D101214805FFF7C7FC002122
:101960004FF40010FFF7C2FC49E02F48844208D131
:1019700001214020FFF79AFC00214020FFF796FC50
:101980003DE02A48844208D101218020FFF78EFCE7
:1019900000218020FFF78AFC31E02548844208D1ED
:1019A00001218015FFF782FC0021A015FFF77EFCC6
:1019B00025E02048844209D101210804FFF796FC64
:1019C00000214FF48030FFF791FC18E01A48844260
:1019D00009D101214804FFF789FC00214FF40030B0
:1019E000FFF784FC0BE01548844208D101218804EC
:1019F000FFF77CFC00214FF48020FFF777FC10BD3F
:101A0000002C01400004004000080040000C004091
:101A1000001000400014004000340140004C014020
:101A2000005001400054014000180040001C0040DC
:101A300000200040004001400044014000480140B7
:101A4000F0B50C4615461E460021002200230189F0
:101A5000028B038C4FF6F877394021434FF6FC4751
:101A60003A4040F201173A434FF6DD773B404FF6DC
:101A7000FF7707EA06172F433B4301810283038464
:101A8000F0BD0146888C704730B502460020002327
:101A90000024158A05EA0103958905EA010413B1BA
:101AA0000CB1012000E0002030BD000070B50546FB
:101AB0000C46244885420ED0234885420BD0B5F110
:101AC000804F08D02148854205D02148854202D068
:101AD0002048854200D100E000BF208850B923890A
:101AE000A28861882846FFF73BFDE188284600F080
:101AF00098F825E0208804280AD12389A2886188E3
:101B00002846FFF76DFDE188284600F093F817E0BE
:101B1000208808280AD12389A28861882846FFF7EF
:101B2000ABFDE188284600F092F809E02389A288FD
:101B300061882846FFF7E8FDE188284600F090F824
:101B400070BD0000002C0140003401400004004042
:101B500000080040000C00401AB183890B438381C8
:101B600002E083898B4383817047000070B50024B5
:101B700000220023058C4FF6FF6635400584028C59
:101B80008388848B4FF68F752C404FF6FC752C4064
:101B90000D882C434FF6FF552A400D894FF6FF76EE
:101BA00006EA05252A434D8806EA05252A43154DF0
:101BB000A84202D0144DA8421DD14FF2FF752A4011
:101BC0004D894FF6FF7606EA05252A434FF6FF3585
:101BD0002A408D8806EA05252A434EF6FF752B40DC
:101BE0004DF6FF752B408D8906EA05152B43CD89EF
:101BF00006EA05152B4383808483CD88858702847C
:101C000070BD0000002C0140003401400A46002154
:101C1000818B4FF6F773194011438183704781849C
:101C20007047028B4FF6F3731A400283028B0A430C
:101C300002837047028B4FF2FF331A400283028BFC
:101C40004FF6FF7303EA01231A4302837047828B26
:101C50004FF6F3731A408283828B0A438283704764
:101C6000828B4FF2FF331A408283828B4FF6FF73D1
:101C700003EA01231A43828370470000002202888E
:101C80001D4B98420ED01D4B98420BD0B0F1804FA7
:101C900008D01B4B984205D01A4B984202D01A4BE1
:101CA000984204D14FF68F731A404B881A43174B52
:101CB000984207D0164B984204D04FF6FF431A4083
:101CC000CB881A4302808B8883850B8803850A4B57
:101CD00098420BD0094B984208D00E4B984205D041
:101CE0000D4B984202D00D4B984201D10B7A0386DE
:101CF0000123838270470000002C01400034014022
:101D00000004004000080040000C004000100040AB
:101D100000140040004001400044014000480140E0
:101D200001F40072B2F5007F00D100BFCA43028007
:101D3000704721B1828942F40052828104E0828995
:101D40004DF6FF731A4082817047000010B50446BB
:101D50002048844209D101218803FFF7C7FA0021F6
:101D60004FF48040FFF7C2FA32E01B48844209D1A9
:101D700001214804FFF79AFA00214FF40030FFF7E1
:101D800095FA25E01548844209D101218804FFF71E
:101D90008DFA00214FF48020FFF788FA18E01048F0
:101DA000844209D10121C804FFF780FA00214FF4D1
:101DB0000020FFF77BFA0BE00A48844208D101219A
:101DC0000805FFF773FA00214FF48010FFF76EFA51
:101DD00010BD0000003801400044004000480040B1
:101DE000004C004000500040F0B50346002400269F
:101DF0000025002040F66A17B94200D100BF1846FE
:101E0000C1F3421401F01F06012707FA06F5012C61
:101E100001D10C3004E0022C01D1103000E014306C
:101E20001AB107682F43076002E00768AF430760F5
:101E3000F0BD00002DE9F04786B005460E460024AF
:101E4000A24600BFA1460027B08900B100BF2F46BF
:101E50002C8A4CF6FF700440F08804432C82AC8935
:101E60004EF6F3100440B088318908437189084365
:101E70000443AC81AC8A4FF6FF400440B089044370
:101E8000AC8201A8FFF742FA1F48874202D1DDF871
:101E900010A001E0DDF80CA0A88900F4004040B1DA
:101EA0000AEBCA0000EB0A1031684900B0FBF1F8F8
:101EB00007E00AEBCA0000EB0A1031688900B0FBAA
:101EC000F1F86420B8FBF0F004012009642101FB63
:101ED0001089A88900F4004040B1322000EBC9000D
:101EE000B0FBF1F000F00700044308E0322000EB03
:101EF00009106421B0FBF1F000F00F0004432C81C5
:101F000006B0BDE8F0870000003801401FB5044668
:101F10002448844204D101218803FFF7B7F90EE079
:101F20002148844204D101214804FFF7AFF906E0BB
:101F30001E48844203D101218804FFF7A7F92046F7
:101F4000FFF704FF4FF4E13000900020ADF80C00E3
:101F50000C20ADF80A000020ADF80800ADF806002E
:101F6000ADF8040069462046FFF764FF40F22551B2
:101F70002046FFF7D5FE40F227712046FFF7D0FE3E
:101F8000012240F225512046FFF72EFF012240F2A8
:101F900027712046FFF728FF01212046FFF7C9FEE1
:101FA0001FBD0000003801400044004000480040D0
:101FB00000BFFEE70FB4084B10B504A902AA0398AE
:101FC00000F01CF8044602A9002000F0C1F82046E9
:101FD00010BC5DF814FB00005121000802E008C8A5
:101FE000121F08C1002AFAD170477047002001E093
:101FF00001C1121F002AFBD1704700002DE9FF4FDD
:1020000089B09B460446002506E025280BD05A4699
:102010000B999047641C6D1C20780028F5D10DB0F9
:102020002846BDE8F08F0027B8460122474900E066
:10203000074314F8013F203B02FA03F00842F7D1AE
:1020400020782E2819D114F8010F47F004072A2808
:102050000ED06FF02F022078A0F1300109290CD8A2
:1020600008EB880102EB410100EB0108641CF2E778
:102070000A98641C50F8048B0A9020780028CED06F
:10208000642808D0692806D075281ED05A460B99B6
:1020900090476D1C58E00A994FF00A0901C90A914E
:1020A000002802DA40422D2102E0390504D52B2117
:1020B0008DF82010012103E0F90704D02021F7E773
:1020C0008A4608AE0DE00021FAE70A994FF00A09A6
:1020D00001C90A91F7E74946FEF7F9F9303106F8E8
:1020E000011D0028F7D1ADEB060000F120097807AB
:1020F00001D44FF00108C84502DDA8EB090000E05B
:1021000000208046002706E008A85A46C05D0B99CB
:1021100090476D1C7F1C5745F6DB04E030205A4683
:102120000B9990476D1CB8F10001A8F10108F5DC8E
:1021300005E016F8010B5A460B9990476D1CB9F152
:102140000001A9F10109F4DC641C65E7092801001C
:102150000A68531C0B6010707047F8B504460025E0
:1021600004F0F006F02000EA041746F004008DF8B1
:1021700000008DF8016047F004008DF8020047F080
:1021800008008DF8030000BF05E01DF8050000F011
:1021900029F8681CC5B2042DF7DBF8BDF8B5044674
:1021A000002504F0F006F02000EA041746F00D00C8
:1021B0008DF8000046F009008DF8010047F00D0091
:1021C0008DF8020047F009008DF8030000BF05E01C
:1021D0001DF8050000F006F8681CC5B2042DF7DBF9
:1021E000F8BD000010B5044601211348FEF754FE67
:1021F00000BF12491048FEF72EFE0028F9D0002239
:102200007E210D48FEF70AFF00BF0D490A48FEF780
:1022100022FE0028F9D021460748FEF708FF00BF3C
:102220000749891C0448FEF716FE0028F8D0012152
:102230000148FEF73DFE10BD0058004001000300BC
:102240008200070070B504460D46012C04D104F14C
:102250007F002844C6B204E005F14000C0B240F05F
:1022600080063046FFF779FF70BD10B53320FFF7C9
:1022700074FF0A20FEF71CFA3220FFF76EFF3220AF
:10228000FEF716FA2820FFF768FF3220FEF710FA53
:102290000120FFF762FF3220FEF70AFA0620FFF75F
:1022A0005CFF3220FEF704FA0C20FFF756FF3220C5
:1022B000FEF7FEF90220FFF750FF3220FEF7F8F993
:1022C00010BD10B5044603E014F8010BFFF766FFDC
:1022D00020780028F8D110BD574800684FF47A7272
:1022E000B0FBF2F1B1F1807F00D31DE021F07F401F
:1022F000401E4FF0E022506150170F22002807DAED
:1023000013071D0E4D4B00F00F04241F1D5503E055
:1023100013071C0E4A4B1C5400BF00204FF0E02254
:1023200090610720106100BFFEF744FEFEF7BEFE7D
:10233000FEF7F6FAFEF760FD4248FFF7E7FD0220E0
:10234000FEF754FF0220FEF77FFFFEF775FBFEF756
:1023500043FBFEF7F7F9FEF7B5F9FEF7CDFEFFF701
:1023600084FF00210120FFF76DFF37A0FFF7A9FFD1
:1023700000210320FFF766FF36A0FFF7A2FFFEF75C
:1023800007FD58E036480068072853D2DFE800F020
:1023900004081718191A4E0005203149086049E051
:1023A00030480088FEF788FB00E003E02E48007804
:1023B0000A28FADC00BF0520294908603AE039E024
:1023C00038E037E02748028828A12948FFF7F2FDC6
:1023D0000A210120FFF736FF26A0FFF772FF0A212E
:1023E0000120FFF72FFF2248FFF76BFF23481FA1B3
:1023F00002682348FFF7DEFD0B210320FFF722FFD1
:1024000020A0FFF75EFF0B210320FFF71BFF1C48F6
:10241000FFF757FFFEF70EFE1E49087008460078CA
:10242000022802D101200E49086003E000200C4977
:10243000086000BF00BFA5E73400002018ED00E0F1
:1024400000E400E000380140534554205350454516
:10245000443A00005245414C2053504545443A000F
:102460001C00002030000020140000202564000023
:10247000FC00002020202020202000001000002050
:102480002401002020202020202020202020202087
:102490002020000022000020B824000800000020B6
:1024A000C8000000DC1F000880250008C8000020CC
:1024B00088040000EC1F000800000000000000007D
:1024C000000000000000000000000000000000000C
:1024D00000000000060000000000000000000000F6
:1024E00000000000000000000000000000A24A04FC
:1024F00000000000000000000102030406070809B4
:102500000000000001020304010203040607080999
:1025100002040608F40100000400000005000000A9
:10252000060000000700000000000000000000009E
:1025300000000000000000009A9999999999B93F0C
:10254000000000000000000000000000000000008B
:10255000000000000000000000000000000000007B
:10256000000000000000000000000000000000006B
:10257000000000000000000000000000000000005B
:04000005080000ED02
:00000001FF
