:020000040800F2
:100000001005002001010008C90C0008790C000847
:100010007D0C00087D060008E517000800000000C0
:10002000000000000000000000000000C90E0008F1
:100030008106000800000000450E0008B50F00080A
:100040001B0100081B0100081B0100081B01000820
:100050001B0100081B0100081B0100081B01000810
:100060001B0100081B0100081B0100081B01000800
:100070001B0100081B0100081B0100081B010008F0
:100080001B0100081B0100081B0100081B010008E0
:100090001B0100081B0100081B010008D90600080D
:1000A0001B0100081B0100081B0100081B010008C0
:1000B0006512000889120008B11200081B0100082F
:1000C0001B0100081B0100081B0100081B010008A0
:1000D0001B0100081B0100081B0100081B01000890
:1000E0001B0100081B0100081B010008DFF80CD0F1
:1000F00000F0B2FA00480047091800081005002077
:100100000648804706480047FEE7FEE7FEE7FEE7B1
:10011000FEE7FEE7FEE7FEE7FEE7FEE7C50F0008A5
:10012000ED0000082DE9FE4F804681EA0300C00F74
:100130000C46009021F0004123F00045B8EB02008E
:10014000A94105D24046214690461C460B46024630
:1001500023F00040104347D0270DC7F30A00C3F334
:100160000A510290401A019040286BDAC3F3130041
:1001700040F4801B0098924620B10023D2EB030A82
:1001800063EB0B0B01985946C0F14002504600F05A
:100190009EF906460D4650465946019A00F0B6F9BA
:1001A00010EB08006141002487EA115284EAE773EA
:1001B0001A4340D0009A62B3019A012A4FEA0752CB
:1001C00015DC001B61EB02014FF0004202EA07520E
:1001D000CDE90042001C41F5801132462B4600F06B
:1001E000EDF903B0BDE8F08F40462146F9E7001B6A
:1001F00061EB0201001C41F5801300185B412018DF
:10020000A2F5001747EB030140EAD570B6196D411E
:1002100011E06D084FEA360645EAC0754FEA07520D
:10022000001B61EB0201001C41F5801149084FEAF7
:1002300030000019514132462B4603B0BDE8F04F63
:1002400000F0ADB90098012240000023D0EB02027B
:1002500063EBE073009821464FEAE074B8EB0000CE
:1002600061EB0401E9E783F000435BE781F00041C3
:1002700058E72DE9FE4F81EA030404F0004421F021
:10028000004100944FF0000B23F0004350EA0104BA
:100290005ED052EA03045BD0C3F30A54C1F30A559B
:1002A0002C44A4F2F3340194A0FB0254C1F31301D3
:1002B00041F48011C3F3130343F4801301FB0244A0
:1002C00000FB034E840A970A44EA815447EA8357A5
:1002D000A4FB076802958D0A05FB07854FEA932C5E
:1002E00004FB0C542705029D4FEA065847EA1637CF
:1002F000B5EB08056EEB070C870E920E47EA8117E7
:1003000042EA8312A7FB0201B6EB0B0164EB000487
:100310002B0D43EA0C335E1844EB1C50DA46514671
:10032000E7FB0201C5F313044FEA0B3343EA14530E
:100330004FEA0432019C43EA0603A4F10C04029440
:10034000009CCDE900B400F039F903B0BDE8F08FAE
:1003500000200146F9E72DE9F04D81EA030404F09D
:10036000004B21F0004514464FF0000A23F00041F5
:1003700050EA050220D054EA01021DD0C5F30A5705
:100380000246C5F31303C1F31300C1F30A5640F448
:10039000801543F48013A7EB0608101BD64608F21D
:1003A000FD3873EB050002D308F1010801E0921853
:1003B0005B41B8F1000F03DA00200146BDE8F08D83
:1003C00000204FF48011064684460EE0171B73EBA5
:1003D000050705D3121B63EB050306434CEA010C2A
:1003E00049084FEA300092185B4150EA0107EDD10D
:1003F00052EA030012D082EA040083EA05010843AE
:1004000005D0101BAB4106D20122002306E00022DA
:100410004FF0004302E06FF0010253101AEB0600A8
:100420004CEB085110EB0A0041EB0B01BDE8F04D1D
:1004300000F0B5B8C10F80EAE0700844CA079623FF
:10044000002100F07EB80EB5C10F80EAE0700844CC
:10045000CA07002140F233438DE80E000A460B46DE
:1004600000F0ACF803B000BD20F00040C10DC0F3B7
:10047000160040F400007F2901DA00207047962919
:1004800003DCC1F19601C840704796398840704737
:1004900070B5C1F30A5201F000450024C1F3130105
:1004A00040F2FF3341F480119A4201DA002070BD1E
:1004B00040F233439A42A2F2334203DC524200F04C
:1004C00015F800E090402C43F1D0404270BD202A46
:1004D00004DB203A00FA02F1002070479140C2F19B
:1004E000200320FA03F3194390407047202A04DBCD
:1004F000203A21FA02F00021704721FA02F3D0409D
:10050000C2F120029140084319467047202A06DBB9
:10051000CB17203A41FA02F043EAE07306E041FAD1
:1005200002F3D040C2F120029140084319467047BF
:100530000029A8BF7047401C490008BF20F00100F7
:10054000704710B4B0FA80FC00FA0CF050EA0104D5
:1005500004BF10BC704749B1CCF1200421FA04F467
:1005600011FA0CF118BF012121430843A3EB0C0140
:10057000CB1D4FEA00614FEA102042BF002010BCA3
:10058000704700EBC35010440029A4BF10BC704753
:10059000401C490008BF20F0010010BC704710B596
:1005A000141E73F1000408DA401C41F10001921896
:1005B0005B411A4301D120F0010010BD2DE9F04D3F
:1005C00092469B4611B1B1FA81F202E0B0FA80F294
:1005D00020329046FFF77BFF04460F4640EA0A00B0
:1005E00041EA0B0153465A46084313D0114653EAD9
:1005F000010019D0C8F140025046FFF777FF0546C9
:100600000E46504659464246FFF761FF084305D063
:10061000012004E020463946BDE8F08D0020054366
:1006200046EAE0762C4337430A986305E40AA0EBD8
:1006300008000022FD0A44EA47540A3002D500208F
:100640000146E9E7010510196941DDE9084500198E
:100650006941BDE8F04DA2E7064C074D06E0E068B1
:1006600040F0010394E8070098471034AC42F6D3F9
:10067000FFF740FD681800088818000800BFFEE773
:100680007047000010B50121052000F0FDFB80201F
:100690000E490880032088704820C8700C4800F07C
:1006A00057FA0721002000F033FA802000F04CF8C0
:1006B000002008490871802008600C204871012042
:1006C0008871084600F05AF810BD000004000020B0
:1006D000000801400800002010B5802000F03AF822
:1006E00050B3802000F030F84021144800F0BBFAED
:1006F00050B913480068323811490860084600684C
:10070000002801DA0020086040210C4800F0ABFA14
:1007100001280DD10A4800683230094908600846AE
:10072000006841F27C51884202DB084604490860B7
:10073000034800680349086010BD0000000801403C
:1007400038000020180000200149086070470000B0
:1007500014040140014600200022074B1B6803EAF5
:100760000102054B14331B680B4013B10AB1012081
:1007700000E00020704700000004014000212349F0
:100780008279002A3AD00A46126803689A430B46D7
:100790001A600A1D126803689A430B1D1A600279D9
:1007A00011440A6803681A430A60184A083212683A
:1007B00003689A43154B08331A601A1D12680368C0
:1007C0009A43124B0C331A604279102A0ED11A1F29
:1007D000126803681A430D4B08331A601A1D126819
:1007E00003681A43094B0C331A600DE0074942793C
:1007F00011440A6803681A430A6005E0027911444B
:100800000A6803689A430A607047000000040140C8
:1008100010B50121042000F037FBC02004490880F6
:100820004820C87003208870024800F091F910BD7C
:10083000040000200008014010B51D4800F083FEB0
:100840001C4909684FF4803202FB01001A490880F4
:1008500009881A4A1288881AFFF7ECFD0446FFF748
:1008600003FE1749088008460088002803DD084673
:10087000008808800CE012480088002805DA10483B
:10088000008840420E49088002E000200C490880A0
:100890000B48008841F270714843C82190FBF1F089
:1008A00008490860044800880449088010BD000019
:1008B0000004004028000020220000202400002026
:1008C000260000201000002010B5154800F026FD7D
:1008D0000121042000F0B8FA002012494880C880A5
:1008E0006320888041F61F400880002008720C4871
:1008F00000F026FF01210A4800F0F4FC002108481E
:1009000000F0EFFE01221146054800F087FE0121AC
:10091000034800F0F3FC0121014800F0F2FC10BD97
:10092000000800408800002010B50121022000F0DE
:100930008BFA00201949C88048804FF6FF708880E4
:100940000120088000200872154800F0F9FE0420FC
:10095000144908800020C880022048800F200881A8
:10096000012088800E4800F003FE02231A46012170
:100970000B4800F0C7FD0021094800F0B2FE01213C
:10098000074800F0BEFC0121054800F0B7FC012239
:100990001146034800F042FE10BD00008800002010
:1009A00000040040A200002010B50446064800786C
:1009B000012807D1002004490870FFF73DFF2046B9
:1009C00000F004F810BD0000200000202DE9FC47D5
:1009D00082464148C0F800A0014609683F4A1268B3
:1009E000881AFFF730FD3E4A03C23D483D490CC816
:1009F00003C9FFF73EFC3C4A03C23C4838490CC8D7
:100A000003C9FFF730FC044639480CC82046FFF7FD
:100A100030FC06460022374BFFF72BFC364A03C258
:100A20002F4836490CC803C9FFF723FC06460022AD
:100A3000334BFFF71EFC04460022324BFFF78BFCC2
:100A4000804631480CC84046FFF76CFB2E4A03C273
:100A5000294825490CC803C9FFF764FB80462A488A
:100A60000CC84046FFF75EFB04460D462748006869
:100A7000FFF7E9FC064622462B46FFF753FBCDE97C
:100A80000001FFF705FD214908601548D0E9001075
:100A9000164AC2E900101D48006800280ADD1B48FC
:100AA000006843F69821884204DA1849098888B218
:100AB00000F0A8F91548006843F69821884202DB47
:100AC000481E1249086011480068002802DC002016
:100AD0000E490860BDE8FC8780000020100000205F
:100AE0007000002040000020580000207800002006
:100AF0004800002000005940600000205000002005
:100B00000000244000408F40680000208400002046
:100B100030B500228B071C0F0F2303FA04F20B4B96
:100B20008C1053F824309343084C8D1044F8253032
:100B300023468C1053F824308C07240F00FA04F459
:100B40002343024C8D1044F8253030BD080001408D
:100B50002DE9F04102460025002600200023002454
:100B6000002791F803C00CF00F0591F803C00CF0BA
:100B7000100CBCF1000F03D091F802C04CEA05053F
:100B800091F800C0BCF1000F31D0146800202BE0B8
:100B90004FF0010C0CFA00F3B1F800C00CEA0306A8
:100BA0009E4220D183004FF00F0C0CFA03F7BC4398
:100BB00005FA03FC4CEA040491F803C0BCF1280FC9
:100BC00006D14FF0010C0CFA00FCC2F814C00AE088
:100BD00091F803C0BCF1480F05D14FF0010C0CFA9D
:100BE00000FCC2F810C0401C0828D1D31460B1F832
:100BF00000C0BCF1FF0F34DD546800202EE000F18E
:100C0000080C4FF0010808FA0CF3B1F800C00CEA28
:100C100003069E4221D183004FF00F0C0CFA03F71C
:100C2000BC4305FA03FC4CEA040491F803C0BCF190
:100C3000280F05D100F1080C08FA0CF8C2F814804E
:100C400091F803C0BCF1480F07D100F1080C4FF038
:100C5000010808FA0CF8C2F81080401C0828CED30E
:100C60005460BDE8F0810246002093680B400BB150
:100C7000012000E00020704700BFFEE700BFFEE754
:100C800010B50121042000F0FFF804200B49088072
:100C90001820C870032088700948FFF759FF012108
:100CA000082000F0F1F80320044908801020C870E3
:100CB000032088700348FFF74BFF10BD040000209D
:100CC00000080140000C01407047000010B54FF4CF
:100CD000A06000F05FF81C201149087002204870E5
:100CE000002088700120C870084600F01BF81E2004
:100CF0000B4908700020487088700120C8700846B1
:100D000000F010F8172006490870012048700020F4
:100D100088700120C870084600F004F810BD00007B
:100D20000000002070B5002100230F22C47804B316
:100D3000154C246804F4E064C4F5E064210AC1F1B0
:100D40000403CA40447804FA03F184781440214330
:100D500009010E4C0678A155047804F01F05012402
:100D6000AC4005786D11AD0005F1E025C5F80041F6
:100D700009E0047804F01F050124AC40044D067816
:100D8000761145F8264070BD0CED00E000E400E06F
:100D900080E100E002490143024A1160704700000F
:100DA0000000FA050CED00E010B5044601210846EC
:100DB00000F04AF804201149088043F69720888003
:100DC0000020C88048804FF0804000F0B9FC6020CF
:100DD0000B4908800120488000204881601EC8809F
:100DE0004FF0804000F024FC0821C80600F070FCA1
:100DF00000214FF0804000F084FA10BD88000020F0
:100E00009200002010B5044600214FF0804000F011
:100E100078FA60200A490880012048800020488133
:100E2000601EC8804FF0804000F002FC0821C80618
:100E300000F04EFC0121880700F063FA10BD0000AD
:100E4000920000207047000029B1064AD26902438F
:100E5000044BDA6104E0034AD2698243014BDA6150
:100E6000704700000010024029B1064A126902438F
:100E7000044B1A6104E0034A12698243014B1A6170
:100E8000704700000010024029B1064A92690243EF
:100E9000044B9A6104E0034A92698243014B9A61D0
:100EA000704700000010024029B1064AD268024390
:100EB000044BDA6004E0034AD2688243014BDA60F3
:100EC0007047000000100240704710B500F002F8B3
:100ED00010BD00000CB50020019000903348006860
:100EE00040F480303149086000BF3048006800F4A9
:100EF000003000900198401C0190009818B90198AA
:100F0000B0F5A06FF1D12948006800F4003010B1AD
:100F10000120009001E0002000900098012843D1BA
:100F20002348006840F01000214908600846006826
:100F300020F0030008600846006840F002000860E6
:100F40001A484068194948600846406848600846A1
:100F5000406840F4806048600846406820F47C1097
:100F600048600846406840F4E81048600846006859
:100F700040F08070086000BF0C48006800F000700E
:100F80000028F9D00948406820F00300074948606C
:100F90000846406840F00200486000BF03484068CF
:100FA00000F00C000828F9D10CBD00000010024030
:100FB0000020024002480068401E01490860704756
:100FC0002C00002010B51348006840F001001149C2
:100FD000086008464068104908400E4948600846C5
:100FE00000680E4908400B4908600846006820F474
:100FF000802008600846406820F4FE0048604FF4F6
:101000001F008860FFF761FF4FF00060044908602F
:1010100010BD0000001002400000FFF8FFFFF6FEC8
:1010200008ED00E0F0B50C46154600220021068CC4
:101030004FF6FE773E400684028B018C4FF60C760D
:1010400032407E1C06EA03162E433243104EB04255
:101050000ED0104EB0420BD0B0F1804F08D00E4EE3
:10106000B04205D00D4EB04202D00D4EB04206D176
:101070004FF6FD76314044F00106314305E04FF66E
:10108000F576314044F00106314302830184F0BD1E
:10109000002C0140003401400004004000080040E2
:1010A000000C0040F0B50C46154600220021002639
:1010B000078C4FF6EF7C07EA0C070784028B018C44
:1010C0004FF6FF7707EA041640F6FF473A404FF61F
:1010D000FF7707EA03373A434FF6FF7707EA05271A
:1010E0003A43114FB8420ED0104FB8420BD0B0F176
:1010F000804F08D00E4FB84205D00E4FB84202D0F4
:101100000D4FB84206D14FF6DF77394046F0100751
:10111000394305E04FF65F77394044F01007394313
:1011200002830184F0BD0000002C01400034014026
:101130000004004000080040000C0040F0B50C46E0
:101140001546002200210026078C4FF6FF6C07EAA7
:101150000C070784828B018C4FF6FF7707EA042681
:101160004FF60C773A404FF6FF7707EA03172F4305
:101170003A43114FB8420ED0104FB8420BD0B0F1E5
:10118000804F08D00E4FB84205D00E4FB84202D063
:101190000D4FB84206D14FF6FF57394046F48077DD
:1011A000394305E04FF2FF57394044F48077394323
:1011B00082830184F0BD0000002C01400034014016
:1011C0000004004000080040000C0040F0B50C4650
:1011D0001546002200210026078C4EF6FF7C07EA08
:1011E0000C070784828B018C4FF6FF7707EA0436E1
:1011F00040F6FF473A404FF6FF7707EA05273A43A4
:101200004FF6FF7707EA03373A43114FB8420ED043
:10121000104FB8420BD0B0F1804F08D00E4FB842FB
:1012200005D00E4FB84202D00D4FB84206D14DF650
:10123000FF77394046F48057394305E047F6FF57BA
:10124000394044F48057394382830184F0BD000063
:10125000002C014000340140000400400008004020
:10126000000C004010B50121880700F06FF940B173
:101270000121880700F042F802480068401C01493B
:10128000086010BD3400002010B50121064800F0B0
:101290005DF940B10121044800F030F803480068CE
:1012A000401C0249086010BD0004004028000020D6
:1012B00010B50121084800F049F958B1012106484C
:1012C00000F01CF805480078401C04490870012013
:1012D0000349087010BD0000000800401400002001
:1012E0002000002021B1028842F08002028004E048
:1012F00002884FF67F731A4002807047CA43028209
:10130000704721B1028842F00102028004E00288A5
:101310004FF6FE731A4002807047000010B5044675
:101320006848844208D10121C014FFF7BDFD0021A7
:10133000E014FFF7B9FDC4E0B4F1804F08D10121FA
:101340000846FFF791FD00210120FFF78DFDB8E071
:101350005D48844208D101210220FFF785FD00216C
:101360000220FFF781FDACE05848844208D10121FA
:101370000420FFF779FD00210420FFF775FDA0E0B0
:101380005348844208D101210820FFF76DFD002158
:101390000820FFF769FD94E04E48844208D10121FE
:1013A0001020FFF761FD00211020FFF75DFD88E0B0
:1013B0004948844208D101212020FFF755FD002132
:1013C0002020FFF751FD7CE04448844208D10121F0
:1013D0004014FFF769FD00216014FFF765FD70E020
:1013E0003F48844209D10121C804FFF75DFD002177
:1013F0004FF40020FFF758FD63E03A48844209D1DA
:1014000001210805FFF750FD00214FF48010FFF780
:101410004BFD56E03448844209D101214805FFF7CD
:1014200043FD00214FF40010FFF73EFD49E02F4837
:10143000844208D101214020FFF716FD0021402001
:10144000FFF712FD3DE02A48844208D101218020A7
:10145000FFF70AFD00218020FFF706FD31E0254857
:10146000844208D101218015FFF7FEFC0021A01560
:10147000FFF7FAFC25E02048844209D10121080445
:10148000FFF712FD00214FF48030FFF70DFD18E04B
:101490001A48844209D101214804FFF705FD0021C3
:1014A0004FF40030FFF700FD0BE01548844208D1EF
:1014B00001218804FFF7F8FC00214FF48020FFF79A
:1014C000F3FC10BD002C0140000400400008004067
:1014D000000C0040001000400014004000340140A7
:1014E000004C0140005001400054014000180040F1
:1014F000001C00400020004000400140004401402A
:1015000000480140F0B50C4615461E460021002259
:1015100000230189028B038C4FF6F8773940214371
:101520004FF6FC473A4040F201173A434FF6DD7759
:101530003B404FF6FF7707EA06172F433B430181F5
:1015400002830384F0BD0146888C704730B50246A3
:10155000002000230024158A05EA0103958905EA85
:10156000010413B10CB1012000E0002030BD0000E7
:1015700070B505460C46244885420ED02348854266
:101580000BD0B5F1804F08D02148854205D02148C5
:10159000854202D02048854200D100E000BF20886B
:1015A00050B92389A28861882846FFF73BFDE1886E
:1015B000284600F098F825E0208804280AD12389DD
:1015C000A28861882846FFF76DFDE188284600F073
:1015D00093F817E0208808280AD12389A288618817
:1015E0002846FFF7ABFDE188284600F092F809E0B5
:1015F0002389A28861882846FFF7E8FDE18828460C
:1016000000F090F870BD0000002C01400034014053
:101610000004004000080040000C00401AB183891B
:101620000B43838102E083898B43838170470000F1
:1016300070B5002400220023058C4FF6FF6635406C
:101640000584028C8388848B4FF68F752C404FF66F
:10165000FC752C400D882C434FF6FF552A400D8910
:101660004FF6FF7606EA05252A434D8806EA05254A
:101670002A43154DA84202D0144DA8421DD14FF265
:10168000FF752A404D894FF6FF7606EA05252A4365
:101690004FF6FF352A408D8806EA05252A434EF687
:1016A000FF752B404DF6FF752B408D8906EA051519
:1016B0002B43CD8906EA05152B4383808483CD888F
:1016C0008587028470BD0000002C01400034014079
:1016D0000A460021818B4FF6F7731940114381832D
:1016E000704781847047028B4FF6F3731A40028370
:1016F000028B0A4302837047028B4FF2FF331A407A
:101700000283028B4FF6FF7303EA01231A4302831D
:101710007047828B4FF6F3731A408283828B0A43A1
:1017200082837047828B4FF2FF331A408283828B11
:101730004FF6FF7303EA01231A43828370470000C8
:10174000002202881D4B98420ED01D4B98420BD0B0
:10175000B0F1804F08D01B4B984205D01A4B9842ED
:1017600002D01A4B984204D14FF68F731A404B881F
:101770001A43174B984207D0164B984204D04FF6A5
:10178000FF431A40CB881A4302808B8883850B88DD
:1017900003850A4B98420BD0094B984208D00E4B58
:1017A000984205D00D4B984202D00D4B984201D182
:1017B0000B7A03860123838270470000002C0140CE
:1017C000003401400004004000080040000C0040CC
:1017D000001000400014004000400140004401405F
:1017E0000048014000BFFEE702E008C8121F08C120
:1017F000002AFAD170477047002001E001C1121F92
:10180000002AFBD170470000FFF73AFAFFF700F813
:101810000220FFF7C9FA0220FFF7F4FAFFF784F875
:10182000FFF752F8FEF72EFFFFF750FA18E00D48C9
:101830000068072813D2DFE800F004050A0B0C0D3E
:101840000E000CE04FF42F70FFF7AEF807E006E053
:1018500005E004E003E001200249086000BF00BF8A
:10186000E5E700001C0000208818000800000020A8
:1018700088000000E8170008101900088800002000
:1018800088040000F81700080000000000000000B5
:101890000000000000000000000000000000000048
:1018A0000000000006000000000000000000000032
:1018B0000000000000000000000000000000000028
:1018C00000000000000000009A9999999999B93F89
:1018D0000000000000000000000000000000000008
:1018E00000000000000000000000000000000000F8
:1018F00000000000000000000000000000000000E8
:1019000000000000000000000000000000000000D7
:04000005080000ED02
:00000001FF
