:020000040800F2
:1000000080050020450100089514000845100008EF
:1000100091140008F9060008BD2300080000000044
:10002000000000000000000000000000C5170008EC
:1000300011070008000000004D160008E91800082C
:100040005F0100085F0100085F0100085F01000810
:100050005F0100085F0100085F0100085F01000800
:100060005F0100085F010008F10800085F01000857
:100070005F0100085F0100085F0100085F010008E0
:100080005F0100085F0100085F0100085F010008D0
:100090005F0100085F0100085F010008CD0900084A
:1000A0005F0100085F0100085F0100085F010008B0
:1000B000991B0008BD1B0008E51B00085F01000834
:1000C0005F0100085F0100085F0100085F01000890
:1000D0005F0100085F0100085F0100085F01000880
:1000E000610800085F0100085F0100085F01000867
:1000F0005F0100085F0100085F0100085F01000860
:100100005F0100085F0100085F0100085F0100084F
:100110005F0100085F0100085F0100085F0100083F
:100120005F0100085F0100085F0100085F0100082F
:10013000DFF80CD000F0CEFA00480047292700086D
:10014000800500200648804706480047FEE7FEE796
:10015000FEE7FEE7FEE7FEE7FEE7FEE7FEE7FEE777
:10016000F9180008310100082DE9FE4F804681EAA8
:100170000300C00F0C46009021F0004123F0004521
:10018000B8EB0200A94105D24046214690461C46E4
:100190000B46024623F00040104347D0270DC7F31B
:1001A0000A00C3F30A510290401A019040286BDA0A
:1001B000C3F3130040F4801B0098924620B1002343
:1001C000D2EB030A63EB0B0B01985946C0F14002D6
:1001D000504600F0B9F906460D4650465946019A78
:1001E00000F0D1F910EB08006141002487EA1152B8
:1001F00084EAE7731A4340D0009A62B3019A012A55
:100200004FEA075215DC001B61EB02014FF0004280
:1002100002EA0752CDE90042001C41F58011324646
:100220002B4600F008FA03B0BDE8F08F40462146A7
:10023000F9E7001B61EB0201001C41F58013001877
:100240005B412018A2F5001747EB030140EAD57087
:10025000B6196D4111E06D084FEA360645EAC075E2
:100260004FEA0752001B61EB0201001C41F58011AF
:1002700049084FEA30000019514132462B4603B07D
:10028000BDE8F04F00F0C8B90098012240000023FB
:10029000D0EB020263EBE073009821464FEAE07472
:1002A000B8EB000061EB0401E9E783F000435BE792
:1002B00081F0004158E72DE9FE4F81EA030404F084
:1002C000004421F0004100944FF0000B23F0004364
:1002D00050EA01045ED052EA03045BD0C3F30A542F
:1002E000C1F30A552C44A4F2F3340194A0FB025448
:1002F000C1F3130141F48011C3F3130343F48013DA
:1003000001FB024400FB034E840A970A44EA81542D
:1003100047EA8357A4FB076802958D0A05FB07850A
:100320004FEA932C04FB0C542705029D4FEA065814
:1003300047EA1637B5EB08056EEB070C870E920EF1
:1003400047EA811742EA8312A7FB0201B6EB0B01D1
:1003500064EB00042B0D43EA0C335E1844EB1C5095
:10036000DA465146E7FB0201C5F313044FEA0B33AB
:1003700043EA14534FEA0432019C43EA0603A4F112
:100380000C040294009CCDE900B400F054F903B0D1
:10039000BDE8F08F00200146F9E72DE9F04D81EA34
:1003A000030404F0004B21F0004514464FF0000A0E
:1003B00023F0004150EA050220D054EA01021DD08A
:1003C000C5F30A570246C5F31303C1F31300C1F383
:1003D0000A5640F4801543F48013A7EB0608101B5F
:1003E000D64608F2FD3873EB050002D308F1010888
:1003F00001E092185B41B8F1000F03DA00200146DA
:10040000BDE8F08D00204FF48011064684460EE0D2
:10041000171B73EB050705D3121B63EB050306439C
:100420004CEA010C49084FEA300092185B4150EA4F
:100430000107EDD152EA030012D082EA040083EAF8
:100440000501084305D0101BAB4106D20122002351
:1004500006E000224FF0004302E06FF0010253106B
:100460001AEB06004CEB085110EB0A0041EB0B01B4
:10047000BDE8F04D00F0D0B8C10F80EAE07008444C
:10048000CA079623002100F099B80EB5C10F80EA83
:10049000E0700844CA07002140F233438DE80E00A3
:1004A0000A460B4600F0C7F803B000BD00F000425A
:1004B00020F00040C10DC0F3160040F400007F2979
:1004C00001DA00207047962903DCC1F19601C8408B
:1004D00001E096398840002AF4D04042704770B558
:1004E000C1F30A5201F000450024C1F3130140F2A8
:1004F000FF3341F480119A4201DA002070BD40F2CE
:1005000033439A42A2F2334203DC524200F02BF80A
:1005100000E090402C43F1D0404270BD30B50B4616
:10052000014600202022012409E021FA02F59D4223
:1005300005D303FA02F5491B04FA02F52844151EF7
:10054000A2F10102F1DC30BD202A04DB203A00FADE
:1005500002F1002070479140C2F1200320FA03F31A
:10056000194390407047202A04DB203A21FA02F018
:100570000021704721FA02F3D040C2F120029140DD
:10058000084319467047202A06DBCB17203A41FA68
:1005900002F043EAE07306E041FA02F3D040C2F110
:1005A000200291400843194670470029A8BF7047B0
:1005B000401C490008BF20F00100704710B4B0FA99
:1005C00080FC00FA0CF050EA010404BF10BC704734
:1005D00049B1CCF1200421FA04F411FA0CF118BF4E
:1005E000012121430843A3EB0C01CB1D4FEA00611D
:1005F0004FEA102042BF002010BC704700EBC350F0
:1006000010440029A4BF10BC7047401C490008BF1B
:1006100020F0010010BC704710B5141E73F10004E7
:1006200008DA401C41F1000192185B411A4301D1E4
:1006300020F0010010BD2DE9F04D92469B4611B10E
:10064000B1FA81F202E0B0FA80F220329046FFF770
:100650007BFF04460F4640EA0A0041EA0B0153467D
:100660005A46084313D0114653EA010019D0C8F185
:1006700040025046FFF777FF05460E465046594662
:100680004246FFF761FF084305D0012004E0204601
:100690003946BDE8F08D0020054346EAE0762C435C
:1006A00037430A986305E40AA0EB08000022FD0A1C
:1006B00044EA47540A3002D500200146E9E7010523
:1006C00010196941DDE9084500196941BDE8F04D9F
:1006D000A2E70000064C074D06E0E06840F0010389
:1006E00094E8070098471034AC42F6D3FFF724FD96
:1006F000A0290008C029000800BFFEE710B500F0DF
:100700000DF900F0CBF800F077F800F0C5FE10BD51
:10071000704710B500F0FAFCA02000F041FD04463F
:1007200000F018FD204610BD70B5044600BFFFF76D
:10073000F0FF0028FBD100F0E9FCE10901F0FE0127
:1007400041F0A00000F02CFDE0B200F029FD00F027
:10075000DDFCC4F3C71141F0A10000F021FD002031
:1007600000F094FC054600F0F5FC284670BD70B51D
:1007700004460D4600BFFFF7CCFF0028FBD100F078
:10078000C5FCE10901F0FE0141F0A00000F008FD08
:10079000E0B200F005FD284600F002FD00F0DAFCB2
:1007A00070BD70B50020FFF7BFFF04460120FFF7C2
:1007B000BBFF054605EB042086B2304670BD000045
:1007C00010B5044609480088000A0949087007481E
:1007D000007808490870064801780020FFF7C7FF35
:1007E000044801780120FFF7C2FF10BD340000204B
:1007F000C6000020C700002010B50121092000F02C
:1008000047FF4FF440401349088003208870482078
:10081000C870114800F02AFB0E21012000F006FBF1
:100820000F21012000F002FB4FF4004000F000F91E
:100830004FF4804000F0FCF80020084908714FF4A4
:10084000404008600820487101208871084600F087
:1008500009F910BD04000020000C01400800002030
:1008600010B54FF4004000F0E9F830B14FF400400B
:1008700000F0DEF80120074908704FF4804000F0D6
:10088000DDF830B14FF4804000F0D2F80120024989
:10089000087010BD210000202300002010B50121A8
:1008A000052000F0F5FE10200E4908800320887016
:1008B0004820C8700C4800F0D9FA0421002000F04C
:1008C000B5FA102000F0B4F8002008490871102093
:1008D00008600C20487101208871084600F0C2F8B9
:1008E00010BD0000040000200008014008000020A6
:1008F00010B5102000F0A2F858B1102000F098F8C0
:10090000044800881E3003490880084600880249D0
:10091000088010BDC40000203400002010B5012163
:10092000052000F0B5FE20202449088003208870AF
:100930004820C870224800F099FA0521002000F0F4
:1009400075FA202000F074F800201E49087120205C
:1009500008600C20487101208871084600F082F878
:100960000121092000F094FE4FF4407013490880E3
:10097000032088704820C870134800F077FA0821D7
:10098000012000F053FA0921012000F04FFA4FF442
:10099000807000F04DF84FF4007000F049F800202E
:1009A000084908714FF4407008600C20487101201C
:1009B0008871084600F056F810BD000004000020C1
:1009C0000008014008000020000C014010B5202064
:1009D00000F034F858B1202000F02AF810480088C0
:1009E0001E380F490880084600880E4908804FF4D9
:1009F000807000F023F830B14FF4807000F018F8E8
:100A00000120094908704FF4007000F017F830B168
:100A10004FF4007000F00CF801200449087010BD7C
:100A2000C400002034000020250000202400002005
:100A3000014908607047000014040140014600208D
:100A40000022074B1B6803EA0102054B14331B68A5
:100A50000B4013B10AB1012000E0002070470000F4
:100A600000040140002123498279002A3AD00A4635
:100A7000126803689A430B461A600A1D12680368DD
:100A80009A430B1D1A60027911440A6803681A43DD
:100A90000A60184A0832126803689A43154B0833F3
:100AA0001A601A1D126803689A43124B0C331A60BD
:100AB0004279102A0ED11A1F126803681A430D4B8F
:100AC00008331A601A1D126803681A43094B0C3365
:100AD0001A600DE00749427911440A6803681A4315
:100AE0000A6005E0027911440A6803689A430A60C3
:100AF000704700000004014010B500F005F800F058
:100B000047F800F015F810BD10B50121042000F0E1
:100B1000BFFDC020044908804820C87003208870A9
:100B2000024800F0A3F910BD0400002000080140B5
:100B300010B5154801F08CF80121042000F088FD63
:100B4000002012494880C8806320888041F61F40F9
:100B50000880002008720C4801F08CFA01210A4834
:100B600001F05AF80021084801F055FA0122114617
:100B7000054801F0EDF90121034801F059F8012180
:100B8000014801F058F810BD00080040CC000020DA
:100B900010B50121022000F05BFD00201949C8803A
:100BA00048804FF6FF70888001200880002008727E
:100BB000154801F05FFA0420144908800020C8801D
:100BC000022048800F200881012088800E4801F013
:100BD00069F902231A4601210B4801F02DF9002181
:100BE000094801F018FA0121074801F024F8012111
:100BF000054801F01DF801221146034801F0A8F94B
:100C000010BD0000CC00002000040040E6000020E1
:100C100010B5204801F031F91F4909684FF48032BE
:100C200002FB01001D49088009881D4A1288881AA4
:100C3000FFF722FC0446FFF739FC00B2194908808F
:100C40000846B0F90000002804DD0846B0F90000AD
:100C500008800EE01348B0F90000002806DA1148B9
:100C60000088404200B20F49088002E000200D4990
:100C700008800C48B0F9000041F270714843C82167
:100C800090FBF1F008490860044800880449088096
:100C900010BD0000000400403000002028000020AB
:100CA0002A0000202C0000201000002070B504460F
:100CB0001948007801282DD1002017490870FFF746
:100CC000A7FF204600F02EF805461449284601F0FB
:100CD0004BFE134908600846006800280ADD0846F4
:100CE00000684EF66021884204DA0D49098888B20E
:100CF00000F058FD0A4800684EF66021884202DB89
:100D0000481E0749086006480068002802DC0020E9
:100D10000349086070BD000020000020360000205C
:100D2000BC0000202DE9FC4782463248C0F800A0F4
:100D300001460968304A1268881AFFF7A6FB2F4A55
:100D400003C22E482E490CC803C9FFF7B4FA2D4A36
:100D500003C22D4829490CC803C9FFF7A6FA044667
:100D60002A480CC82046FFF7A6FA06460022284B60
:100D7000FFF7A1FA274A03C2204827490CC803C934
:100D8000FFF799FA06460022244BFFF794FA04462F
:100D90000022234BFFF701FB804622480CC8404647
:100DA000FFF7E2F91F4A03C21A4816490CC803C9E3
:100DB000FFF7DAF980461B480CC84046FFF7D4F924
:100DC00004460D4618480068FFF75FFB06462246BA
:100DD0002B46FFF7C9F9CDE90001FFF780FB124967
:100DE0000860064903C9084A03C20F480068BDE805
:100DF000FC870000B800002010000020A8000020A0
:100E00007800002090000020B0000020800000202A
:100E10000000594098000020880000200000244075
:100E200000408F40A0000020C000002030B500220C
:100E30008B071C0F0F2303FA04F20B4B8C1053F893
:100E400024309343084C8D1044F8253023468C10F1
:100E500053F824308C07240F00FA04F42343024C87
:100E60008D1044F8253030BD080001402DE9F041D7
:100E7000024600250026002000230024002791F8C8
:100E800003C00CF00F0591F803C00CF0100CBCF17E
:100E9000000F03D091F802C04CEA050591F800C09C
:100EA000BCF1000F31D0146800202BE04FF0010C92
:100EB0000CFA00F3B1F800C00CEA03069E4220D100
:100EC00083004FF00F0C0CFA03F7BC4305FA03FC48
:100ED0004CEA040491F803C0BCF1280F06D14FF08E
:100EE000010C0CFA00FCC2F814C00AE091F803C02F
:100EF000BCF1480F05D14FF0010C0CFA00FCC2F810
:100F000010C0401C0828D1D31460B1F800C0BCF157
:100F1000FF0F34DD546800202EE000F1080C4FF084
:100F2000010808FA0CF3B1F800C00CEA03069E426F
:100F300021D183004FF00F0C0CFA03F7BC4305FAE4
:100F400003FC4CEA040491F803C0BCF1280F05D15E
:100F500000F1080C08FA0CF8C2F8148091F803C0EC
:100F6000BCF1480F07D100F1080C4FF0010808FA56
:100F70000CF8C2F81080401C0828CED35460BDE89D
:100F8000F081000010B50121042000F081FB042055
:100F90000B4908801820C870032088700948FFF7A3
:100FA00065FF0121102000F073FB03200449088035
:100FB0001020C870032088700348FFF757FF10BD4A
:100FC000040000200008014000100140416170470A
:100FD00001617047F8B506460C461546ADF800406D
:100FE0008DF8035003208DF8020069463046FFF764
:100FF0003DFFF8BD08B50121084600F049FB01217D
:10100000042000F045FB4FF40070ADF80000032011
:101010008DF8020018208DF8030069460848FFF794
:1010200025FF4FF48060ADF8000003208DF802002A
:1010300004208DF8030069460148FFF717FF08BD3B
:101040000008014000BFFEE710B514224FF4806194
:101050000B48FFF7BFFF14224FF400610848FFF769
:10106000B9FF012007490860052001F08DFA012031
:101070000549C1F8A801052001F086FA10BD00005D
:10108000000C0140AC8121420080214270B5054630
:101090000024042211021A48FFF79CFF002615E0E5
:1010A0000120184908600A2001F06EFA6006040E5B
:1010B0001548D0F8280108B144F001040A2001F0D5
:1010C00063FA00200F490860701CC6B2082EE7DBE7
:1010D00014224FF480610A48FFF77CFF0120094980
:1010E0000860052001F050FA0748C0F8A851052013
:1010F00001F04AFA002003490860204670BD000054
:10110000000C0140AC8121420080214210B5142224
:101110004FF480610C48FFF75DFF01200B49086028
:101120000B49C1F8AC01052001F02EFA0020074957
:101130000860052001F028FA00200549C1F8AC013B
:10114000052001F021FA10BD000C0140A8812142C8
:101150000080214210B514224FF480610D48FFF742
:1011600039FF00200C49086001200C49C1F8AC018E
:10117000052001F009FA012007490860052001F067
:1011800003FA00200549C1F8AC01052001F0FCF983
:1011900010BD0000000C0140A881214200802142C6
:1011A00070B5044614224FF480612148FFF712FF06
:1011B00000251EE004F0800018B101201D490860E0
:1011C00002E000201B4908606006040E052001F0C3
:1011D000DBF901201749091D0860052001F0D4F949
:1011E00000201549C1F8AC01052001F0CDF9681CBB
:1011F000C5B2082DDEDB042211020D48FFF7EAFE1E
:1012000001200C49091D0860052001F0BDF90A48BC
:10121000D0F82801C5B2052001F0B6F90020054933
:10122000091D0860052001F0AFF9284670BD0000D7
:10123000000C0140A88121420080214270B5024685
:101240000024002500230020958A138B1B0445EA07
:10125000030626F07F4404EA01068E4201D10120F4
:1012600000E0002070BD21B1028842F0010202803E
:1012700004E002884FF6FE731A400280704721B1E5
:10128000028842F48072028004E002884FF6FF6315
:101290001A400280704721B1028842F40072028035
:1012A00004E002884FF6FF531A40028070470000A6
:1012B0002DE9F04385B004460D460026B1460427CB
:1012C000DFF8CC80A6884FF6C0700640684600F074
:1012D000FFF9DDF808802F48B8FBF0F01FFA80F91D
:1012E00046EA0906A68020884FF6FE710840208055
:1012F00000262949286888420CD828684000B8FB95
:10130000F0F087B2042F00DA04273E4309F1010010
:10131000208427E0E8884BF6FF71884206D12868D0
:1013200000EB4000B8FBF0F087B209E0286800EB62
:10133000C00101EB0010B8FBF0F087B247F4804722
:10134000C7F30B0008B947F0010747F40040064314
:101350004FF4967009FB00F04FF47A7190FBF1F0B6
:10136000401C2084A683208840F00100208026882D
:101370004FF6F5300640A888698908430643268061
:10138000A88929890843208105B0BDE8F0830000C1
:1013900000127A0040420F00A086010010B5012122
:1013A000480500F055F90121082000F071F9C0202E
:1013B0000F490880032088701C20C8700D48FFF773
:1013C00055FD00200C4988804BF6FF70C880002036
:1013D000088148814FF480408881084808600848A7
:1013E000FFF766FF01210648FFF73DFF10BD000033
:1013F00004000020000C0140F0000020A086010045
:101400000054004012B141F0010102E04FF6FE73BA
:101410001940018270470182704700001748007828
:10142000012806D1022015490870084600781449A1
:10143000087014480078012806D10320114908706B
:10144000084600780E4908700F480078012806D138
:1014500004200D49087008460078094908700B48B7
:101460000078012806D10520084908700846007850
:1014700003490870024800787047000021000020EE
:10148000260000202500002024000020230000204A
:1014900000BFFEE77047000010B54FF4A06000F0F9
:1014A00077F81C201D4908700220487000208870C1
:1014B0000120C870084600F033F81E201749087054
:1014C0000020487088700120C870084600F028F895
:1014D0000A201249087001204870002088700120FD
:1014E000C870084600F01CF817200C49087001204D
:1014F0004870002088700120C870084600F010F87D
:1015000028200649087001204870002088700120BA
:10151000C870084600F004F810BD0000000000206C
:1015200070B5002100230F22C47804B3154C246841
:1015300004F4E064C4F5E064210AC1F10403CA4084
:10154000447804FA03F184781440214309010E4CD5
:101550000678A155047804F01F050124AC400578F5
:101560006D11AD0005F1E025C5F8004109E00478F2
:1015700004F01F050124AC40044D0678761145F8AF
:10158000264070BD0CED00E000E400E080E100E0EA
:1015900002490143024A1160704700000000FA0549
:1015A0000CED00E010B504460121084600F050F8AB
:1015B0000020134908804EF65F2088800020C880F4
:1015C00048804FF0804000F055FD60200D490880B4
:1015D00001204880002048814EF66020001B401EFC
:1015E000C8804FF0804000F0BDFC0821C80600F024
:1015F00009FD00214FF0804000F01DFB10BD0000F0
:10160000CC000020D600002010B5044600214FF089
:10161000804000F010FB60200B49088001204880CA
:10162000002048814EF66020001B401EC8804FF00D
:10163000804000F097FC0821C80600F0E3FC01217F
:10164000880700F0F8FA10BDD600002070470000AF
:1016500029B1064AD2690243044BDA6104E0034A25
:10166000D2698243014BDA617047000000100240EA
:1016700029B1064A12690243044B1A6104E0034A85
:1016800012698243014B1A6170470000001002404A
:1016900029B1064A92690243044B9A6104E0034A65
:1016A00092698243014B9A6170470000001002402A
:1016B00029B1064AD2680243044BDA6004E0034AC7
:1016C000D2688243014BDA6070470000001002408C
:1016D00030B500210022002400232D4D6D6805F057
:1016E0000C0121B1042905D0082923D105E0294D99
:1016F000056022E0274D05601FE0254D6D6805F46B
:101700007012234D6D6805F48034022505EB92427A
:101710001CB9214D554305600BE01D4D6D6805F466
:1017200000351DB11C4D5543056002E0194D554370
:10173000056002E0174D056000BF00BF144D6D68E5
:1017400005F0F0010909154D6B5C0568DD40456049
:101750000F4D6D6805F4E061090A104D6B5C45683A
:10176000DD4085600A4D6D6805F46051C90A0B4D76
:101770006B5C4568DD40C560054D6D6805F4404112
:10178000890B074D6B5CC568B5FBF3F5056130BD92
:101790000010024000127A0000093D0058000020AD
:1017A0006800002010B5044601210548FFF70EFC33
:1017B00002210348FFF70CFC2046FFF725FF10BD70
:1017C00000100140704710B5FFF7DCFB0220FFF767
:1017D000E9FE0220FFF718FF10BD10B500F002F877
:1017E00010BD00000CB50020019000903348006847
:1017F00040F480303149086000BF3048006800F490
:10180000003000900198401C0190009818B9019890
:10181000B0F5A06FF1D12948006800F4003010B194
:101820000120009001E0002000900098012843D1A1
:101830002348006840F0100021490860084600680D
:1018400020F0030008600846006840F002000860CD
:101850001A48406819494860084640684860084688
:10186000406840F4806048600846406820F47C107E
:1018700048600846406840F4E81048600846006840
:1018800040F08070086000BF0C48006800F00070F5
:101890000028F9D00948406820F003000749486053
:1018A0000846406840F00200486000BF03484068B6
:1018B00000F00C000828F9D10CBD00000010024017
:1018C0000020024010B502210548FFF77FFB0421EC
:1018D0000448FFF77BFB0020FFF796FE10BD0000D9
:1018E000001001400008014002480068401E014904
:1018F00008607047C800002010B51348006840F029
:1019000001001149086008464068104908400E4926
:101910004860084600680E4908400B4908600846C0
:10192000006820F4802008600846406820F4FE002B
:1019300048604FF41F008860FFF74FFF4FF00060D2
:101940000449086010BD0000001002400000FFF8CC
:10195000FFFFF6FE08ED00E0F0B50C46154600224C
:101960000021068C4FF6FE773E400684028B018CE8
:101970004FF60C7632407E1C06EA03162E433243A5
:10198000104EB0420ED0104EB0420BD0B0F1804F8E
:1019900008D00E4EB04205D00D4EB04202D00D4ED2
:1019A000B04206D14FF6FD76314044F00106314396
:1019B00005E04FF6F576314044F0010631430283ED
:1019C0000184F0BD002C01400034014000040040BF
:1019D00000080040000C0040F0B50C4615460022FF
:1019E00000210026078C4FF6EF7C07EA0C070784DE
:1019F000028B018C4FF6FF7707EA041640F6FF478B
:101A00003A404FF6FF7707EA03373A434FF6FF773E
:101A100007EA05273A43114FB8420ED0104FB8429B
:101A20000BD0B0F1804F08D00E4FB84205D00E4F0A
:101A3000B84202D00D4FB84206D14FF6DF77394099
:101A400046F01007394305E04FF65F77394044F020
:101A50001007394302830184F0BD0000002C0140CF
:101A6000003401400004004000080040000C004029
:101A7000F0B50C461546002200210026078C4FF6D3
:101A8000FF6C07EA0C070784828B018C4FF6FF7707
:101A900007EA04264FF60C773A404FF6FF7707EA3D
:101AA00003172F433A43114FB8420ED0104FB8429C
:101AB0000BD0B0F1804F08D00E4FB84205D00E4F7A
:101AC000B84202D00D4FB84206D14FF6FF57394009
:101AD00046F48077394305E04FF2FF57394044F42C
:101AE0008077394382830184F0BD0000002C0140DF
:101AF000003401400004004000080040000C004099
:101B0000F0B50C461546002200210026078C4EF643
:101B1000FF7C07EA0C070784828B018C4FF6FF7766
:101B200007EA043640F6FF473A404FF6FF7707EAE8
:101B300005273A434FF6FF7707EA03373A43114F39
:101B4000B8420ED0104FB8420BD0B0F1804F08D041
:101B50000E4FB84205D00E4FB84202D00D4FB842DA
:101B600006D14DF6FF77394046F48057394305E0FA
:101B700047F6FF57394044F4805739438283018444
:101B8000F0BD0000002C0140003401400004004082
:101B900000080040000C004010B50121880700F04B
:101BA0006FF940B10121880700F042F8024800684F
:101BB000401C0149086010BD4000002010B5012103
:101BC000064800F05DF940B10121044800F030F80A
:101BD00003480068401C0249086010BD0004004032
:101BE0003000002010B50121084800F049F958B133
:101BF0000121064800F01CF805480078401C044903
:101C0000087001200349087010BD00000008004062
:101C1000140000202000002021B1028842F0800240
:101C2000028004E002884FF67F731A4002807047FA
:101C3000CA430282704721B1028842F00102028049
:101C400004E002884FF6FE731A40028070470000DD
:101C500010B504466848844208D10121C014FFF73A
:101C600027FD0021E014FFF723FDC4E0B4F1804F0D
:101C700008D101210846FFF7FBFC00210120FFF7F6
:101C8000F7FCB8E05D48844208D101210220FFF74B
:101C9000EFFC00210220FFF7EBFCACE05848844247
:101CA00008D101210420FFF7E3FC00210420FFF705
:101CB000DFFCA0E05348844208D101210820FFF74F
:101CC000D7FC00210820FFF7D3FC94E04E48844263
:101CD00008D101211020FFF7CBFC00211020FFF7D5
:101CE000C7FC88E04948844208D101212020FFF741
:101CF000BFFC00212020FFF7BBFC7CE0444884426D
:101D000008D101214014FFF7D3FC00216014FFF734
:101D1000CFFC70E03F48844209D10121C804FFF79D
:101D2000C7FC00214FF40020FFF7C2FC63E03A48F3
:101D3000844209D101210805FFF7BAFC00214FF4C4
:101D40008010FFF7B5FC56E03448844209D10121E8
:101D50004805FFF7ADFC00214FF40010FFF7A8FC89
:101D600049E02F48844208D101214020FFF780FC40
:101D700000214020FFF77CFC3DE02A48844208D146
:101D800001218020FFF774FC00218020FFF770FC08
:101D900031E02548844208D101218015FFF768FC15
:101DA0000021A015FFF764FC25E02048844209D1FA
:101DB00001210804FFF77CFC00214FF48030FFF77D
:101DC00077FC18E01A48844209D101214804FFF742
:101DD0006FFC00214FF40030FFF76AFC0BE0154860
:101DE000844208D101218804FFF762FC00214FF4EE
:101DF0008020FFF75DFC10BD002C01400004004076
:101E000000080040000C004000100040001400409A
:101E100000340140004C014000500140005401409A
:101E200000180040001C004000200040004001401D
:101E30000044014000480140F0B50C4615461E46DE
:101E40000021002200230189028B038C4FF6F877D2
:101E5000394021434FF6FC473A4040F201173A43DC
:101E60004FF6DD773B404FF6FF7707EA06172F4323
:101E70003B43018102830384F0BD0146888C704797
:101E800030B50246002000230024158A05EA01032C
:101E9000958905EA010413B10CB1012000E000208E
:101EA00030BD000070B505460C46244885420ED072
:101EB000234885420BD0B5F1804F08D02148854298
:101EC00005D02148854202D02048854200D100E05B
:101ED00000BF208850B92389A28861882846FFF76F
:101EE0003BFDE188284600F098F825E0208804288A
:101EF0000AD12389A28861882846FFF76DFDE18811
:101F0000284600F093F817E0208808280AD1238992
:101F1000A28861882846FFF7ABFDE188284600F0DB
:101F200092F809E02389A28861882846FFF7E8FD36
:101F3000E188284600F090F870BD0000002C0140B8
:101F4000003401400004004000080040000C004044
:101F50001AB183890B43838102E083898B43838198
:101F60007047000070B5002400220023058C4FF656
:101F7000FF6635400584028C8388848B4FF68F750D
:101F80002C404FF6FC752C400D882C434FF6FF5526
:101F90002A400D894FF6FF7606EA05252A434D882B
:101FA00006EA05252A43154DA84202D0144DA84241
:101FB0001DD14FF2FF752A404D894FF6FF7606EA94
:101FC00005252A434FF6FF352A408D8806EA052568
:101FD0002A434EF6FF752B404DF6FF752B408D8939
:101FE00006EA05152B43CD8906EA05152B438380A8
:101FF0008483CD888587028470BD0000002C014059
:10200000003401400A460021818B4FF6F7731940D6
:1020100011438183704781847047028B4FF6F373BD
:102020001A400283028B0A4302837047028B4FF2ED
:10203000FF331A400283028B4FF6FF7303EA01233A
:102040001A4302837047828B4FF6F3731A408283E0
:10205000828B0A4382837047828B4FF2FF331A4090
:102060008283828B4FF6FF7303EA01231A43828334
:1020700070470000002202881D4B98420ED01D4B75
:1020800098420BD0B0F1804F08D01B4B984205D03E
:102090001A4B984202D01A4B984204D14FF68F73D4
:1020A0001A404B881A43174B984207D0164B984258
:1020B00004D04FF6FF431A40CB881A4302808B8826
:1020C00083850B8803850A4B98420BD0094B9842B5
:1020D00008D00E4B984205D00D4B984202D00D4BC4
:1020E000984201D10B7A0386012383827047000056
:1020F000002C014000340140000400400008004072
:10210000000C00400010004000140040004001405E
:10211000004401400048014001F40072B2F5007F24
:1021200000D100BFCA430280704721B1828942F4C6
:102130000052828104E082894DF6FF731A40828149
:102140007047000010B5FEF755FF024800F0E4F8B4
:1021500010BD00000038014010B5044620488442FC
:1021600009D101218803FFF7A3FA00214FF4804031
:10217000FFF79EFA32E01B48844209D1012148044E
:10218000FFF776FA00214FF40030FFF771FA25E0EF
:102190001548844209D101218804FFF769FA00211A
:1021A0004FF48020FFF764FA18E01048844209D108
:1021B0000121C804FFF75CFA00214FF40020FFF76B
:1021C00057FA0BE00A48844208D101210805FFF7BD
:1021D0004FFA00214FF48010FFF74AFA10BD0000BB
:1021E000003801400044004000480040004C0040DE
:1021F00000500040F0B503460024002600250020D2
:1022000040F66A17B94200D100BF1846C1F3421424
:1022100001F01F06012707FA06F5012C01D10C3049
:1022200004E0022C01D1103000E014301AB107682C
:102230002F43076002E00768AF430760F0BD00006E
:102240002DE9F04786B005460E460024A24600BFA1
:10225000A1460027B08900B100BF2F462C8A4CF65A
:10226000FF700440F08804432C82AC894EF6F310D2
:102270000440B08831890843718908430443AC8124
:10228000AC8A4FF6FF400440B0890443AC8201A8F9
:10229000FFF71EFA1F48874202D1DDF810A001E0C7
:1022A000DDF80CA0A88900F4004040B10AEBCA0098
:1022B00000EB0A1031684900B0FBF1F807E00AEBC7
:1022C000CA0000EB0A1031688900B0FBF1F8642005
:1022D000B8FBF0F004012009642101FB1089A889F2
:1022E00000F4004040B1322000EBC900B0FBF1F037
:1022F00000F00700044308E0322000EB09106421DD
:10230000B0FBF1F000F00F0004432C8106B0BDE8F3
:10231000F0870000003801401FB50446244884427D
:1023200004D101218803FFF793F90EE0214884428C
:1023300004D101214804FFF78BF906E01E488442CE
:1023400003D101218804FFF783F92046FFF704FF3A
:102350004FF4E13000900020ADF80C000C20ADF8F7
:102360000A000020ADF80800ADF80600ADF8040042
:1023700069462046FFF764FF40F225512046FFF7EB
:10238000CBFE40F227712046FFF7C6FE012240F245
:1023900025512046FFF72EFF012240F227712046EB
:1023A000FFF728FF01212046FFF7BFFE1FBD0000F9
:1023B00000380140004400400048004000BFFEE7F4
:1023C0000FB4084B10B504A902AA039800F01CF83A
:1023D000044602A9002000F0C1F8204610BC5DF8B8
:1023E00014FB00005D25000802E008C8121F08C1A8
:1023F000002AFAD170477047002001E001C1121F86
:10240000002AFBD1704700002DE9FF4F89B09B46A1
:102410000446002506E025280BD05A460B99904724
:10242000641C6D1C20780028F5D10DB02846BDE84D
:10243000F08F0027B8460122474900E0074314F80F
:10244000013F203B02FA03F00842F7D120782E2802
:1024500019D114F8010F47F004072A280ED06FF0A5
:102460002F022078A0F1300109290CD808EB88014F
:1024700002EB410100EB0108641CF2E70A98641CBE
:1024800050F8048B0A9020780028CED0642808D019
:10249000692806D075281ED05A460B9990476D1CA6
:1024A00058E00A994FF00A0901C90A91002802DA96
:1024B00040422D2102E0390504D52B218DF8201052
:1024C000012103E0F90704D02021F7E78A4608AE8E
:1024D0000DE00021FAE70A994FF00A0901C90A91B3
:1024E000F7E74946FEF71AF8303106F8011D0028D3
:1024F000F7D1ADEB060000F12009780701D44FF0C9
:102500000108C84502DDA8EB090000E00020804674
:10251000002706E008A85A46C05D0B9990476D1C3D
:102520007F1C5745F6DB04E030205A460B99904754
:102530006D1CB8F10001A8F10108F5DC05E016F802
:10254000010B5A460B9990476D1CB9F10001A9F196
:102550000109F4DC641C65E7092801000A68531CC2
:102560000B601070704701B581B00020009042F6FA
:102570003C0101984843009002E00098401E009002
:1025800000980028F9D10CBD01B581B00020009061
:10259000019800EB400101EBC000009002E00098C0
:1025A000401E009000980028F9D10CBDF8B50446F3
:1025B000002504F0F006F02000EA041746F00400BD
:1025C0008DF800008DF8016047F004008DF80200DE
:1025D00047F008008DF8030000BF05E01DF8050076
:1025E00000F028F8681CC5B2042DF7DBF8BDF8B57B
:1025F0000446002504F0F006F02000EA041746F037
:102600000D008DF8000046F009008DF8010047F03C
:102610000D008DF8020047F009008DF8030000BF9F
:1026200005E01DF8050000F005F8681CC5B2042D92
:10263000F7DBF8BD10B5044601211348FEF71FFE75
:1026400000BF12491048FEF7F9FD0028F9D000221A
:102650007E210D48FEF7D6FE00BF0D490A48FEF761
:10266000EDFD0028F9D021460748FEF7D4FE00BF53
:102670000749891C0448FEF7E1FD0028F8D0012134
:102680000148FEF708FE10BD0054004001000300A1
:102690008200070070B504460D46012C04D104F1F8
:1026A0007F002844C6B204E005F14000C0B240F00B
:1026B00080063046FFF77AFF70BD10B53320FFF774
:1026C00075FF0A20FFF74FFF3220FFF76FFF322020
:1026D000FFF749FF2820FFF769FF3220FFF743FF8C
:1026E0000120FFF763FF3220FFF73DFF0620FFF7D1
:1026F0005DFF3220FFF737FF0C20FFF757FF322036
:10270000FFF731FF0220FFF751FF3220FFF72BFFC9
:1027100010BD10B5044603E014F8010BFFF767FF86
:1027200020780028F8D110BD744800684FF47A7200
:10273000B0FBF2F1B1F1807F00D31DE021F07F40CA
:10274000401E4FF0E022506150170F22002807DA98
:1027500013071D0E6A4B00F00F04241F1D5503E0E4
:1027600013071C0E674B1C5400BF00204FF0E022E3
:1027700090610720106100BFFEF710FEFFF7E2FC3A
:10278000FEF762FCFFF71FF8FEF7B6F9FDF7B6FF9C
:10279000B2E05D480068062813D2DFE800F0032E9F
:1027A00036456598FEF73AFE5849087008460078A5
:1027B000022807D156480088FEF778FA04205249CB
:1027C000086098E051480078032803D102204E4960
:1027D000086090E04D480078042803D103204A495E
:1027E000086088E049480078052802D1FFF76AF8B8
:1027F00081E00420444908607DE046480088FEF7F7
:1028000055FA04204049086075E042480088FDF709
:10281000D7FF12210120FFF73DFF3FA0FFF779FF0F
:1028200004203949086066E0FDF7BBFF384908809D
:1028300008460088374908800846028837A138488A
:10284000FFF7BEFD0C210120FFF724FF35A0FFF7A5
:1028500060FF0C210120FFF71DFF3148FFF759FFF2
:1028600001202949086046E000E003E02E48007896
:102870000A28FADC00BF2748028828A12B48FFF766
:102880009FFD0C210120FFF705FF29A0FFF741FF65
:102890000C210120FFF7FEFE2448FFF73AFF2648EF
:1028A0001EA102682548FFF78BFD0C210220FFF7CF
:1028B000F1FE23A0FFF72DFF0C210220FFF7EAFE17
:1028C0001E48FFF726FF00200F49086013E0FFF7BE
:1028D000F4FE00210120FFF7DDFE1DA0FFF719FF28
:1028E00000210220FFF7D6FE1CA0FFF712FF0020F8
:1028F0000549086000BF00BF4BE70000440000200E
:1029000018ED00E000E400E01C00002022000020A0
:10291000C4000020340000202A00000025640000CC
:102920006001002020202000140000201001002061
:10293000202020200000000010000020380100208E
:102940002020202020202020202020200000000007
:10295000534554205350454544203A005245414C7C
:102960002053504545443A0070B5044600250020E8
:10297000072206E0561E31F8166021F81260561E36
:10298000F2B2002AF6DC0C80002304E031F8136078
:1029900035445E1CF3B2082BF8DBE80870BD00007C
:1029A000C029000800000020CC000000E823000837
:1029B0008C2A0008CC000020B4040000F823000892
:1029C0000000000000000000000000000000000007
:1029D00000000000000000000000000005000000F2
:1029E00000000000000000000000000000000000E7
:1029F00000000000000000000000000000000000D7
:102A00000000000000A24A040000000000000000D6
:102A10000102030406070809000000000102030484
:102A2000010203040607080902040608000000006A
:102A30000000000000000000666666666666E63F0D
:102A4000333333333333D33F2D431CEBE2361A3F5A
:102A50000000000000000000000000000000000076
:102A60000000000000000000000000000000000066
:102A70000000000000000000000000000000000056
:0C2A800000000000C20100000000000087
:0400000508000131BD
:00000001FF
