:020000040800F2
:100000006005002001010008AD130008310F000851
:1000100061130008A90600085D2200080000000026
:10002000000000000000000000000000B116000801
:10003000AD06000800000000591500089D170008D3
:100040001B0100081B0100081B0100081B01000820
:100050001B0100081B0100081B0100081B01000810
:100060001B0100081B010008610800081B010008B3
:100070001B0100081B0100081B0100081B010008F0
:100080001B0100081B0100081B0100081B010008E0
:100090001B0100081B0100081B0100083D090008A6
:1000A0001B0100081B0100081B0100081B010008C0
:1000B0004D1A0008711A0008991A00081B0100085F
:1000C0001B0100081B0100081B0100081B010008A0
:1000D0001B0100081B0100081B0100081B01000890
:1000E000ED0700081B0100081B010008DFF80CD019
:1000F00000F0C8FA00480047C92500086005002044
:100100000648804706480047FEE7FEE7FEE7FEE7B1
:10011000FEE7FEE7FEE7FEE7FEE7FEE7AD170008B5
:10012000ED0000082DE9FE4F804681EA0300C00F74
:100130000C46009021F0004123F00045B8EB02008E
:10014000A94105D24046214690461C460B46024630
:1001500023F00040104347D0270DC7F30A00C3F334
:100160000A510290401A019040286BDAC3F3130041
:1001700040F4801B0098924620B10023D2EB030A82
:1001800063EB0B0B01985946C0F14002504600F05A
:10019000B4F906460D4650465946019A00F0CCF98E
:1001A00010EB08006141002487EA115284EAE773EA
:1001B0001A4340D0009A62B3019A012A4FEA0752CB
:1001C00015DC001B61EB02014FF0004202EA07520E
:1001D000CDE90042001C41F5801132462B4600F06B
:1001E00003FA03B0BDE8F08F40462146F9E7001B53
:1001F00061EB0201001C41F5801300185B412018DF
:10020000A2F5001747EB030140EAD570B6196D411E
:1002100011E06D084FEA360645EAC0754FEA07520D
:10022000001B61EB0201001C41F5801149084FEAF7
:1002300030000019514132462B4603B0BDE8F04F63
:1002400000F0C3B90098012240000023D0EB020265
:1002500063EBE073009821464FEAE074B8EB0000CE
:1002600061EB0401E9E783F000435BE781F00041C3
:1002700058E72DE9FE4F81EA030404F0004421F021
:10028000004100944FF0000B23F0004350EA0104BA
:100290005ED052EA03045BD0C3F30A54C1F30A559B
:1002A0002C44A4F2F3340194A0FB0254C1F31301D3
:1002B00041F48011C3F3130343F4801301FB0244A0
:1002C00000FB034E840A970A44EA815447EA8357A5
:1002D000A4FB076802958D0A05FB07854FEA932C5E
:1002E00004FB0C542705029D4FEA065847EA1637CF
:1002F000B5EB08056EEB070C870E920E47EA8117E7
:1003000042EA8312A7FB0201B6EB0B0164EB000487
:100310002B0D43EA0C335E1844EB1C50DA46514671
:10032000E7FB0201C5F313044FEA0B3343EA14530E
:100330004FEA0432019C43EA0603A4F10C04029440
:10034000009CCDE900B400F04FF903B0BDE8F08F98
:1003500000200146F9E72DE9F04D81EA030404F09D
:10036000004B21F0004514464FF0000A23F00041F5
:1003700050EA050220D054EA01021DD0C5F30A5705
:100380000246C5F31303C1F31300C1F30A5640F448
:10039000801543F48013A7EB0608101BD64608F21D
:1003A000FD3873EB050002D308F1010801E0921853
:1003B0005B41B8F1000F03DA00200146BDE8F08D83
:1003C00000204FF48011064684460EE0171B73EBA5
:1003D000050705D3121B63EB050306434CEA010C2A
:1003E00049084FEA300092185B4150EA0107EDD10D
:1003F00052EA030012D082EA040083EA05010843AE
:1004000005D0101BAB4106D20122002306E00022DA
:100410004FF0004302E06FF0010253101AEB0600A8
:100420004CEB085110EB0A0041EB0B01BDE8F04D1D
:1004300000F0CBB8C10F80EAE0700844CA079623E9
:10044000002100F094B80EB5C10F80EAE0700844B6
:10045000CA07002140F233438DE80E000A460B46DE
:1004600000F0C2F803B000BD20F00040C10DC0F3A1
:10047000160040F400007F2901DA00207047962919
:1004800003DCC1F19601C840704796398840704737
:1004900070B5C1F30A5201F000450024C1F3130105
:1004A00040F2FF3341F480119A4201DA002070BD1E
:1004B00040F233439A42A2F2334203DC524200F04C
:1004C0002BF800E090402C43F1D0404270BD30B595
:1004D0000B46014600202022012409E021FA02F502
:1004E0009D4205D303FA02F5491B04FA02F528449C
:1004F000151EA2F10102F1DC30BD202A04DB203AF6
:1005000000FA02F1002070479140C2F1200320FA66
:1005100003F3194390407047202A04DB203A21FA64
:1005200002F00021704721FA02F3D040C2F120020C
:100530009140084319467047202A06DBCB17203A22
:1005400041FA02F043EAE07306E041FA02F3D040D8
:10055000C2F1200291400843194670470029A8BF04
:100560007047401C490008BF20F00100704710B4DC
:10057000B0FA80FC00FA0CF050EA010404BF10BC91
:10058000704749B1CCF1200421FA04F411FA0CF1BE
:1005900018BF012121430843A3EB0C01CB1D4FEAF7
:1005A00000614FEA102042BF002010BC704700EBF2
:1005B000C35010440029A4BF10BC7047401C490020
:1005C00008BF20F0010010BC704710B5141E73F175
:1005D000000408DA401C41F1000192185B411A4303
:1005E00001D120F0010010BD2DE9F04D92469B464F
:1005F00011B1B1FA81F202E0B0FA80F220329046F5
:10060000FFF77BFF04460F4640EA0A0041EA0B0170
:1006100053465A46084313D0114653EA010019D0F5
:10062000C8F140025046FFF777FF05460E46504698
:1006300059464246FFF761FF084305D0012004E018
:1006400020463946BDE8F08D0020054346EAE076B5
:100650002C4337430A986305E40AA0EB0800002204
:10066000FD0A44EA47540A3002D500200146E9E772
:10067000010510196941DDE9084500196941BDE826
:10068000F04DA2E7064C074D06E0E06840F001039C
:1006900094E8070098471034AC42F6D3FFF72AFDE0
:1006A0001C2800083C28000800BFFEE7704710B572
:1006B00000F0A2FCA02000F0E9FC044600F0C0FC21
:1006C000204610BD70B5044600BFFFF7F0FF0028BC
:1006D000FBD100F091FCE10901F0FE0141F0A00026
:1006E00000F0D4FCE0B200F0D1FC00F085FCC4F3D3
:1006F000C71141F0A10000F0C9FC002000F03CFC53
:10070000054600F09DFC284670BD70B504460D46B8
:1007100000BFFFF7CCFF0028FBD100F06DFCE10922
:1007200001F0FE0141F0A00000F0B0FCE0B200F0EA
:10073000ADFC284600F0AAFC00F082FC70BD70B54C
:100740000020FFF7BFFF04460120FFF7BBFF05466F
:1007500005EB042086B2304670BD000010B504469B
:1007600009480088000A09490870074800780849C4
:100770000870064801780020FFF7C7FF0448017899
:100780000120FFF7C2FF10BD3400002060000020F0
:100790006100002010B50121092000F0FFFE4FF498
:1007A00000400F490880032088704820C8700D4819
:1007B00000F0FAFA0F21012000F0D6FA4FF40040C1
:1007C00000F0EEF84FF4004007490860002008717F
:1007D0000120887108204871084600F0FBF810BD20
:1007E00004000020000C01400800002010B54FF468
:1007F000004000F0DBF830B14FF4004000F0D0F8DA
:1008000001200149087010BD2100002010B5012110
:10081000052000F0C3FE10200E49088003208870D8
:100820004820C8700C4800F0BFFA0421002000F0F6
:100830009BFA102000F0B4F800200849087110203D
:1008400008600C20487101208871084600F0C2F849
:1008500010BD000004000020000801400800002036
:1008600010B5102000F0A2F858B1102000F098F850
:10087000044800883230034908800846008802494D
:10088000088010BD620000203400002010B5012156
:10089000052000F083FE2020244908800320887072
:1008A0004820C870224800F07FFA0521002000F09F
:1008B0005BFA202000F074F800201E490871202007
:1008C00008600C20487101208871084600F082F809
:1008D0000121092000F062FE4FF4407013490880A6
:1008E000032088704820C870134800F05DFA082182
:1008F000012000F039FA0921012000F035FA4FF407
:10090000807000F04DF84FF4007000F049F80020BE
:10091000084908714FF4407008600C2048710120AC
:100920008871084600F056F810BD00000400002051
:100930000008014008000020000C014010B52020F4
:1009400000F034F858B1202000F02AF81048008850
:1009500032380F490880084600880E4908804FF455
:10096000807000F023F830B14FF4807000F018F878
:100970000120094908704FF4007000F017F830B1F9
:100980004FF4007000F00CF801200449087010BD0D
:1009900062000020340000202500002024000020F8
:1009A000014908607047000014040140014600201E
:1009B0000022074B1B6803EA0102054B14331B6836
:1009C0000B4013B10AB1012000E000207047000085
:1009D00000040140002123498279002A3AD00A46C6
:1009E000126803689A430B461A600A1D126803686E
:1009F0009A430B1D1A60027911440A6803681A436E
:100A00000A60184A0832126803689A43154B083383
:100A10001A601A1D126803689A43124B0C331A604D
:100A20004279102A0ED11A1F126803681A430D4B1F
:100A300008331A601A1D126803681A43094B0C33F5
:100A40001A600DE00749427911440A6803681A43A5
:100A50000A6005E0027911440A6803689A430A6053
:100A6000704700000004014010B50121042000F08F
:100A700095FDC020044908804820C8700320887074
:100A8000024800F091F910BD040000200008014068
:100A900010B51D4801F04BF91C4909684FF480322C
:100AA00002FB01001A49088009881A4A1288881A2C
:100AB000FFF7C0FC0446FFF7D7FC1749088008463B
:100AC0000088002803DD0846008808800CE01248F2
:100AD0000088002805DA1048008840420E49088046
:100AE00002E000200C4908800B48008841F2707138
:100AF0004843C82190FBF1F0084908600448008889
:100B00000449088010BD00000004004030000020AF
:100B1000280000202A0000202C00002010000020C7
:100B200010B5154800F0EEFF0121042000F016FD7D
:100B3000002012494880C8806320888041F61F4009
:100B40000880002008720C4801F0EEF901210A48E3
:100B500000F0BCFF0021084801F0B7F9012211465E
:100B6000054801F04FF90121034800F0BBFF0121C6
:100B7000014800F0BAFF10BD00080040B800002096
:100B800010B50121022000F0E9FC00201949C880BD
:100B900048804FF6FF70888001200880002008728E
:100BA000154801F0C1F90420144908800020C880CC
:100BB000022048800F200881012088800E4801F023
:100BC000CBF802231A4601210B4801F08FF80021CF
:100BD000094801F07AF90121074800F086FF012158
:100BE000054800F07FFF01221146034801F00AF991
:100BF00010BD0000B800002000040040D20000201A
:100C000010B5044606480078012807D100200449A1
:100C10000870FFF73DFF204600F004F810BD00000B
:100C2000200000202DE9FC4782464148C0F800A082
:100C3000014609683F4A1268881AFFF704FC3E4AD9
:100C400003C23D483D490CC803C9FFF712FB3C4AAB
:100C500003C23C4838490CC803C9FFF704FB0446EB
:100C600039480CC82046FFF704FB06460022374BE4
:100C7000FFF7FFFA364A03C22F4836490CC803C9AA
:100C8000FFF7F7FA06460022334BFFF7F2FA044665
:100C90000022324BFFF75FFB804631480CC84046CC
:100CA000FFF740FA2E4A03C2294825490CC803C958
:100CB000FFF738FA80462A480CC84046FFF732FA58
:100CC00004460D4627480068FFF7BDFB064622464E
:100CD0002B46FFF727FACDE90001FFF7D9FB2149A1
:100CE00008601548D0E90010164AC2E900101D48F6
:100CF000006800280ADD1B48006843F698218842F6
:100D000004DA1849098888B200F006FC1548006822
:100D100043F69821884202DB481E124908601148B8
:100D20000068002802DC00200E490860BDE8FC874E
:100D3000B000002010000020A00000207000002063
:100D400088000020A8000020780000200000594002
:100D500090000020800000200000244000408F40D0
:100D600098000020B400002030B500228B071C0F33
:100D70000F2303FA04F20B4B8C1053F824309343E7
:100D8000084C8D1044F8253023468C1053F824303D
:100D90008C07240F00FA04F42343024C8D1044F80E
:100DA000253030BD080001402DE9F0410246002504
:100DB0000026002000230024002791F803C00CF037
:100DC0000F0591F803C00CF0100CBCF1000F03D01C
:100DD00091F802C04CEA050591F800C0BCF1000F83
:100DE00031D0146800202BE04FF0010C0CFA00F316
:100DF000B1F800C00CEA03069E4220D183004FF0F8
:100E00000F0C0CFA03F7BC4305FA03FC4CEA04048C
:100E100091F803C0BCF1280F06D14FF0010C0CFA79
:100E200000FCC2F814C00AE091F803C0BCF1480FFE
:100E300005D14FF0010C0CFA00FCC2F810C0401CA8
:100E40000828D1D31460B1F800C0BCF1FF0F34DD25
:100E5000546800202EE000F1080C4FF0010808FA59
:100E60000CF3B1F800C00CEA03069E4221D18300C6
:100E70004FF00F0C0CFA03F7BC4305FA03FC4CEAE5
:100E8000040491F803C0BCF1280F05D100F1080C4F
:100E900008FA0CF8C2F8148091F803C0BCF1480FAE
:100EA00007D100F1080C4FF0010808FA0CF8C2F85D
:100EB0001080401C0828CED35460BDE8F081F8B5FE
:100EC00006460C461546ADF800408DF80350032049
:100ED0008DF8020069463046FFF766FFF8BD000056
:100EE00008B50121084600F059FB0121042000F05B
:100EF00055FB4FF40070ADF8000003208DF80200A0
:100F000018208DF8030069460848FFF74DFF4FF49D
:100F10008060ADF8000003208DF8020004208DF8F9
:100F2000030069460148FFF73FFF08BD0008014084
:100F300000BFFEE710B514224FF480610B48FFF7A5
:100F4000BEFF14224FF400610848FFF7B8FF0120EC
:100F500007490860052001F067FA01200549C1F83A
:100F6000A801052001F060FA10BD0000000C01404E
:100F7000AC8121420080214270B505460024042244
:100F800011021A48FFF79BFF002615E001201849BF
:100F900008600A2001F048FA6006040E1548D0F8EF
:100FA000280108B144F001040A2001F03DFA0020B4
:100FB0000F490860701CC6B2082EE7DB14224FF4FC
:100FC00080610A48FFF77BFF01200949086005207E
:100FD00001F02AFA0748C0F8A851052001F024FAC8
:100FE000002003490860204670BD0000000C01404D
:100FF000AC8121420080214210B514224FF480615F
:101000000C48FFF75CFF01200B4908600B49C1F851
:10101000AC01052001F008FA00200749086005200E
:1010200001F002FA00200549C1F8AC01052001F0E9
:10103000FBF910BD000C0140A88121420080214233
:1010400010B514224FF480610D48FFF738FF0020DF
:101050000C49086001200C49C1F8AC01052001F0E1
:10106000E3F9012007490860052001F0DDF90020BF
:101070000549C1F8AC01052001F0D6F910BD00000A
:10108000000C0140A88121420080214270B5044635
:1010900014224FF480612148FFF711FF00251EE064
:1010A00004F0800018B101201D49086002E0002012
:1010B0001B4908606006040E052001F0B5F9012007
:1010C0001749091D0860052001F0AEF900201549F7
:1010D000C1F8AC01052001F0A7F9681CC5B2082DC4
:1010E000DEDB042211020D48FFF7E9FE01200C4966
:1010F000091D0860052001F097F90A48D0F8280179
:10110000C5B2052001F090F900200549091D0860CD
:10111000052001F089F9284670BD0000000C01404F
:10112000A88121420080214270B50246002400259A
:1011300000230020958A138B1B0445EA030626F042
:101140007F4404EA01068E4201D1012000E0002024
:1011500070BD21B1028842F00102028004E00288E1
:101160004FF6FE731A400280704721B1028842F4A4
:101170008072028004E002884FF6FF631A4002800A
:10118000704721B1028842F40072028004E00288B4
:101190004FF6FF531A400280704700002DE9F043DC
:1011A00085B004460D460026B1460427DFF8CC8002
:1011B000A6884FF6C0700640684600F00FFADDF8CA
:1011C00008802F48B8FBF0F01FFA80F946EA0906BC
:1011D000A68020884FF6FE7108402080002629490D
:1011E000286888420CD828684000B8FBF0F087B225
:1011F000042F00DA04273E4309F10100208427E090
:10120000E8884BF6FF71884206D1286800EB400061
:10121000B8FBF0F087B209E0286800EBC00101EBF1
:101220000010B8FBF0F087B247F48047C7F30B001B
:1012300008B947F0010747F4004006434FF49670A1
:1012400009FB00F04FF47A7190FBF1F0401C208410
:10125000A683208840F00100208026884FF6F530D4
:101260000640A8886989084306432680A8892989F9
:101270000843208105B0BDE8F083000000127A0029
:1012800040420F00A086010010B50121480500F082
:1012900065F90121082000F081F9C0200F4908807C
:1012A000032088701C20C8700D48FFF77DFD0020CA
:1012B0000C4988804BF6FF70C88000200881488167
:1012C0004FF480408881084808600848FFF766FFAF
:1012D00001210648FFF73DFF10BD0000040000207B
:1012E000000C0140DC000020A086010000540040FA
:1012F00012B141F0010102E04FF6FE731940018284
:10130000704701827047000011480078012806D11B
:1013100002200F490870084600780E4908700E48F0
:101320000078012806D103200B4908700846007890
:101330000849087009480078012806D104200749A7
:101340000870084600780349087002480078704722
:10135000210000202600002025000020240000207D
:1013600000BFFEE710B50121042000F017F90420AA
:101370000B4908801820C870032088700948FFF7BF
:1013800013FD0121082000F009F903200449088019
:101390001020C870032088700348FFF705FD10BDBA
:1013A0000400002000080140000C014070470000CC
:1013B00010B54FF4A06000F077F81C201D490870AC
:1013C00002204870002088700120C870084600F094
:1013D00033F81E20174908700020487088700120DB
:1013E000C870084600F028F80A2012490870012049
:1013F0004870002088700120C870084600F01CF872
:1014000017200C49087001204870002088700120C6
:10141000C870084600F010F828200649087001201E
:101420004870002088700120C870084600F004F859
:1014300010BD00000000002070B5002100230F2225
:10144000C47804B3154C246804F4E064C4F5E06483
:10145000210AC1F10403CA40447804FA03F18478F4
:101460001440214309010E4C0678A155047804F07C
:101470001F050124AC4005786D11AD0005F1E02594
:10148000C5F8004109E0047804F01F050124AC40D0
:10149000044D0678761145F8264070BD0CED00E04D
:1014A00000E400E080E100E002490143024A1160EB
:1014B000704700000000FA050CED00E010B504468E
:1014C0000121084600F04AF804201149088043F63B
:1014D000972088800020C88048804FF0804000F02E
:1014E00023FD60200B4908800120488000204881AE
:1014F000601EC8804FF0804000F08EFC0821C806B6
:1015000000F0DAFC00214FF0804000F0EEFA10BD50
:10151000B8000020C200002010B5044600214FF0A2
:10152000804000F0E2FA60200A49088001204880EB
:1015300000204881601EC8804FF0804000F06CFCA5
:101540000821C80600F0B8FC0121880700F0CDFA98
:1015500010BD0000C20000207047000029B1064AFB
:10156000D2690243044BDA6104E0034AD269824340
:10157000014BDA61704700000010024029B1064AB1
:1015800012690243044B1A6104E0034A1269824360
:10159000014B1A61704700000010024029B1064A51
:1015A00092690243044B9A6104E0034A92698243C0
:1015B000014B9A61704700000010024029B1064AB1
:1015C000D2680243044BDA6004E0034AD2688243E3
:1015D000014BDA60704700000010024030B5002176
:1015E0000022002400232D4D6D6805F00C0121B16F
:1015F000042905D0082923D105E0294D056022E002
:10160000274D05601FE0254D6D6805F47012234DD0
:101610006D6805F48034022505EB92421CB9214D1A
:10162000554305600BE01D4D6D6805F400351DB197
:101630001C4D5543056002E0194D5543056002E01D
:10164000174D056000BF00BF144D6D6805F0F00137
:101650000909154D6B5C0568DD4045600F4D6D68EF
:1016600005F4E061090A104D6B5C4568DD4085605A
:101670000A4D6D6805F46051C90A0B4D6B5C4568F5
:10168000DD40C560054D6D6805F44041890B074D8F
:101690006B5CC568B5FBF3F5056130BD0010024019
:1016A00000127A0000093D004C0000205C00002080
:1016B000704710B500F002F810BD00000CB5002016
:1016C000019000903348006840F480303149086050
:1016D00000BF3048006800F4003000900198401CC2
:1016E0000190009818B90198B0F5A06FF1D1294880
:1016F000006800F4003010B10120009001E00020EB
:1017000000900098012843D12348006840F0100061
:10171000214908600846006820F003000860084678
:10172000006840F0020008601A48406819494860A3
:101730000846406848600846406840F48060486059
:101740000846406820F47C1048600846406840F431
:10175000E81048600846006840F08070086000BFEC
:101760000C48006800F000700028F9D00948406873
:1017700020F00300074948600846406840F0020036
:10178000486000BF0348406800F00C000828F9D109
:101790000CBD00000010024000200240024800681A
:1017A000401E0149086070476400002010B51348CE
:1017B000006840F00100114908600846406810497F
:1017C00008400E494860084600680E4908400B4929
:1017D00008600846006820F48020086008464068D9
:1017E00020F4FE0048604FF41F008860FFF761FF9F
:1017F0004FF000600449086010BD00000010024076
:101800000000FFF8FFFFF6FE08ED00E0F0B50C4623
:10181000154600220021068C4FF6FE773E400684D6
:10182000028B018C4FF60C7632407E1C06EA0316C2
:101830002E433243104EB0420ED0104EB0420BD069
:10184000B0F1804F08D00E4EB04205D00D4EB042E0
:1018500002D00D4EB04206D14FF6FD76314044F035
:101860000106314305E04FF6F576314044F00106BC
:10187000314302830184F0BD002C0140003401405B
:101880000004004000080040000C0040F0B50C4689
:101890001546002200210026078C4FF6EF7C07EA50
:1018A0000C070784028B018C4FF6FF7707EA0416BA
:1018B00040F6FF473A404FF6FF7707EA03373A43CF
:1018C0004FF6FF7707EA05273A43114FB8420ED08B
:1018D000104FB8420BD0B0F1804F08D00E4FB84235
:1018E00005D00E4FB84202D00D4FB84206D14FF688
:1018F000DF77394046F01007394305E04FF65F7750
:10190000394044F01007394302830184F0BD0000E0
:10191000002C014000340140000400400008004059
:10192000000C0040F0B50C461546002200210026B0
:10193000078C4FF6FF6C07EA0C070784828B018C3B
:101940004FF6FF7707EA04264FF60C773A404FF63A
:10195000FF7707EA03172F433A43114FB8420ED0DF
:10196000104FB8420BD0B0F1804F08D00E4FB842A4
:1019700005D00E4FB84202D00D4FB84206D14FF6F7
:10198000FF57394046F48077394305E04FF2FF575F
:10199000394044F48077394382830184F0BD0000EC
:1019A000002C0140003401400004004000080040C9
:1019B000000C0040F0B50C46154600220021002620
:1019C000078C4EF6FF7C07EA0C070784828B018C9C
:1019D0004FF6FF7707EA043640F6FF473A404FF6E6
:1019E000FF7707EA05273A434FF6FF7707EA033701
:1019F0003A43114FB8420ED0104FB8420BD0B0F15D
:101A0000804F08D00E4FB84205D00E4FB84202D0DA
:101A10000D4FB84206D14DF6FF77394046F4805756
:101A2000394305E047F6FF57394044F480573943BE
:101A300082830184F0BD0000002C0140003401408D
:101A40000004004000080040000C004010B50121D7
:101A5000880700F06FF940B10121880700F042F8D3
:101A600002480068401C0149086010BD6C0000205D
:101A700010B50121064800F05DF940B1012104488C
:101A800000F030F803480068401C0249086010BDAF
:101A9000000400403000002010B50121084800F08B
:101AA00049F958B10121064800F01CF805480078B2
:101AB000401C0449087001200349087010BD000053
:101AC00000080040140000202000002021B10288FE
:101AD00042F08002028004E002884FF67F731A40D1
:101AE00002807047CA430282704721B1028842F0E7
:101AF0000102028004E002884FF6FE731A40028061
:101B00007047000010B504466848844208D101219E
:101B1000C014FFF753FD0021E014FFF74FFDC4E0B0
:101B2000B4F1804F08D101210846FFF727FD0021BD
:101B30000120FFF723FDB8E05D48844208D1012170
:101B40000220FFF71BFD00210220FFF717FDACE08C
:101B50005848844208D101210420FFF70FFD0021DD
:101B60000420FFF70BFDA0E05348844208D1012177
:101B70000820FFF703FD00210820FFF7FFFC94E099
:101B80004E48844208D101211020FFF7F7FC0021C4
:101B90001020FFF7F3FC88E04948844208D1012176
:101BA0002020FFF7EBFC00212020FFF7E7FC7CE082
:101BB0004448844208D101214014FFF7FFFC002172
:101BC0006014FFF7FBFC70E03F48844209D101211B
:101BD000C804FFF7F3FC00214FF40020FFF7EEFCF0
:101BE00063E03A48844209D101210805FFF7E6FC89
:101BF00000214FF48010FFF7E1FC56E034488442A6
:101C000009D101214805FFF7D9FC00214FF400104C
:101C1000FFF7D4FC49E02F48844208D1012140203D
:101C2000FFF7ACFC00214020FFF7A8FC3DE02A486C
:101C3000844208D101218020FFF7A0FC00218020F0
:101C4000FFF79CFC31E02548844208D10121801532
:101C5000FFF794FC0021A015FFF790FC25E0204839
:101C6000844209D101210804FFF7A8FC00214FF4A8
:101C70008030FFF7A3FC18E01A48844209D1012103
:101C80004804FFF79BFC00214FF40030FFF796FC5F
:101C90000BE01548844208D101218804FFF78EFC2F
:101CA00000214FF48020FFF789FC10BD002C01407B
:101CB0000004004000080040000C004000100040FC
:101CC0000014004000340140004C0140005001402D
:101CD0000054014000180040001C0040002000405B
:101CE000004001400044014000480140F0B50C466E
:101CF00015461E460021002200230189028B038C19
:101D00004FF6F877394021434FF6FC473A4040F20E
:101D100001173A434FF6DD773B404FF6FF7707EA6E
:101D200006172F433B43018102830384F0BD014624
:101D3000888C704730B50246002000230024158AA5
:101D400005EA0103958905EA010413B10CB10120EC
:101D500000E0002030BD000070B505460C46244868
:101D600085420ED0234885420BD0B5F1804F08D074
:101D70002148854205D02148854202D0204885422D
:101D800000D100E000BF208850B92389A288618873
:101D90002846FFF73BFDE188284600F098F825E04B
:101DA000208804280AD12389A28861882846FFF761
:101DB0006DFDE188284600F093F817E02088082898
:101DC0000AD12389A28861882846FFF7ABFDE18804
:101DD000284600F092F809E02389A2886188284605
:101DE000FFF7E8FDE188284600F090F870BD00009C
:101DF000002C014000340140000400400008004075
:101E0000000C00401AB183890B43838102E083896F
:101E10008B4383817047000070B5002400220023AB
:101E2000058C4FF6FF6635400584028C8388848BD1
:101E30004FF68F752C404FF6FC752C400D882C43C7
:101E40004FF6FF552A400D894FF6FF7606EA052525
:101E50002A434D8806EA05252A43154DA84202D09B
:101E6000144DA8421DD14FF2FF752A404D894FF6FF
:101E7000FF7606EA05252A434FF6FF352A408D886E
:101E800006EA05252A434EF6FF752B404DF6FF75F1
:101E90002B408D8906EA05152B43CD8906EA0515E9
:101EA0002B4383808483CD888587028470BD0000A6
:101EB000002C0140003401400A460021818B4FF67E
:101EC000F773194011438183704781847047028BF7
:101ED0004FF6F3731A400283028B0A430283704762
:101EE000028B4FF2FF331A400283028B4FF6FF73CF
:101EF00003EA01231A4302837047828B4FF6F37380
:101F00001A408283828B0A4382837047828B4FF20E
:101F1000FF331A408283828B4FF6FF7303EA01235B
:101F20001A43828370470000002202881D4B9842AA
:101F30000ED01D4B98420BD0B0F1804F08D01B4BF8
:101F4000984205D01A4B984202D01A4B984204D1BD
:101F50004FF68F731A404B881A43174B984207D09D
:101F6000164B984204D04FF6FF431A40CB881A43D1
:101F700002808B8883850B8803850A4B98420BD09F
:101F8000094B984208D00E4B984205D00D4B984211
:101F900002D00D4B984201D10B7A03860123838234
:101FA00070470000002C0140003401400004004054
:101FB00000080040000C00400010004000140040E9
:101FC00000400140004401400048014001F400721B
:101FD000B2F5007F00D100BFCA430280704721B133
:101FE000828942F40052828104E082894DF6FF73B7
:101FF0001A4082817047000010B504462048844290
:1020000009D101218803FFF7D9FA00214FF480405C
:10201000FFF7D4FA32E01B48844209D10121480479
:10202000FFF7ACFA00214FF40030FFF7A7FA25E0E4
:102030001548844209D101218804FFF79FFA002145
:102040004FF48020FFF79AFA18E01048844209D133
:102050000121C804FFF792FA00214FF40020FFF796
:102060008DFA0BE00A48844208D101210805FFF7E8
:1020700085FA00214FF48010FFF780FA10BD0000B0
:10208000003801400044004000480040004C00403F
:1020900000500040F0B50346002400260025002033
:1020A00040F66A17B94200D100BF1846C1F3421486
:1020B00001F01F06012707FA06F5012C01D10C30AB
:1020C00004E0022C01D1103000E014301AB107688E
:1020D0002F43076002E00768AF430760F0BD0000D0
:1020E0002DE9F04786B005460E460024A24600BF03
:1020F000A1460027B08900B100BF2F462C8A4CF6BC
:10210000FF700440F08804432C82AC894EF6F31033
:102110000440B08831890843718908430443AC8185
:10212000AC8A4FF6FF400440B0890443AC8201A85A
:10213000FFF754FA1F48874202D1DDF810A001E0F2
:10214000DDF80CA0A88900F4004040B10AEBCA00F9
:1021500000EB0A1031684900B0FBF1F807E00AEB28
:10216000CA0000EB0A1031688900B0FBF1F8642066
:10217000B8FBF0F004012009642101FB1089A88953
:1021800000F4004040B1322000EBC900B0FBF1F098
:1021900000F00700044308E0322000EB091064213E
:1021A000B0FBF1F000F00F0004432C8106B0BDE855
:1021B000F0870000003801401FB5044624488442DF
:1021C00004D101218803FFF7C9F90EE021488442B8
:1021D00004D101214804FFF7C1F906E01E488442FA
:1021E00003D101218804FFF7B9F92046FFF704FF66
:1021F0004FF4E13000900020ADF80C000C20ADF859
:102200000A000020ADF80800ADF80600ADF80400A3
:1022100069462046FFF764FF40F225512046FFF74C
:10222000D5FE40F227712046FFF7D0FE012240F292
:1022300025512046FFF72EFF012240F2277120464C
:10224000FFF728FF01212046FFF7C9FE1FBD000050
:1022500000380140004400400048004000BFFEE755
:102260000FB4084B10B504A902AA039800F01CF89B
:10227000044602A9002000F0C1F8204610BC5DF819
:1022800014FB0000FD23000802E008C8121F08C16B
:10229000002AFAD170477047002001E001C1121FE7
:1022A000002AFBD1704700002DE9FF4F89B09B4603
:1022B0000446002506E025280BD05A460B99904786
:1022C000641C6D1C20780028F5D10DB02846BDE8AF
:1022D000F08F0027B8460122474900E0074314F871
:1022E000013F203B02FA03F00842F7D120782E2864
:1022F00019D114F8010F47F004072A280ED06FF007
:102300002F022078A0F1300109290CD808EB8801B0
:1023100002EB410100EB0108641CF2E70A98641C1F
:1023200050F8048B0A9020780028CED0642808D07A
:10233000692806D075281ED05A460B9990476D1C07
:1023400058E00A994FF00A0901C90A91002802DAF7
:1023500040422D2102E0390504D52B218DF82010B3
:10236000012103E0F90704D02021F7E78A4608AEEF
:102370000DE00021FAE70A994FF00A0901C90A9114
:10238000F7E74946FEF7A3F8303106F8011D0028AB
:10239000F7D1ADEB060000F12009780701D44FF02A
:1023A0000108C84502DDA8EB090000E000208046D6
:1023B000002706E008A85A46C05D0B9990476D1C9F
:1023C0007F1C5745F6DB04E030205A460B999047B6
:1023D0006D1CB8F10001A8F10108F5DC05E016F864
:1023E000010B5A460B9990476D1CB9F10001A9F1F8
:1023F0000109F4DC641C65E7092801000A68531C24
:102400000B601070704701B581B00020009042F65B
:102410003C0101984843009002E00098401E009063
:1024200000980028F9D10CBD01B581B000200090C2
:10243000019800EB400101EBC000009002E0009821
:10244000401E009000980028F9D10CBDF8B5044654
:10245000002504F0F006F02000EA041746F004001E
:102460008DF800008DF8016047F004008DF802003F
:1024700047F008008DF8030000BF05E01DF80500D7
:1024800000F028F8681CC5B2042DF7DBF8BDF8B5DC
:102490000446002504F0F006F02000EA041746F098
:1024A0000D008DF8000046F009008DF8010047F09E
:1024B0000D008DF8020047F009008DF8030000BF01
:1024C00005E01DF8050000F005F8681CC5B2042DF4
:1024D000F7DBF8BD10B5044601211348FEF745FEB1
:1024E00000BF12491048FEF71FFE0028F9D0002255
:1024F0007E210D48FEF7FCFE00BF0D490A48FEF79D
:1025000013FE0028F9D021460748FEF7FAFE00BF67
:102510000749891C0448FEF707FE0028F8D001216E
:102520000148FEF72EFE10BD0054004001000300DC
:102530008200070070B504460D46012C04D104F159
:102540007F002844C6B204E005F14000C0B240F06C
:1025500080063046FFF77AFF70BD10B53320FFF7D5
:1025600075FF0A20FFF74FFF3220FFF76FFF322081
:10257000FFF749FF2820FFF769FF3220FFF743FFED
:102580000120FFF763FF3220FFF73DFF0620FFF732
:102590005DFF3220FFF737FF0C20FFF757FF322097
:1025A000FFF731FF0220FFF751FF3220FFF72BFF2B
:1025B00010BD10B5044603E014F8010BFFF767FFE8
:1025C00020780028F8D110BD764800684FF47A7260
:1025D000B0FBF2F1B1F1807F00D31DE021F07F402C
:1025E000401E4FF0E022506150170F22002807DAFA
:1025F00013071D0E6C4B00F00F04241F1D5503E044
:1026000013071C0E694B1C5400BF00204FF0E02242
:1026100090610720106100BFFEF736FEFEF7A2FEB4
:10262000FEF722FAFEF75CFC6148FFF7C5FD0220C9
:10263000FEF744FFFEF77EFC0220FEF76DFFFEF77B
:102640009FFAFEF76DFAFEF721F9FEF7DFF8FEF7C5
:10265000A1F8FEF7ADFEFFF780FF00210120FFF794
:1026600069FF54A0FFF7A5FF00210320FFF762FFD9
:1026700053A0FFF79EFF93E054480068072808D254
:10268000DFE800F004088D172649890005204F492E
:10269000086084E04E480088FEF7B2FA00E003E0EC
:1026A0004C4800780A28FADC00BF0520474908603A
:1026B00075E047480088FEF751F80E210120FFF72A
:1026C00039FF45A0FFF775FF05204049086066E027
:1026D000FEF735F83E4908800846028840A1414887
:1026E000FFF7BEFD0A210120FFF724FF3EA0FFF700
:1026F00060FF0A210120FFF71DFF3A48FFF759FF4D
:102700000E210120FFF716FF3AA0FFF752FF01202C
:102710002E49086043E02E48028831A13748FFF770
:102720009FFD0A210120FFF705FF30A0FFF741FFC1
:102730000A210120FFF7FEFE3048FFF73AFF30483C
:1027400027A102682F48FFF78BFD0B210220FFF71E
:10275000F1FE2DA0FFF72DFF0B210220FFF7EAFE6F
:102760002848FFF726FFFEF7CFFD2B4908700846E3
:102770000078022802D10120144908602648007818
:10278000032801D11149086023480078042801D1A9
:102790000E49086003E000200C49086000BF00BF3C
:1027A0006AE700003800002018ED00E000E400E0D7
:1027B000003801405345542053504545443A0000E9
:1027C0005245414C2053504545443A001C000020DE
:1027D00034000020140000205341564544000000FE
:1027E000256400003C010020202020202020202003
:1027F00000000000454550524F4D0000EC00002005
:102800001000002014010020202020202020202063
:102810002020202000000000220000203C2800088A
:1028200000000020B800000088220008F4280008FA
:10283000B8000020A8040000982200080000000052
:102840000000000000000000000000000000000088
:102850000000000000000000060000000000000072
:102860000000000000000000000000000000000068
:102870000000000000A24A04000000000000000068
:102880000102030406070809000000000102030416
:102890000102030406070809020406080000F40107
:1028A0000000000000000000000000009A999999C3
:1028B0009999B93F000000000000000000000000EE
:1028C0000000000000000000000000000000000008
:1028D00000000000000000000000000000000000F8
:1028E00000000000000000000000000000000000E8
:0428F00000000000E4
:04000005080000ED02
:00000001FF
